{
  "address": "0x01f1857dFB07D55F3F8B0F2F1e154D0AF87C6CFe",
  "abi": [
    {
      "inputs": [
        {
          "internalType": "contract IStableSwapInfo",
          "name": "_twoPoolInfo",
          "type": "address"
        },
        {
          "internalType": "contract IStableSwapInfo",
          "name": "_threePoolInfo",
          "type": "address"
        }
      ],
      "stateMutability": "nonpayable",
      "type": "constructor"
    },
    {
      "inputs": [
        {
          "internalType": "address",
          "name": "_swap",
          "type": "address"
        },
        {
          "internalType": "uint256",
          "name": "i",
          "type": "uint256"
        },
        {
          "internalType": "uint256",
          "name": "j",
          "type": "uint256"
        },
        {
          "internalType": "uint256",
          "name": "dy",
          "type": "uint256"
        },
        {
          "internalType": "uint256",
          "name": "max_dx",
          "type": "uint256"
        }
      ],
      "name": "get_dx",
      "outputs": [
        {
          "internalType": "uint256",
          "name": "dx",
          "type": "uint256"
        }
      ],
      "stateMutability": "view",
      "type": "function"
    },
    {
      "inputs": [],
      "name": "threePoolInfo",
      "outputs": [
        {
          "internalType": "contract IStableSwapInfo",
          "name": "",
          "type": "address"
        }
      ],
      "stateMutability": "view",
      "type": "function"
    },
    {
      "inputs": [],
      "name": "twoPoolInfo",
      "outputs": [
        {
          "internalType": "contract IStableSwapInfo",
          "name": "",
          "type": "address"
        }
      ],
      "stateMutability": "view",
      "type": "function"
    }
  ],
  "transactionHash": "0xeb9e63483a3f4af65d3e313c71c0ef64128420eafc7d86cc4a7ce731cc059463",
  "args": [
    "0x6fc31BD10D756542Db84B5E92CA5B9eaA4247810",
    "0x56260CaFc906EC20aa5582a04B4cAFE9184ECBfc"
  ],
  "numDeployments": 1,
  "solcInputHash": "fc83a4ed275be7fd8ab6a2a2ce2cc8db",
  "bytecode": "0x60c03461008857601f61041b38819003918201601f19168301916001600160401b0383118484101761008d57808492604094855283398101031261008857610052602061004b836100a3565b92016100a3565b9060805260a05260405161036390816100b8823960805181818161010301526102fa015260a0518181816101dd01526102b70152f35b600080fd5b634e487b7160e01b600052604160045260246000fd5b51906001600160a01b03821682036100885756fe60806040818152600436101561001457600080fd5b600091823560e01c90816304931513146102db5750806367036ce5146102985763ca4bc7141461004357600080fd5b346102945760a036600319011261029457600435906001600160a01b039283831693848403610294576024359060443590606435926084359685978751809a630293577560e41b825281600460209d8e935afa90811561028a57908b969594939291899161024d575b506002810361017b57508851633292f1c560e21b81526001600160a01b03929092166004830152602482019290925260448101939093526064830194909452608482019390935293945091929190829060a49082907f0000000000000000000000000000000000000000000000000000000000000000165afa91821561017057809261013d575b5050905b51908152f35b9091508382813d8311610169575b610155818361031e565b810103126101665750513880610133565b80fd5b503d61014b565b8351903d90823e3d90fd5b600314610190575b5050505050505050610137565b8851633292f1c560e21b81526001600160a01b03929092166004830152602482019290925260448101939093526064830194909452608482019390935293945091929190829060a49082907f0000000000000000000000000000000000000000000000000000000000000000165afa91821561017057809261021d575b5050903880848180808080610183565b9091508382813d8311610246575b610235818361031e565b81010312610166575051388061020d565b503d61022b565b878193949596979892503d8311610283575b610269818361031e565b8101031261027f57908a959493929151386100ac565b8780fd5b503d61025f565b89513d8a823e3d90fd5b5080fd5b5034610294578160031936011261029457602090516001600160a01b037f0000000000000000000000000000000000000000000000000000000000000000168152f35b8390346102945781600319360112610294576020906001600160a01b037f0000000000000000000000000000000000000000000000000000000000000000168152f35b90601f8019910116810190811067ffffffffffffffff82111761034057604052565b634e487b7160e01b600052604160045260246000fdfea164736f6c6343000818000a",
  "devdoc": {
    "details": "This contract provides functions to retrieve information about stable swaps with 2 or 3 coins",
    "kind": "dev",
    "methods": {
      "get_dx(address,uint256,uint256,uint256,uint256)": {
        "params": {
          "_swap": ": Addresses of pool conracts .",
          "dy": ":  the given amount out",
          "i": ": the token index.",
          "j": ": the token index ",
          "max_dx": ": the maximum of amount in "
        }
      }
    },
    "title": "StableSwapInfo",
    "version": 1
  },
  "userdoc": {
    "kind": "user",
    "methods": {
      "get_dx(address,uint256,uint256,uint256,uint256)": {
        "notice": "get amountIn  with the given amount out  "
      }
    },
    "notice": "Contract for retrieving information about stable swaps",
    "version": 1
  },
  "storageLayout": {
    "storage": [],
    "types": null
  }
}