{
  "address": "0x5FbDB2315678afecb367f032d93F642f64180aa3",
  "abi": [
    {
      "inputs": [
        {
          "internalType": "address",
          "name": "stableSwapFactory",
          "type": "address"
        },
        {
          "internalType": "address",
          "name": "stableSwapInfo",
          "type": "address"
        },
        {
          "internalType": "address[]",
          "name": "path",
          "type": "address[]"
        },
        {
          "internalType": "uint256[]",
          "name": "flag",
          "type": "uint256[]"
        },
        {
          "internalType": "uint256",
          "name": "amountOut",
          "type": "uint256"
        }
      ],
      "name": "getStableAmountsIn",
      "outputs": [
        {
          "internalType": "uint256[]",
          "name": "amounts",
          "type": "uint256[]"
        }
      ],
      "stateMutability": "view",
      "type": "function"
    },
    {
      "inputs": [
        {
          "internalType": "address",
          "name": "stableSwapFactory",
          "type": "address"
        },
        {
          "internalType": "address[]",
          "name": "path",
          "type": "address[]"
        },
        {
          "internalType": "uint256[]",
          "name": "flag",
          "type": "uint256[]"
        },
        {
          "internalType": "uint256",
          "name": "amountIn",
          "type": "uint256"
        }
      ],
      "name": "getStableAmountsOut",
      "outputs": [
        {
          "internalType": "uint256[]",
          "name": "amounts",
          "type": "uint256[]"
        }
      ],
      "stateMutability": "view",
      "type": "function"
    },
    {
      "inputs": [
        {
          "internalType": "address",
          "name": "stableSwapFactory",
          "type": "address"
        },
        {
          "internalType": "address",
          "name": "input",
          "type": "address"
        },
        {
          "internalType": "address",
          "name": "output",
          "type": "address"
        },
        {
          "internalType": "uint256",
          "name": "flag",
          "type": "uint256"
        }
      ],
      "name": "getStableInfo",
      "outputs": [
        {
          "internalType": "uint256",
          "name": "i",
          "type": "uint256"
        },
        {
          "internalType": "uint256",
          "name": "j",
          "type": "uint256"
        },
        {
          "internalType": "address",
          "name": "swapContract",
          "type": "address"
        }
      ],
      "stateMutability": "view",
      "type": "function"
    }
  ],
  "transactionHash": "0xf8d63d38dc024b1ca96aee4fa762f5dd52c073a346b2ebbf54c1ad406cebb543",
  "args": [],
  "numDeployments": 1,
  "solcInputHash": "7476d54eca9d37e76daefb5ed7a39afc",
  "bytecode": "0x6080806040523461001a576109c89081610020823930815050f35b600080fdfe6080604052600436101561001257600080fd5b60003560e01c80635923cab31461025c57806386be32f91461009c5763b735aecd1461003d57600080fd5b6080366003190112610097576100516103fa565b610059610410565b90604435916001600160a01b03918284168403610097576060936100809260643592610634565b906040939293519384526020840152166040820152f35b600080fd5b6080366003190112610097576100b06103fa565b67ffffffffffffffff90602435828111610097576100d2903690600401610476565b91604435908111610097576100eb9036906004016104e6565b918051916100fc6002841015610582565b610105836105da565b9182511561024657606435602084015260005b8460001981011161021e576000198501811015610234576001600160a01b03610141828461060c565b51169060018101811161021e57602061017f6064936001600160a01b0361016b600186018861060c565b5116610177858c61060c565b519188610634565b9490916001600160a01b03610194868b61060c565b5196604051978895869463556d6e9f60e01b8652600486015260248501526044840152165afa8015610212576000906101df575b600192506101d88383018761060c565b5201610118565b506020823d60201161020a575b816101f960209383610426565b8101031261009757600191516101c8565b3d91506101ec565b6040513d6000823e3d90fd5b634e487b7160e01b600052601160045260246000fd5b604051806102428682610546565b0390f35b634e487b7160e01b600052603260045260246000fd5b60a0366003190112610097576102706103fa565b610278610410565b67ffffffffffffffff916044358381116100975761029a903690600401610476565b92606490606435908111610097576102b69036906004016104e6565b926084938551956102ca6002881015610582565b6102d3876105da565b956000199788810190811161021e576084356102ef828a61060c565b52805b61030457604051806102428a82610546565b808981011161021e5761034e6001600160a01b036103248b84018661060c565b51166001600160a01b03610338848761060c565b51166103468c85018861060c565b51918a610634565b919061035a848c61060c565b51916001600160a01b0360405194633292f1c560e21b86521660048501526024840152604483015287820152898382015260208160a4816001600160a01b038a165afa908115610212576000916103c8575b506103b98a83018a61060c565b52801561021e578801806102f2565b90506020813d6020116103f2575b816103e360209383610426565b8101031261009757518a6103ac565b3d91506103d6565b600435906001600160a01b038216820361009757565b602435906001600160a01b038216820361009757565b90601f8019910116810190811067ffffffffffffffff82111761044857604052565b634e487b7160e01b600052604160045260246000fd5b67ffffffffffffffff81116104485760051b60200190565b9080601f830112156100975760209082356104908161045e565b9361049e6040519586610426565b81855260208086019260051b82010192831161009757602001905b8282106104c7575050505090565b81356001600160a01b03811681036100975781529083019083016104b9565b9080601f830112156100975760209082356105008161045e565b9361050e6040519586610426565b81855260208086019260051b82010192831161009757602001905b828210610537575050505090565b81358152908301908301610529565b602090602060408183019282815285518094520193019160005b82811061056e575050505090565b835185529381019392810192600101610560565b1561058957565b60405162461bcd60e51b8152602060048201526024808201527f676574537461626c65416d6f756e7473496e3a20696e636f7272656374206c656044820152630dccee8d60e31b6064820152608490fd5b906105e48261045e565b6105f16040519182610426565b8281528092610602601f199161045e565b0190602036910137565b80518210156102465760209160051b010190565b51906001600160a01b038216820361009757565b90939192936000936000948586600289146000146107e457505060408051632007bd0f60e11b81526001600160a01b03858116600483015293841660248201529697509193608091508690604490829087165afa9485156107da578695610734575b5050818060208601511691161460001461072b5760ff845b169384610723575060ff60015b16925116905b6001600160a01b038216156106d257565b60405162461bcd60e51b815260206004820152602360248201527f676574537461626c65496e666f3a20696e76616c696420706f6f6c206164647260448201526265737360e81b6064820152608490fd5b60ff906106bb565b60ff60016106ae565b909194506080813d6080116107d2575b8161075160809383610426565b810103126107ce578151916080830183811067ffffffffffffffff8211176107ba5781526107ad9160609161078582610620565b855261079360208301610620565b60208601526107a3818301610620565b9085015201610620565b6060820152923880610696565b634e487b7160e01b88526041600452602488fd5b8580fd5b3d9150610744565b81513d88823e3d90fd5b95949293909691976003146107fd575b505050506106c1565b6040805163923093cb60e01b81526001600160a01b0383811660048301528681166024830152959990989697509495929492939192909160a090899060449082908a165afa9788156109b15785986108f8575b50908591828060208b01511694168481146000146108b85750508185995b169283036108885750505050925b511690388080806107f4565b87015192935090911681036108a157505060019261087c565b8260608693960151160361087c576002935061087c565b909192838a01511681146000146108d657505084908160019961086e565b8660608a9b939b015116146108ef575b9085809261086e565b600298506108e6565b90975060a0813d60a0116109a9575b8161091460a09383610426565b810103126109a55781519060a0820182811067ffffffffffffffff821117610991576080849392610984928a965261094b81610620565b845261095960208201610620565b6020850152610969858201610620565b8585015261097960608201610620565b606085015201610620565b6080820152979091610850565b634e487b7160e01b87526041600452602487fd5b8480fd5b3d9150610907565b82513d87823e3d90fdfea164736f6c6343000818000a",
  "devdoc": {
    "kind": "dev",
    "methods": {},
    "version": 1
  },
  "userdoc": {
    "kind": "user",
    "methods": {},
    "version": 1
  },
  "storageLayout": {
    "storage": [],
    "types": null
  }
}