{
  "address": "0xe7f1725E7734CE288F8367e1Bb143E90bb3F0512",
  "abi": [
    {
      "inputs": [],
      "stateMutability": "nonpayable",
      "type": "constructor"
    },
    {
      "anonymous": false,
      "inputs": [
        {
          "indexed": true,
          "internalType": "address",
          "name": "swapLPContract",
          "type": "address"
        },
        {
          "indexed": false,
          "internalType": "address",
          "name": "tokenA",
          "type": "address"
        },
        {
          "indexed": false,
          "internalType": "address",
          "name": "tokenB",
          "type": "address"
        },
        {
          "indexed": false,
          "internalType": "address",
          "name": "tokenC",
          "type": "address"
        }
      ],
      "name": "NewStableSwapLP",
      "type": "event"
    },
    {
      "anonymous": false,
      "inputs": [
        {
          "indexed": true,
          "internalType": "address",
          "name": "previousOwner",
          "type": "address"
        },
        {
          "indexed": true,
          "internalType": "address",
          "name": "newOwner",
          "type": "address"
        }
      ],
      "name": "OwnershipTransferred",
      "type": "event"
    },
    {
      "inputs": [
        {
          "internalType": "address",
          "name": "_tokenA",
          "type": "address"
        },
        {
          "internalType": "address",
          "name": "_tokenB",
          "type": "address"
        },
        {
          "internalType": "address",
          "name": "_tokenC",
          "type": "address"
        },
        {
          "internalType": "address",
          "name": "_minter",
          "type": "address"
        }
      ],
      "name": "createSwapLP",
      "outputs": [
        {
          "internalType": "address",
          "name": "",
          "type": "address"
        }
      ],
      "stateMutability": "nonpayable",
      "type": "function"
    },
    {
      "inputs": [],
      "name": "owner",
      "outputs": [
        {
          "internalType": "address",
          "name": "",
          "type": "address"
        }
      ],
      "stateMutability": "view",
      "type": "function"
    },
    {
      "inputs": [],
      "name": "renounceOwnership",
      "outputs": [],
      "stateMutability": "nonpayable",
      "type": "function"
    },
    {
      "inputs": [
        {
          "internalType": "address",
          "name": "newOwner",
          "type": "address"
        }
      ],
      "name": "transferOwnership",
      "outputs": [],
      "stateMutability": "nonpayable",
      "type": "function"
    }
  ],
  "transactionHash": "0x666f71a4d1e164ed89e49f03d4cee95d5d2588c8def8b3c1f786c5d189d86275",
  "args": [],
  "numDeployments": 1,
  "solcInputHash": "c9085358f158263735fdb8c81e9dc0b1",
  "bytecode": "0x6080806040523461005b5760008054336001600160a01b0319821681178355916001600160a01b03909116907f8be0079c531659141344cd1fd0a4f28419497f9722a3daafe3b4186f6b6457e09080a361139a90816100618239f35b600080fdfe6080604052600436101561001257600080fd5b6000803560e01c908163715018a61461007d5781638da5cb5b1461005557508063b240221a146100505763f2fde38b1461004b57600080fd5b6102e1565b61014a565b3461007a578060031936011261007a576001600160a01b036020915416604051908152f35b80fd5b3461007a578060031936011261007a5761009561042f565b806001600160a01b03815473ffffffffffffffffffffffffffffffffffffffff1981168355167f8be0079c531659141344cd1fd0a4f28419497f9722a3daafe3b4186f6b6457e08280a380f35b60009103126100ed57565b600080fd5b600435906001600160a01b03821682036100ed57565b602435906001600160a01b03821682036100ed57565b604435906001600160a01b03821682036100ed57565b606435906001600160a01b03821682036100ed57565b346100ed5760803660031901126100ed576101636100f2565b61016b610108565b61017361011e565b9161017c610134565b61018461042f565b610f0661019360208201610413565b9080825260208201906104888239604051606085811b6bffffffffffffffffffffffff199081166020840190815288831b8216603485015289831b821660488501523390921b16605c830152426070830152466090808401919091528252906101fd60b0826103f1565b5190209151906000f5926001600160a01b03841692833b156100ed57604051637e51dad560e11b81526001600160a01b0393909316600484015260008360248183885af180156102dc576102bf967f4e4b290d6a2867680831ef72cd9296e15a5df4169e3d44b24cd3ce3ecd753327946102a2926102c3575b50604080516001600160a01b039485168152948416602086015292169183019190915281906060820190565b0390a26040516001600160a01b0390911681529081906020820190565b0390f35b806102d06102d6926103c7565b806100e2565b38610276565b610423565b346100ed5760203660031901126100ed576102fa6100f2565b61030261042f565b6001600160a01b03809116801561035c5760009182548273ffffffffffffffffffffffffffffffffffffffff198216178455167f8be0079c531659141344cd1fd0a4f28419497f9722a3daafe3b4186f6b6457e08380a380f35b60405162461bcd60e51b815260206004820152602660248201527f4f776e61626c653a206e6577206f776e657220697320746865207a65726f206160448201527f64647265737300000000000000000000000000000000000000000000000000006064820152608490fd5b67ffffffffffffffff81116103db57604052565b634e487b7160e01b600052604160045260246000fd5b90601f8019910116810190811067ffffffffffffffff8211176103db57604052565b9061042160405192836103f1565b565b6040513d6000823e3d90fd5b6001600160a01b0360005416330361044357565b606460405162461bcd60e51b815260206004820152602060248201527f4f776e61626c653a2063616c6c6572206973206e6f7420746865206f776e65726044820152fdfe6080346200032b576040906001600160401b0390808301828111828210176200022b578352600e81526020916d537461626c6553776170204c507360901b838301528351848101818110838211176200022b57855260098152680537461626c652d4c560bc1b8482015282518281116200022b576003918254916001958684811c9416801562000320575b888510146200030a578190601f94858111620002b4575b5088908583116001146200024d5760009262000241575b505060001982861b1c191690861b1783555b80519384116200022b5760049586548681811c9116801562000220575b828210146200020b57838111620001c0575b508092851160011462000152575093839491849260009562000146575b50501b92600019911b1c19161790555b600580546001600160a01b0319163317905551610bd59081620003318239f35b01519350388062000116565b92919084601f1981168860005285600020956000905b89838310620001a557505050106200018a575b50505050811b01905562000126565b01519060f884600019921b161c19169055388080806200017b565b85870151895590970196948501948893509081019062000168565b87600052816000208480880160051c82019284891062000201575b0160051c019087905b828110620001f4575050620000f9565b60008155018790620001e4565b92508192620001db565b602288634e487b7160e01b6000525260246000fd5b90607f1690620000e7565b634e487b7160e01b600052604160045260246000fd5b015190503880620000b8565b90889350601f19831691876000528a6000209260005b8c8282106200029d575050841162000284575b505050811b018355620000ca565b015160001983881b60f8161c1916905538808062000276565b8385015186558c9790950194938401930162000263565b90915085600052886000208580850160051c8201928b861062000300575b918a91869594930160051c01915b828110620002f0575050620000a1565b600081558594508a9101620002e0565b92508192620002d2565b634e487b7160e01b600052602260045260246000fd5b93607f16936200008a565b600080fdfe60806040908082526004918236101561001757600080fd5b600092833560e01c92836306fdde031461076657508263075461721461073e578263095ea7b31461071457826318160ddd146106f557826323b872dd1461062b578263313ce5671461060f57826339509351146105c057826340c10f19146104ee57826370a08231146104b857826379cc67901461038857826395d89b4114610267578263a457c2d7146101ab57508163a9059cbb1461017a578163dd62ed3e1461012d575063fca3b5aa146100cc57600080fd5b3461012a57602036600319011261012a576100e5610889565b7fffffffffffffffffffffffff0000000000000000000000000000000000000000600554916001600160a01b039061012082851633146108dd565b1691161760055580f35b80fd5b9050346101765780600319360112610176578060209261014b610889565b6101536108a4565b6001600160a01b0391821683526001865283832091168252845220549051908152f35b5080fd5b9050346101765780600319360112610176576020906101a461019a610889565b6024359033610a2b565b5160018152f35b833461012a578260031936011261012a576101c4610889565b91836024359233815260016020528181206001600160a01b03861682526020522054908282106101fe576020856101a48585038733610929565b608490602086519162461bcd60e51b8352820152602560248201527f45524332303a2064656372656173656420616c6c6f77616e63652062656c6f7760448201527f207a65726f0000000000000000000000000000000000000000000000000000006064820152fd5b83823461017657816003193601126101765780519082845460018160011c906001831692831561037e575b602093848410811461036b5783885290811561034f57506001146102fa575b505050829003601f01601f191682019267ffffffffffffffff8411838510176102e757508291826102e3925282610840565b0390f35b634e487b7160e01b815260418552602490fd5b8787529192508591837f8a35acfbc15ff81a39ae7d344fd709f28e8600b4aa8c65c6b64bfe7fe36bd19b5b83851061033b57505050508301018580806102b1565b805488860183015293019284908201610325565b60ff1916878501525050151560051b84010190508580806102b1565b634e487b7160e01b895260228a52602489fd5b91607f1691610292565b8390346101765782600319360112610176576103a2610889565b602435906001600160a01b03906103be826005541633146108dd565b1691821561046b5782845283602052848420549082821061041d57508184957fddf252ad1be2c89b69c2b068fc378daa952ba7f163c4a11628f55a4df523b3ef936020938688528785520381872055816002540360025551908152a380f35b608490602087519162461bcd60e51b8352820152602260248201527f45524332303a206275726e20616d6f756e7420657863656564732062616c616e604482015261636560f01b6064820152fd5b608490602086519162461bcd60e51b8352820152602160248201527f45524332303a206275726e2066726f6d20746865207a65726f206164647265736044820152607360f81b6064820152fd5b83823461017657602036600319011261017657806020926001600160a01b036104df610889565b16815280845220549051908152f35b9150346105bc57806003193601126105bc57610508610889565b90602435916001600160a01b0390610525826005541633146108dd565b1692831561057a57506020827fddf252ad1be2c89b69c2b068fc378daa952ba7f163c4a11628f55a4df523b3ef9261056087956002546108ba565b60025585855284835280852082815401905551908152a380f35b6020606492519162461bcd60e51b8352820152601f60248201527f45524332303a206d696e7420746f20746865207a65726f2061646472657373006044820152fd5b8280fd5b8382346101765780600319360112610176576101a46020926106086105e3610889565b91338152600186528481206001600160a01b03841682528652846024359120546108ba565b9033610929565b8382346101765781600319360112610176576020905160128152f35b83903461017657606036600319011261017657610646610889565b61064e6108a4565b9184604435946001600160a01b038416815260016020528181203382526020522054906000198203610689575b6020866101a4878787610a2b565b8482106106b257509183916106a7602096956101a495033383610929565b91939481935061067b565b606490602087519162461bcd60e51b8352820152601d60248201527f45524332303a20696e73756666696369656e7420616c6c6f77616e63650000006044820152fd5b8382346101765781600319360112610176576020906002549051908152f35b8382346101765780600319360112610176576020906101a4610734610889565b6024359033610929565b8382346101765781600319360112610176576020906001600160a01b03600554169051908152f35b849192346105bc57826003193601126105bc578260035460018160011c9060018316928315610836575b602093848410811461036b5783885290811561034f57506001146107e057505050829003601f01601f191682019267ffffffffffffffff8411838510176102e757508291826102e3925282610840565b600387529192508591837fc2575a0e9e593c00f959f8c92f12db2869c3395a3b0502d05e2516446f71f85b5b83851061082257505050508301018580806102b1565b80548886018301529301928490820161080c565b91607f1691610790565b6020808252825181830181905290939260005b82811061087557505060409293506000838284010152601f8019910116010190565b818101860151848201604001528501610853565b600435906001600160a01b038216820361089f57565b600080fd5b602435906001600160a01b038216820361089f57565b919082018092116108c757565b634e487b7160e01b600052601160045260246000fd5b156108e457565b60405162461bcd60e51b815260206004820152600a60248201527f4e6f74206d696e746572000000000000000000000000000000000000000000006044820152606490fd5b6001600160a01b038091169182156109da571691821561098a5760207f8c5be1e5ebec7d5bd14f71427d1e84f3dd0314c0f7b2291e5b200ac8c7c3b925918360005260018252604060002085600052825280604060002055604051908152a3565b60405162461bcd60e51b815260206004820152602260248201527f45524332303a20617070726f766520746f20746865207a65726f206164647265604482015261737360f01b6064820152608490fd5b60405162461bcd60e51b8152602060048201526024808201527f45524332303a20617070726f76652066726f6d20746865207a65726f206164646044820152637265737360e01b6064820152608490fd5b6001600160a01b03809116918215610b5d5716918215610b0c57600082815280602052604081205491808310610aa157604082827fddf252ad1be2c89b69c2b068fc378daa952ba7f163c4a11628f55a4df523b3ef958760209652828652038282205586815220818154019055604051908152a3565b60405162461bcd60e51b815260206004820152602660248201527f45524332303a207472616e7366657220616d6f756e742065786365656473206260448201527f616c616e636500000000000000000000000000000000000000000000000000006064820152608490fd5b60405162461bcd60e51b815260206004820152602360248201527f45524332303a207472616e7366657220746f20746865207a65726f206164647260448201526265737360e81b6064820152608490fd5b60405162461bcd60e51b815260206004820152602560248201527f45524332303a207472616e736665722066726f6d20746865207a65726f20616460448201527f64726573730000000000000000000000000000000000000000000000000000006064820152608490fdfea164736f6c6343000818000aa164736f6c6343000818000a",
  "devdoc": {
    "details": "This contract manages the creation of LP tokens for stable swap pools",
    "kind": "dev",
    "methods": {
      "createSwapLP(address,address,address,address)": {
        "params": {
          "_minter": ": Minter address",
          "_tokenA": ": Addresses of ERC20 conracts .",
          "_tokenB": ": Addresses of ERC20 conracts .",
          "_tokenC": ": Addresses of ERC20 conracts ."
        }
      },
      "owner()": {
        "details": "Returns the address of the current owner."
      },
      "renounceOwnership()": {
        "details": "Leaves the contract without owner. It will not be possible to call `onlyOwner` functions. Can only be called by the current owner. NOTE: Renouncing ownership will leave the contract without an owner, thereby disabling any functionality that is only available to the owner."
      },
      "transferOwnership(address)": {
        "details": "Transfers ownership of the contract to a new account (`newOwner`). Can only be called by the current owner."
      }
    },
    "title": "stable swap LP factory",
    "version": 1
  },
  "userdoc": {
    "kind": "user",
    "methods": {
      "createSwapLP(address,address,address,address)": {
        "notice": "createSwapLP"
      }
    },
    "notice": "A LP factory contract for creating LP tokens for stable swap pools",
    "version": 1
  },
  "storageLayout": {
    "storage": [
      {
        "astId": 7,
        "contract": "contracts/stableSwap/StableSwapLPFactory.sol:StableSwapLPFactory",
        "label": "_owner",
        "offset": 0,
        "slot": "0",
        "type": "t_address"
      }
    ],
    "types": {
      "t_address": {
        "encoding": "inplace",
        "label": "address",
        "numberOfBytes": "20"
      }
    }
  }
}