{
  "address": "0xDc64a140Aa3E981100a9becA4E685f962f0cF6C9",
  "abi": [
    {
      "inputs": [],
      "stateMutability": "nonpayable",
      "type": "constructor"
    },
    {
      "anonymous": false,
      "inputs": [
        {
          "indexed": true,
          "internalType": "address",
          "name": "provider",
          "type": "address"
        },
        {
          "indexed": false,
          "internalType": "uint256[3]",
          "name": "token_amounts",
          "type": "uint256[3]"
        },
        {
          "indexed": false,
          "internalType": "uint256[3]",
          "name": "fees",
          "type": "uint256[3]"
        },
        {
          "indexed": false,
          "internalType": "uint256",
          "name": "invariant",
          "type": "uint256"
        },
        {
          "indexed": false,
          "internalType": "uint256",
          "name": "token_supply",
          "type": "uint256"
        }
      ],
      "name": "AddLiquidity",
      "type": "event"
    },
    {
      "anonymous": false,
      "inputs": [
        {
          "indexed": true,
          "internalType": "uint256",
          "name": "deadline",
          "type": "uint256"
        },
        {
          "indexed": false,
          "internalType": "uint256",
          "name": "fee",
          "type": "uint256"
        },
        {
          "indexed": false,
          "internalType": "uint256",
          "name": "admin_fee",
          "type": "uint256"
        }
      ],
      "name": "CommitNewFee",
      "type": "event"
    },
    {
      "anonymous": false,
      "inputs": [],
      "name": "DonateAdminFees",
      "type": "event"
    },
    {
      "anonymous": false,
      "inputs": [],
      "name": "Kill",
      "type": "event"
    },
    {
      "anonymous": false,
      "inputs": [
        {
          "indexed": false,
          "internalType": "uint256",
          "name": "fee",
          "type": "uint256"
        },
        {
          "indexed": false,
          "internalType": "uint256",
          "name": "admin_fee",
          "type": "uint256"
        }
      ],
      "name": "NewFee",
      "type": "event"
    },
    {
      "anonymous": false,
      "inputs": [
        {
          "indexed": true,
          "internalType": "address",
          "name": "previousOwner",
          "type": "address"
        },
        {
          "indexed": true,
          "internalType": "address",
          "name": "newOwner",
          "type": "address"
        }
      ],
      "name": "OwnershipTransferred",
      "type": "event"
    },
    {
      "anonymous": false,
      "inputs": [
        {
          "indexed": false,
          "internalType": "uint256",
          "name": "old_A",
          "type": "uint256"
        },
        {
          "indexed": false,
          "internalType": "uint256",
          "name": "new_A",
          "type": "uint256"
        },
        {
          "indexed": false,
          "internalType": "uint256",
          "name": "initial_time",
          "type": "uint256"
        },
        {
          "indexed": false,
          "internalType": "uint256",
          "name": "future_time",
          "type": "uint256"
        }
      ],
      "name": "RampA",
      "type": "event"
    },
    {
      "anonymous": false,
      "inputs": [
        {
          "indexed": true,
          "internalType": "address",
          "name": "provider",
          "type": "address"
        },
        {
          "indexed": false,
          "internalType": "uint256[3]",
          "name": "token_amounts",
          "type": "uint256[3]"
        },
        {
          "indexed": false,
          "internalType": "uint256[3]",
          "name": "fees",
          "type": "uint256[3]"
        },
        {
          "indexed": false,
          "internalType": "uint256",
          "name": "token_supply",
          "type": "uint256"
        }
      ],
      "name": "RemoveLiquidity",
      "type": "event"
    },
    {
      "anonymous": false,
      "inputs": [
        {
          "indexed": true,
          "internalType": "address",
          "name": "provider",
          "type": "address"
        },
        {
          "indexed": false,
          "internalType": "uint256[3]",
          "name": "token_amounts",
          "type": "uint256[3]"
        },
        {
          "indexed": false,
          "internalType": "uint256[3]",
          "name": "fees",
          "type": "uint256[3]"
        },
        {
          "indexed": false,
          "internalType": "uint256",
          "name": "invariant",
          "type": "uint256"
        },
        {
          "indexed": false,
          "internalType": "uint256",
          "name": "token_supply",
          "type": "uint256"
        }
      ],
      "name": "RemoveLiquidityImbalance",
      "type": "event"
    },
    {
      "anonymous": false,
      "inputs": [
        {
          "indexed": true,
          "internalType": "address",
          "name": "provider",
          "type": "address"
        },
        {
          "indexed": false,
          "internalType": "uint256",
          "name": "index",
          "type": "uint256"
        },
        {
          "indexed": false,
          "internalType": "uint256",
          "name": "token_amount",
          "type": "uint256"
        },
        {
          "indexed": false,
          "internalType": "uint256",
          "name": "coin_amount",
          "type": "uint256"
        }
      ],
      "name": "RemoveLiquidityOne",
      "type": "event"
    },
    {
      "anonymous": false,
      "inputs": [],
      "name": "RevertParameters",
      "type": "event"
    },
    {
      "anonymous": false,
      "inputs": [
        {
          "indexed": false,
          "internalType": "uint256",
          "name": "rose_gas",
          "type": "uint256"
        }
      ],
      "name": "SetROSEGas",
      "type": "event"
    },
    {
      "anonymous": false,
      "inputs": [
        {
          "indexed": false,
          "internalType": "uint256",
          "name": "A",
          "type": "uint256"
        },
        {
          "indexed": false,
          "internalType": "uint256",
          "name": "t",
          "type": "uint256"
        }
      ],
      "name": "StopRampA",
      "type": "event"
    },
    {
      "anonymous": false,
      "inputs": [
        {
          "indexed": true,
          "internalType": "address",
          "name": "buyer",
          "type": "address"
        },
        {
          "indexed": false,
          "internalType": "uint256",
          "name": "sold_id",
          "type": "uint256"
        },
        {
          "indexed": false,
          "internalType": "uint256",
          "name": "tokens_sold",
          "type": "uint256"
        },
        {
          "indexed": false,
          "internalType": "uint256",
          "name": "bought_id",
          "type": "uint256"
        },
        {
          "indexed": false,
          "internalType": "uint256",
          "name": "tokens_bought",
          "type": "uint256"
        }
      ],
      "name": "TokenExchange",
      "type": "event"
    },
    {
      "anonymous": false,
      "inputs": [],
      "name": "Unkill",
      "type": "event"
    },
    {
      "inputs": [],
      "name": "A",
      "outputs": [
        {
          "internalType": "uint256",
          "name": "",
          "type": "uint256"
        }
      ],
      "stateMutability": "view",
      "type": "function"
    },
    {
      "inputs": [],
      "name": "ADMIN_ACTIONS_DELAY",
      "outputs": [
        {
          "internalType": "uint256",
          "name": "",
          "type": "uint256"
        }
      ],
      "stateMutability": "view",
      "type": "function"
    },
    {
      "inputs": [],
      "name": "FEE_DENOMINATOR",
      "outputs": [
        {
          "internalType": "uint256",
          "name": "",
          "type": "uint256"
        }
      ],
      "stateMutability": "view",
      "type": "function"
    },
    {
      "inputs": [],
      "name": "KILL_DEADLINE_DT",
      "outputs": [
        {
          "internalType": "uint256",
          "name": "",
          "type": "uint256"
        }
      ],
      "stateMutability": "view",
      "type": "function"
    },
    {
      "inputs": [],
      "name": "MAX_A",
      "outputs": [
        {
          "internalType": "uint256",
          "name": "",
          "type": "uint256"
        }
      ],
      "stateMutability": "view",
      "type": "function"
    },
    {
      "inputs": [],
      "name": "MAX_ADMIN_FEE",
      "outputs": [
        {
          "internalType": "uint256",
          "name": "",
          "type": "uint256"
        }
      ],
      "stateMutability": "view",
      "type": "function"
    },
    {
      "inputs": [],
      "name": "MAX_A_CHANGE",
      "outputs": [
        {
          "internalType": "uint256",
          "name": "",
          "type": "uint256"
        }
      ],
      "stateMutability": "view",
      "type": "function"
    },
    {
      "inputs": [],
      "name": "MAX_DECIMAL",
      "outputs": [
        {
          "internalType": "uint256",
          "name": "",
          "type": "uint256"
        }
      ],
      "stateMutability": "view",
      "type": "function"
    },
    {
      "inputs": [],
      "name": "MAX_FEE",
      "outputs": [
        {
          "internalType": "uint256",
          "name": "",
          "type": "uint256"
        }
      ],
      "stateMutability": "view",
      "type": "function"
    },
    {
      "inputs": [],
      "name": "MAX_ROSE_gas",
      "outputs": [
        {
          "internalType": "uint256",
          "name": "",
          "type": "uint256"
        }
      ],
      "stateMutability": "view",
      "type": "function"
    },
    {
      "inputs": [],
      "name": "MIN_RAMP_TIME",
      "outputs": [
        {
          "internalType": "uint256",
          "name": "",
          "type": "uint256"
        }
      ],
      "stateMutability": "view",
      "type": "function"
    },
    {
      "inputs": [],
      "name": "MIN_ROSE_gas",
      "outputs": [
        {
          "internalType": "uint256",
          "name": "",
          "type": "uint256"
        }
      ],
      "stateMutability": "view",
      "type": "function"
    },
    {
      "inputs": [],
      "name": "N_COINS",
      "outputs": [
        {
          "internalType": "uint256",
          "name": "",
          "type": "uint256"
        }
      ],
      "stateMutability": "view",
      "type": "function"
    },
    {
      "inputs": [],
      "name": "PRECISION",
      "outputs": [
        {
          "internalType": "uint256",
          "name": "",
          "type": "uint256"
        }
      ],
      "stateMutability": "view",
      "type": "function"
    },
    {
      "inputs": [
        {
          "internalType": "uint256",
          "name": "",
          "type": "uint256"
        }
      ],
      "name": "PRECISION_MUL",
      "outputs": [
        {
          "internalType": "uint256",
          "name": "",
          "type": "uint256"
        }
      ],
      "stateMutability": "view",
      "type": "function"
    },
    {
      "inputs": [
        {
          "internalType": "uint256",
          "name": "",
          "type": "uint256"
        }
      ],
      "name": "RATES",
      "outputs": [
        {
          "internalType": "uint256",
          "name": "",
          "type": "uint256"
        }
      ],
      "stateMutability": "view",
      "type": "function"
    },
    {
      "inputs": [],
      "name": "STABLESWAP_FACTORY",
      "outputs": [
        {
          "internalType": "address",
          "name": "",
          "type": "address"
        }
      ],
      "stateMutability": "view",
      "type": "function"
    },
    {
      "inputs": [
        {
          "internalType": "uint256[3]",
          "name": "amounts",
          "type": "uint256[3]"
        },
        {
          "internalType": "uint256",
          "name": "min_mint_amount",
          "type": "uint256"
        }
      ],
      "name": "add_liquidity",
      "outputs": [],
      "stateMutability": "payable",
      "type": "function"
    },
    {
      "inputs": [],
      "name": "admin_actions_deadline",
      "outputs": [
        {
          "internalType": "uint256",
          "name": "",
          "type": "uint256"
        }
      ],
      "stateMutability": "view",
      "type": "function"
    },
    {
      "inputs": [
        {
          "internalType": "uint256",
          "name": "i",
          "type": "uint256"
        }
      ],
      "name": "admin_balances",
      "outputs": [
        {
          "internalType": "uint256",
          "name": "",
          "type": "uint256"
        }
      ],
      "stateMutability": "view",
      "type": "function"
    },
    {
      "inputs": [],
      "name": "admin_fee",
      "outputs": [
        {
          "internalType": "uint256",
          "name": "",
          "type": "uint256"
        }
      ],
      "stateMutability": "view",
      "type": "function"
    },
    {
      "inputs": [],
      "name": "apply_new_fee",
      "outputs": [],
      "stateMutability": "nonpayable",
      "type": "function"
    },
    {
      "inputs": [
        {
          "internalType": "uint256",
          "name": "",
          "type": "uint256"
        }
      ],
      "name": "balances",
      "outputs": [
        {
          "internalType": "uint256",
          "name": "",
          "type": "uint256"
        }
      ],
      "stateMutability": "view",
      "type": "function"
    },
    {
      "inputs": [
        {
          "internalType": "uint256[3]",
          "name": "amounts",
          "type": "uint256[3]"
        },
        {
          "internalType": "bool",
          "name": "deposit",
          "type": "bool"
        }
      ],
      "name": "calc_token_amount",
      "outputs": [
        {
          "internalType": "uint256",
          "name": "",
          "type": "uint256"
        }
      ],
      "stateMutability": "view",
      "type": "function"
    },
    {
      "inputs": [
        {
          "internalType": "uint256",
          "name": "_token_amount",
          "type": "uint256"
        },
        {
          "internalType": "uint256",
          "name": "i",
          "type": "uint256"
        }
      ],
      "name": "calc_withdraw_one_coin",
      "outputs": [
        {
          "internalType": "uint256",
          "name": "",
          "type": "uint256"
        }
      ],
      "stateMutability": "view",
      "type": "function"
    },
    {
      "inputs": [
        {
          "internalType": "uint256",
          "name": "",
          "type": "uint256"
        }
      ],
      "name": "coins",
      "outputs": [
        {
          "internalType": "address",
          "name": "",
          "type": "address"
        }
      ],
      "stateMutability": "view",
      "type": "function"
    },
    {
      "inputs": [
        {
          "internalType": "uint256",
          "name": "new_fee",
          "type": "uint256"
        },
        {
          "internalType": "uint256",
          "name": "new_admin_fee",
          "type": "uint256"
        }
      ],
      "name": "commit_new_fee",
      "outputs": [],
      "stateMutability": "nonpayable",
      "type": "function"
    },
    {
      "inputs": [],
      "name": "donate_admin_fees",
      "outputs": [],
      "stateMutability": "nonpayable",
      "type": "function"
    },
    {
      "inputs": [
        {
          "internalType": "uint256",
          "name": "i",
          "type": "uint256"
        },
        {
          "internalType": "uint256",
          "name": "j",
          "type": "uint256"
        },
        {
          "internalType": "uint256",
          "name": "dx",
          "type": "uint256"
        },
        {
          "internalType": "uint256",
          "name": "min_dy",
          "type": "uint256"
        }
      ],
      "name": "exchange",
      "outputs": [],
      "stateMutability": "payable",
      "type": "function"
    },
    {
      "inputs": [],
      "name": "fee",
      "outputs": [
        {
          "internalType": "uint256",
          "name": "",
          "type": "uint256"
        }
      ],
      "stateMutability": "view",
      "type": "function"
    },
    {
      "inputs": [],
      "name": "future_A",
      "outputs": [
        {
          "internalType": "uint256",
          "name": "",
          "type": "uint256"
        }
      ],
      "stateMutability": "view",
      "type": "function"
    },
    {
      "inputs": [],
      "name": "future_A_time",
      "outputs": [
        {
          "internalType": "uint256",
          "name": "",
          "type": "uint256"
        }
      ],
      "stateMutability": "view",
      "type": "function"
    },
    {
      "inputs": [],
      "name": "future_admin_fee",
      "outputs": [
        {
          "internalType": "uint256",
          "name": "",
          "type": "uint256"
        }
      ],
      "stateMutability": "view",
      "type": "function"
    },
    {
      "inputs": [],
      "name": "future_fee",
      "outputs": [
        {
          "internalType": "uint256",
          "name": "",
          "type": "uint256"
        }
      ],
      "stateMutability": "view",
      "type": "function"
    },
    {
      "inputs": [
        {
          "internalType": "uint256",
          "name": "i",
          "type": "uint256"
        },
        {
          "internalType": "uint256",
          "name": "j",
          "type": "uint256"
        },
        {
          "internalType": "uint256",
          "name": "dx",
          "type": "uint256"
        }
      ],
      "name": "get_dy",
      "outputs": [
        {
          "internalType": "uint256",
          "name": "",
          "type": "uint256"
        }
      ],
      "stateMutability": "view",
      "type": "function"
    },
    {
      "inputs": [
        {
          "internalType": "uint256",
          "name": "i",
          "type": "uint256"
        },
        {
          "internalType": "uint256",
          "name": "j",
          "type": "uint256"
        },
        {
          "internalType": "uint256",
          "name": "dx",
          "type": "uint256"
        }
      ],
      "name": "get_dy_underlying",
      "outputs": [
        {
          "internalType": "uint256",
          "name": "",
          "type": "uint256"
        }
      ],
      "stateMutability": "view",
      "type": "function"
    },
    {
      "inputs": [],
      "name": "get_virtual_price",
      "outputs": [
        {
          "internalType": "uint256",
          "name": "",
          "type": "uint256"
        }
      ],
      "stateMutability": "view",
      "type": "function"
    },
    {
      "inputs": [],
      "name": "initial_A",
      "outputs": [
        {
          "internalType": "uint256",
          "name": "",
          "type": "uint256"
        }
      ],
      "stateMutability": "view",
      "type": "function"
    },
    {
      "inputs": [],
      "name": "initial_A_time",
      "outputs": [
        {
          "internalType": "uint256",
          "name": "",
          "type": "uint256"
        }
      ],
      "stateMutability": "view",
      "type": "function"
    },
    {
      "inputs": [
        {
          "internalType": "address[3]",
          "name": "_coins",
          "type": "address[3]"
        },
        {
          "internalType": "uint256",
          "name": "_A",
          "type": "uint256"
        },
        {
          "internalType": "uint256",
          "name": "_fee",
          "type": "uint256"
        },
        {
          "internalType": "uint256",
          "name": "_admin_fee",
          "type": "uint256"
        },
        {
          "internalType": "address",
          "name": "_owner",
          "type": "address"
        },
        {
          "internalType": "address",
          "name": "_LP",
          "type": "address"
        }
      ],
      "name": "initialize",
      "outputs": [],
      "stateMutability": "nonpayable",
      "type": "function"
    },
    {
      "inputs": [],
      "name": "isInitialized",
      "outputs": [
        {
          "internalType": "bool",
          "name": "",
          "type": "bool"
        }
      ],
      "stateMutability": "view",
      "type": "function"
    },
    {
      "inputs": [],
      "name": "is_killed",
      "outputs": [
        {
          "internalType": "bool",
          "name": "",
          "type": "bool"
        }
      ],
      "stateMutability": "view",
      "type": "function"
    },
    {
      "inputs": [],
      "name": "kill_deadline",
      "outputs": [
        {
          "internalType": "uint256",
          "name": "",
          "type": "uint256"
        }
      ],
      "stateMutability": "view",
      "type": "function"
    },
    {
      "inputs": [],
      "name": "kill_me",
      "outputs": [],
      "stateMutability": "nonpayable",
      "type": "function"
    },
    {
      "inputs": [],
      "name": "owner",
      "outputs": [
        {
          "internalType": "address",
          "name": "",
          "type": "address"
        }
      ],
      "stateMutability": "view",
      "type": "function"
    },
    {
      "inputs": [
        {
          "internalType": "uint256",
          "name": "_future_A",
          "type": "uint256"
        },
        {
          "internalType": "uint256",
          "name": "_future_time",
          "type": "uint256"
        }
      ],
      "name": "ramp_A",
      "outputs": [],
      "stateMutability": "nonpayable",
      "type": "function"
    },
    {
      "inputs": [
        {
          "internalType": "uint256",
          "name": "_amount",
          "type": "uint256"
        },
        {
          "internalType": "uint256[3]",
          "name": "min_amounts",
          "type": "uint256[3]"
        }
      ],
      "name": "remove_liquidity",
      "outputs": [],
      "stateMutability": "nonpayable",
      "type": "function"
    },
    {
      "inputs": [
        {
          "internalType": "uint256[3]",
          "name": "amounts",
          "type": "uint256[3]"
        },
        {
          "internalType": "uint256",
          "name": "max_burn_amount",
          "type": "uint256"
        }
      ],
      "name": "remove_liquidity_imbalance",
      "outputs": [],
      "stateMutability": "nonpayable",
      "type": "function"
    },
    {
      "inputs": [
        {
          "internalType": "uint256",
          "name": "_token_amount",
          "type": "uint256"
        },
        {
          "internalType": "uint256",
          "name": "i",
          "type": "uint256"
        },
        {
          "internalType": "uint256",
          "name": "min_amount",
          "type": "uint256"
        }
      ],
      "name": "remove_liquidity_one_coin",
      "outputs": [],
      "stateMutability": "nonpayable",
      "type": "function"
    },
    {
      "inputs": [],
      "name": "renounceOwnership",
      "outputs": [],
      "stateMutability": "nonpayable",
      "type": "function"
    },
    {
      "inputs": [],
      "name": "revert_new_parameters",
      "outputs": [],
      "stateMutability": "nonpayable",
      "type": "function"
    },
    {
      "inputs": [],
      "name": "rose_gas",
      "outputs": [
        {
          "internalType": "uint256",
          "name": "",
          "type": "uint256"
        }
      ],
      "stateMutability": "view",
      "type": "function"
    },
    {
      "inputs": [
        {
          "internalType": "uint256",
          "name": "_rose_gas",
          "type": "uint256"
        }
      ],
      "name": "set_rose_gas",
      "outputs": [],
      "stateMutability": "nonpayable",
      "type": "function"
    },
    {
      "inputs": [],
      "name": "stop_rampget_A",
      "outputs": [],
      "stateMutability": "nonpayable",
      "type": "function"
    },
    {
      "inputs": [],
      "name": "token",
      "outputs": [
        {
          "internalType": "contract IStableSwapLP",
          "name": "",
          "type": "address"
        }
      ],
      "stateMutability": "view",
      "type": "function"
    },
    {
      "inputs": [
        {
          "internalType": "address",
          "name": "newOwner",
          "type": "address"
        }
      ],
      "name": "transferOwnership",
      "outputs": [],
      "stateMutability": "nonpayable",
      "type": "function"
    },
    {
      "inputs": [],
      "name": "unkill_me",
      "outputs": [],
      "stateMutability": "nonpayable",
      "type": "function"
    },
    {
      "inputs": [],
      "name": "withdraw_admin_fees",
      "outputs": [],
      "stateMutability": "nonpayable",
      "type": "function"
    }
  ],
  "transactionHash": "0x566023119d132e25433ed4f198bc22e1c4677041deb4ef2d97613dd4dc201119",
  "args": [],
  "numDeployments": 1,
  "solcInputHash": "1829c01f17cf3f9febab972c66c3c9e3",
  "bytecode": "0x60a080604052346100795760008054336001600160a01b0319821681178355916001600160a01b03909116907f8be0079c531659141344cd1fd0a4f28419497f9722a3daafe3b4186f6b6457e09080a360018055610fbd60105533608052613af7908161007f8239608051818181610b55015261199d0152f35b600080fdfe608080604052600436101561001357600080fd5b600090813560e01c90816306e9481c1461295c57508063140522881461293e578063193d983f146129215780632081066c14612903578063226840fb146128bf578063270271a81461280e57806329357750146127f25780632a426896146127d45780633046f9721461278a57806330c540851461265d5780633883e1191461251a578063392e53cd146124f457806339698415146124d65780633c157e64146122a2578063405e28f8146122845780634515cef314611e625780634903b0d114611e355780634eac48351461191e5780634f12fe97146118435780634fb08c5e14611820578063524c3901146117245780635409491a14611706578063556d6e9f1461162b57806358680d0b1461160d5780635b41b908146113345780635b5a1467146111ce57806362203d74146111a15780636d4366b714611185578063715018a61461111e5780637dafa364146110f157806385f11d1e146110215780638da5cb5b14610ffb5780639c868ac014610fd85780639fdaea0c14610b79578063a6b0a71814610b35578063a97e1c9214610b18578063aaf5eb6814610af5578063ab5ac06114610ad9578063b2b8a2c514610abb578063b4b577ad14610a9d578063bb7b8b80146109d1578063bc063e1a146109b1578063c66106571461097a578063ca8ca15414610917578063d73792a914610309578063ddca3f43146108f9578063e2e7d264146108da578063e36988531461083e578063e382446214610820578063e5d9e90314610802578063ecb586a51461056b578063edfb78011461054d578063f1dc3cc9146103bd578063f2fde38b1461030e578063f3de036214610309578063f446c1d0146102e6578063fc0c546a146102bf5763fee3f7f91461029f57600080fd5b346102bc57806003193601126102bc576020600f54604051908152f35b80fd5b50346102bc57806003193601126102bc5760206001600160a01b0360115416604051908152f35b50346102bc57806003193601126102bc576020610301612e84565b604051908152f35b612a53565b50346102bc5760203660031901126102bc576004356001600160a01b0381168082036103b85761033c612d70565b1561034d5761034a906134cd565b80f35b60405162461bcd60e51b815260206004820152602660248201527f4f776e61626c653a206e6577206f776e657220697320746865207a65726f206160448201527f64647265737300000000000000000000000000000000000000000000000000006064820152608490fd5b600080fd5b50346102bc576103cc36612a39565b90916103d6612efb565b6103e560ff601a541615612b7f565b6103ef8382612f51565b90928310610508576402540be40061040d61041492600f5490612b00565b0483612af3565b60038410156104f45761042c84600b01918254612a73565b90556001600160a01b038060115416803b156104f05760405163079cc67960e41b81523360048201526024810184905290869081908390604490829084905af19182156104e35785926104c8575b505061048b91856008015416612dc8565b604051928352602083015260408201527f5ad056f2e28a8cec232015406b843668c1e36cda598127ec3b8c59b8c72773a060603392a26001805580f35b6104d39192506129ab565b6104df5782853861047a565b8480fd5b50604051903d90823e3d90fd5b8580fd5b634e487b7160e01b85526032600452602485fd5b60405162461bcd60e51b815260206004820152601860248201527f4e6f7420656e6f75676820636f696e732072656d6f76656400000000000000006044820152606490fd5b50346102bc57806003193601126102bc576020604051624f1a008152f35b50346102bc5760803660031901126102bc5760043536604312156103b85760405161059581612979565b608491813684116103b8576024906024905b8582106107f25750506105b8612efb565b6001600160a01b03806011541693604051926318160ddd60e01b845260208460048183995afa9384156107e75788946107b3575b5090879291604051976105fe89612979565b6060368a376040519761061089612979565b6060368a37855b600381106106de57505050505060115416803b156106da5760405163079cc67960e41b8152336004820152602481018590529082908290604490829084905af180156106cf576106bb575b50506106899161067191612a73565b9161067f6040518095612c63565b6060840190612c63565b60c08201527fa49d4cf02656aebf8c771f5a8585638a2a15ee6c97cf7205d4208ed7c1df252d60e03392a26001805580f35b6106c4906129ab565b6104df578438610662565b6040513d84823e3d90fd5b5080fd5b8091929394959650600b018054906106ff896106fa8c85612b00565b612b13565b9161070a8489612acc565b51831061074a579180610730858f61073d956107298560019a99612a73565b9055612acc565b5288836008015416612dc8565b01908a9594939291610617565b60405162461bcd60e51b8152600481018690526030818901527f5769746864726177616c20726573756c74656420696e20666577657220636f6960448201527f6e73207468616e2065787065637465640000000000000000000000000000000060648201528690fd5b9093506020813d6020116107df575b816107cf602093836129bf565b810103126103b8575192386105ec565b3d91506107c2565b6040513d8a823e3d90fd5b81358152602091820191016105a7565b50346102bc57806003193601126102bc5760206040516203f4808152f35b50346102bc57806003193601126102bc576020601854604051908152f35b50346102bc57806003193601126102bc57610857612d70565b60195442101561089557600160ff19601a541617601a557fbe26733c2bf6ff3ea5ba8cfe744422bd49052ff9ed5685c9e81e6f9321dbaddd8180a180f35b60405162461bcd60e51b815260206004820152601160248201527f457863656564656420646561646c696e650000000000000000000000000000006044820152606490fd5b50346102bc5760203660031901126102bc576020610301600435612cad565b50346102bc57806003193601126102bc576020600e54604051908152f35b50346102bc57806003193601126102bc57610930612d70565b7f46e22fb3709ad289f62ce63d469248536dbc78d82b84a3d7e74ad606dc201938604061095b612e84565b806012558060135542601455426015558151908152426020820152a180f35b50346102bc5760203660031901126102bc576004359060038210156102bc5760206001600160a01b03836008015416604051908152f35b50346102bc57806003193601126102bc57602060405164012a05f2008152f35b50346102bc57806003193601126102bc576004906109fe6109f061312f565b6109f8612e84565b90613522565b9060206001600160a01b0360115416604051948580926318160ddd60e01b82525afa9283156104e3578193610a69575b50670de0b6b3a764000091828102928184041490151715610a555760206103018484612b13565b634e487b7160e01b81526011600452602490fd5b9092506020813d602011610a95575b81610a85602093836129bf565b810103126103b857519138610a2e565b3d9150610a78565b50346102bc57806003193601126102bc576020601354604051908152f35b50346102bc57806003193601126102bc576020601054604051908152f35b50346102bc57806003193601126102bc576020604051600a8152f35b50346102bc57806003193601126102bc576020604051670de0b6b3a76400008152f35b50346102bc57806003193601126102bc5760206040516108fc8152f35b50346102bc57806003193601126102bc5760206040516001600160a01b037f0000000000000000000000000000000000000000000000000000000000000000168152f35b50346102bc5760803660031901126102bc576004610b96366129e1565b91610b9f612efb565b610bae60ff601a541615612b7f565b60206001600160a01b0360115416604051938480926318160ddd60e01b82525afa9182156104e3578192610fa4575b508115610f5f57600e54600381029080820460031490151715610f4b57600f5490610c06612e84565b610c0e612a96565b90604051610c1b81612979565b825181526020830151602082015260408301516040820152610c4582610c40856133ea565b613522565b92865b60038110610f1f5750908291610c65899a989994610c40846133ea565b9660405196610c7388612979565b60603689378a5b888c8b60038410610e34575050505050505091610caa610ca46106fa93610c40610caf97966133ea565b84612a73565b612b00565b948515610de3576001808701809711610dcf57610cd0606435881115612c17565b6001600160a01b0360115416803b15610dcb5760405163079cc67960e41b8152336004820152602481018990529087908290604490829084905af18015610dc057908791610dac575b505b60038110610d6d575050610d557f173599dbf9c6ca6f7c3b590df07ae98a45d74ff54065505141e7de6c46a624c2949596610d6392612a73565b604051938493339785612c8b565b0390a26001805580f35b80610d79839288612acc565b51610d85575b01610d1b565b610da76001600160a01b03826008015416610da0838a612acc565b5190612dc8565b610d7f565b610db5906129ab565b6104f0578538610d19565b6040513d89823e3d90fd5b8680fd5b634e487b7160e01b86526011600452602486fd5b60405162461bcd60e51b815260206004820152602360248201527f746f6b656e5f616d6f756e74206d75737420626520677265617465722074686160448201526206e20360ec1b6064820152608490fd5b8798995096610ec986610ec386610ebc8f610ed09897610e6b8e9f9260019d9e9f8694610e64866106fa93612acc565b5190612b00565b9050610e778289612acc565b51811115610f0b57610e9490610e8d838a612acc565b5190612a73565b965b8c610eab6402540be400998a9260031c612b00565b04610eb6838b612acc565b52612acc565b5195612acc565b51612b00565b0490612a73565b81600b0155610ef3610ee2828b612acc565b51610eed8389612acc565b51612a73565b610efd8288612acc565b5201908b9594939291610c7a565b610f1990610eed838a612acc565b96610e96565b80610f3a610f2f6001938d612acc565b51610eed8387612acc565b610f448286612acc565b5201610c48565b634e487b7160e01b82526011600452602482fd5b60405162461bcd60e51b815260206004820152601660248201527f6465763a207a65726f20746f74616c20737570706c79000000000000000000006044820152606490fd5b9091506020813d602011610fd0575b81610fc0602093836129bf565b810103126103b857519038610bdd565b3d9150610fb3565b50346102bc57806003193601126102bc57602060ff601a54166040519015158152f35b50346102bc57806003193601126102bc576001600160a01b036020915416604051908152f35b50346102bc5761103036612a39565b90918261103b61312f565b91604051809485916002906000905b600382106110d45750505084610eed938561108f856110896110959661107461109b9c9b99612979565b610e6486611082818a612acc565b5194612acc565b90612af3565b916131bb565b92612acc565b600019810193908411610a555760206103016110c2866110bb8787612acc565b5190612b13565b6402540be400610ec982600e54612b00565b82548152899650889450600192830192919091019060200161104a565b50346102bc5760203660031901126102bc5760043560038110156106da5760209060020154604051908152f35b50346102bc57806003193601126102bc57611137612d70565b60006001600160a01b03815473ffffffffffffffffffffffffffffffffffffffff1981168355167f8be0079c531659141344cd1fd0a4f28419497f9722a3daafe3b4186f6b6457e08280a380f35b50346102bc57806003193601126102bc57602060405160128152f35b50346102bc5760203660031901126102bc5760043560038110156106da5760209060050154604051908152f35b50346102bc576111dd36612a23565b906111e6612d70565b6016546112f05764012a05f20081116112ab576402540be4008211611266576203f480420191824211611252577f351fc5da2fbf480f2225debf3664a4bc90fa9923743aad58b4603f648e931fe09160409184601655816017558060185582519182526020820152a280f35b634e487b7160e01b84526011600452602484fd5b60405162461bcd60e51b815260206004820152601e60248201527f6465763a2061646d696e206665652065786365656473206d6178696d756d00006044820152606490fd5b60405162461bcd60e51b815260206004820152601860248201527f6465763a206665652065786365656473206d6178696d756d00000000000000006044820152606490fd5b606460405162461bcd60e51b815260206004820152602060248201527f61646d696e5f616374696f6e735f646561646c696e65206d75737420626520306044820152fd5b5060803660031901126102bc576024906004358235604435611354612efb565b61136360ff601a541615612b7f565b60ff60115460a01c16156115fe575b61137a612a96565b94611384866133ea565b61138e8582612acc565b5160038610156115eb5781610eed866110956113c396956113ca6113d1968c670de0b6b3a76400009a8b91600501548d612b00565b0490612af3565b838c6131bb565b6000198101929083116115d8576402540be400916113fd836113f5600e5487612b00565b048095612a73565b92828402938085048414901517156115c55760038710156115b25761142787600501548095612b13565b94606435861061154857600f5461143d91612b00565b048281029281840414901517156115365750856114ab84610eed887fb2e76ae99761dc136e598d4a629bb347eccb9532a5f8bbd72e18467c3c34cc989a9b9c6114a18a61149b611494610d639c9b6114b09b612b13565b9884612acc565b51612af3565b8d600b0155612acc565b612a73565b84600b01556114ff816001600160a01b03808960080154168673eeeeeeeeeeeeeeeeeeeeeeeeeeeeeeeeeeeeeeee82146000146115245750506114f4348714612bcb565b866008015416612dc8565b6040519384933397859094939260609260808301968352602083015260408201520152565b6115319130903390613477565b6114f4565b634e487b7160e01b8852601160045287fd5b60405162461bcd60e51b815260206004820152602e818501527f45786368616e676520726573756c74656420696e20666577657220636f696e7360448201527f207468616e2065787065637465640000000000000000000000000000000000006064820152608490fd5b50634e487b7160e01b8852603260045287fd5b50634e487b7160e01b8852601160045287fd5b50634e487b7160e01b8652601160045285fd5b634e487b7160e01b875260326004528287fd5b6116083415612bcb565b611372565b50346102bc57806003193601126102bc576020601754604051908152f35b50346102bc5761163a36612a39565b928160409392935192836005906000905b600382106116ec5750505061165f84612979565b61166761312f565b9081836116748383612acc565b51670de0b6b3a7640000809a61168a868b612acc565b5161169491612b00565b0461169e91612af3565b906116a8936131bb565b916116b291612acc565b51906116bd91612a73565b6000198101908111610f4b57848102948186041490151715610a555760206103016110c2866110bb8787612acc565b82548152879450600192830192919091019060200161164b565b50346102bc57806003193601126102bc576020601254604051908152f35b50346102bc57806003193601126102bc5761173d612d70565b805b6003811061176f57507f2c7203581ca666b8c5094c11c03f0b19b3750234a9d281bcbc88a260bcb006de8180a180f35b60088101546001600160a01b03169073eeeeeeeeeeeeeeeeeeeeeeeeeeeeeeeeeeeeeeee82036117aa57600191504781600b01555b0161173f565b60405180926370a0823160e01b825230600483015281602460209384935afa9081156118155784916117e6575b506001925081600b01556117a4565b905082813d831161180e575b6117fc81836129bf565b810103126103b85760019151386117d7565b503d6117f2565b6040513d86823e3d90fd5b50346102bc57602061183a61183436612a23565b90612f51565b50604051908152f35b50346102bc57806003193601126102bc5761185c612d70565b60165461186b81421015612b33565b156118b357806016557fbe12859b636aed607d5230b2cc2711f68d70e51060e6cca1f575ef5d2fcc95d1604060175480600e5560185480600f5582519182526020820152a180f35b60405162461bcd60e51b815260206004820152602660248201527f61646d696e5f616374696f6e735f646561646c696e652073686f756c64206e6f60448201527f74206265203000000000000000000000000000000000000000000000000000006064820152608490fd5b50346102bc576101003660031901126102bc5736602312156102bc5760405161194681612979565b8036606411611e31576004905b60648210611e115750506001600160a01b0360c4351660c435036103b85760e435906001600160a01b03821682036103b857601a5460ff8160081c16611dcc576001600160a01b037f0000000000000000000000000000000000000000000000000000000000000000163303611d8757620f424060643511611d425764012a05f20060843511611cfd576402540be40060a43511611cb85761ff00191661010017601a55825b60038110611ab55750825b60038110611a97575050606435601255606435601355608435600e5560a435600f55624f1a004201804211611a8357906001600160a01b03916019551673ffffffffffffffffffffffffffffffffffffffff196011541617601155611a67612d70565b6001600160a01b0360c435161561034d5761034a60c4356134cd565b634e487b7160e01b83526011600452602483fd5b60019060206001600160a01b03845116930192816008015501611a04565b6001600160a01b03611ac78284612acc565b511615611c735773eeeeeeeeeeeeeeeeeeeeeeeeeeeeeeeeeeeeeeee6001600160a01b03611af58385612acc565b511603611be95760126011740100000000000000000000000000000000000000007fffffffffffffffffffffff00ffffffffffffffffffffffffffffffffffffffff8254161790555b601290818111611b98578103908111611b8457604d8111611b8457600a0a808260020155670de0b6b3a76400009080820291820403611b845760058201556001016119f9565b634e487b7160e01b85526011600452602485fd5b60405162461bcd60e51b8152602060048201526024808201527f546865206d6178696d756d20646563696d616c2063616e6e6f742065786365656044820152630c84062760e31b6064820152608490fd5b6001600160a01b03611bfb8284612acc565b5116604051809163313ce56760e01b825281600460209384935afa908115611c68578691611c2f575b5060ff915016611b3e565b905081813d8311611c61575b611c4581836129bf565b810103126104df575160ff811681036104df5760ff9038611c24565b503d611c3b565b6040513d88823e3d90fd5b60405162461bcd60e51b815260206004820152600c60248201527f5a45524f204164647265737300000000000000000000000000000000000000006044820152606490fd5b60405162461bcd60e51b815260206004820152601a60248201527f5f61646d696e5f6665652065786365656473206d6178696d756d0000000000006044820152606490fd5b60405162461bcd60e51b815260206004820152601460248201527f5f6665652065786365656473206d6178696d756d0000000000000000000000006044820152606490fd5b60405162461bcd60e51b815260206004820152601260248201527f5f412065786365656473206d6178696d756d00000000000000000000000000006044820152606490fd5b60405162461bcd60e51b815260206004820152601760248201527f4f7065726174696f6e733a204e6f7420666163746f72790000000000000000006044820152606490fd5b60405162461bcd60e51b815260206004820152601f60248201527f4f7065726174696f6e733a20416c726561647920696e697469616c697a6564006044820152606490fd5b81356001600160a01b03811681036103b857815260209182019101611953565b8280fd5b50346102bc5760203660031901126102bc5760043560038110156106da57602090600b0154604051908152f35b5060803660031901126102bc57611e78366129e1565b90611e81612efb565b611e9060ff601a541615612b7f565b6011549160ff8360a01c1615612275575b604051611ead81612979565b6060368237600e549060038202918083046003149015171561125257600f546001600160a01b03956020611edf612e84565b916004604051809a81936318160ddd60e01b8352165afa968715611c68578697612241575b508591611f0f612a96565b8861222c575b60405191611f2283612979565b815183526020820151602084015260408201516040840152885b600381106121935750611f5284610c40856133ea565b968588111561214e57878b156121225750895b878b888b600385106120d557505050505050505090610c40611f86926133ea565b905b866120ba575050815b611f9f606435821015612c17565b845b6003811061205e57506001600160a01b0360115416803b156104f0576040516340c10f1960e01b8152336004820152602481018390529086908290604490829084905af18015611c6857612021575b50610d55610d63917f423f6495a08fc652425cf4ed0d1f9e37e571d9b9529b1c1c23cce780b2e7df0d959697612af3565b610d63917f423f6495a08fc652425cf4ed0d1f9e37e571d9b9529b1c1c23cce780b2e7df0d9596612054610d55936129ab565b9695509150611ff0565b8061206b60019287612acc565b5160088201546001600160a01b03169073eeeeeeeeeeeeeeeeeeeeeeeeeeeeeeeeeeeeeeee82036120a8576120a291503414612bcb565b01611fa1565b6120b59130903390613477565b6120a2565b6106fa6120ca826120d094612a73565b88612b00565b611f91565b610ec987610ec387610ebc816120ff988f978f996106fa610e6b9260019f9e9c86610e6491612acc565b81600b0155612111610ee2828b612acc565b61211b8288612acc565b5201611f65565b959450505050865b60038110612139575050611f88565b6001906020835193019281600b01550161212a565b60405162461bcd60e51b815260206004820152601a60248201527f4431206d7573742062652067726561746572207468616e2044300000000000006044820152606490fd5b8a156121cd575b806121bc6121aa60019386612acc565b516121b5838d612acc565b5190612af3565b6121c68287612acc565b5201611f3c565b6121d7818a612acc565b5161219a5760405162461bcd60e51b815260206004820152602260248201527f496e697469616c206465706f73697420726571756972657320616c6c20636f696044820152616e7360f01b6064820152608490fd5b925061223b82610c40856133ea565b92611f15565b9096506020813d60201161226d575b8161225d602093836129bf565b810103126104f057519538611f04565b3d9150612250565b61227f3415612bcb565b611ea1565b50346102bc57806003193601126102bc576020601654604051908152f35b50346102bc576122b136612a23565b906122ba612d70565b6014546201518090818101809111611b84574210612491574201804211611252576122e790831015612b33565b6122ef612e84565b908015801580612485575b1561241a57828210801591826123e9575b82156123be575b505015612379576123737fa2b71ec6df949300b59aab36b55e189697b750119dd349fcfa8c0f779e83c25493836012558260135542601455806015556040519384934291859094939260609260808301968352602083015260408201520152565b0390a180f35b60405162461bcd60e51b815260206004820152601b60248201527f496c6c6567616c20706172616d65746572205f6675747572655f4100000000006044820152606490fd5b909150816123cf575b503880612312565b600a8381029250838304141715611b8457821115386123c7565b9150600a8402848104600a1485151715612406578311159161230b565b634e487b7160e01b87526011600452602487fd5b60405162461bcd60e51b815260206004820152602560248201527f5f6675747572655f41206d757374206265206265747765656e203020616e642060448201527f4d41585f410000000000000000000000000000000000000000000000000000006064820152608490fd5b50620f424082106122fa565b60405162461bcd60e51b815260206004820152600f60248201527f646576203a20746f6f206561726c7900000000000000000000000000000000006044820152606490fd5b50346102bc57806003193601126102bc576020604051620f42408152f35b50346102bc57806003193601126102bc57602060ff601a5460081c166040519015158152f35b50346102bc5760803660031901126102bc57612535366129e1565b6064359182151583036102bc5761254a612a96565b612552612e84565b9061256082610c40836133ea565b93835b6003811061260d57505060049491610c4061257d926133ea565b9160206001600160a01b0360115416604051968780926318160ddd60e01b82525afa9485156104e35781956125d7575b50938392610301946106fa93602097506000146125cd57610caa91612a73565b90610caa91612a73565b9094506020813d602011612605575b816125f3602093836129bf565b810103126104df5751936103016125ad565b3d91506125e6565b60019087156126405761262e6126238285612acc565b5161149b8387612acc565b6126388286612acc565b525b01612563565b61264d610f2f8285612acc565b6126578286612acc565b5261263a565b50346102bc57806003193601126102bc57612676612d70565b805b600381101561278657816001600160a01b0382600801541673eeeeeeeeeeeeeeeeeeeeeeeeeeeeeeeeeeeeeeee81146000146127025747826104f457600b8401546126c291612a73565b915b826126d5575b505050600101612678565b6126ee57600192916126e691612dc8565b9038806126ca565b634e487b7160e01b84526032600452602484fd5b6040516370a0823160e01b8152306004820152602092508281602481855afa92831561277b578593612747575b5050612741849284600b015490612a73565b916126c4565b9080929350813d8311612774575b61275f81836129bf565b81010312612770575190388061272f565b8380fd5b503d612755565b6040513d87823e3d90fd5b5080f35b50346102bc57806003193601126102bc576127a3612d70565b60ff19601a5416601a557f061284ffa2814ace135f62907c78a7cff0f070efe7e6a0a42740ea1da2c8bdc88180a180f35b50346102bc57806003193601126102bc576020601954604051908152f35b50346102bc57806003193601126102bc57602060405160038152f35b50346102bc5760203660031901126102bc5760043561282b612d70565b6108fc811015806128b3575b1561286e576020817f535533646ff25874ff322c27a44e684b16c906ef818ae694d70794ec40860e2e92601055604051908152a180f35b60405162461bcd60e51b815260206004820152600b60248201527f496c6c6567616c206761730000000000000000000000000000000000000000006044820152606490fd5b506159d8811115612837565b50346102bc57806003193601126102bc576128d8612d70565b806016557f1b4883af197c705114490f8d84f9ce30bef6a6199f7b7b649e845577cf0769a18180a180f35b50346102bc57806003193601126102bc576020601454604051908152f35b50346102bc57806003193601126102bc5760206040516159d88152f35b50346102bc57806003193601126102bc576020601554604051908152f35b9050346106da57816003193601126106da57806201518060209252f35b6060810190811067ffffffffffffffff82111761299557604052565b634e487b7160e01b600052604160045260246000fd5b67ffffffffffffffff811161299557604052565b90601f8019910116810190811067ffffffffffffffff82111761299557604052565b80602312156103b857604051906129f782612979565b816064916064116103b8576004905b828210612a135750505090565b8135815260209182019101612a06565b60409060031901126103b8576004359060243590565b60609060031901126103b857600435906024359060443590565b346103b85760003660031901126103b85760206040516402540be4008152f35b91908203918211612a8057565b634e487b7160e01b600052601160045260246000fd5b60405190600b6000835b60038210612ab657505050612ab482612979565b565b6001602081928554815201930191019091612aa0565b906003811015612add5760051b0190565b634e487b7160e01b600052603260045260246000fd5b91908201809211612a8057565b81810292918115918404141715612a8057565b8115612b1d570490565b634e487b7160e01b600052601260045260246000fd5b15612b3a57565b60405162461bcd60e51b815260206004820152601660248201527f6465763a20696e73756666696369656e742074696d65000000000000000000006044820152606490fd5b15612b8657565b60405162461bcd60e51b815260206004820152600660248201527f4b696c6c656400000000000000000000000000000000000000000000000000006044820152606490fd5b15612bd257565b60405162461bcd60e51b815260206004820152601560248201527f496e636f6e73697374656e74207175616e7469747900000000000000000000006044820152606490fd5b15612c1e57565b60405162461bcd60e51b815260206004820152601460248201527f536c697070616765207363726577656420796f750000000000000000000000006044820152606490fd5b6000915b60038310612c7457505050565b600190825181526020809101920192019190612c67565b90949392612ca460e09361067f84610100810199612c63565b60c08201520152565b6003811015612add5760088101546001600160a01b03169073eeeeeeeeeeeeeeeeeeeeeeeeeeeeeeeeeeeeeeee8203612cf257600b0154612cef915047612a73565b90565b6020602492604051938480926370a0823160e01b82523060048301525afa908115612d6457600091612d2e575b612cef9250600b015490612a73565b90506020823d602011612d5c575b81612d49602093836129bf565b810103126103b857612cef915190612d1f565b3d9150612d3c565b6040513d6000823e3d90fd5b6001600160a01b03600054163303612d8457565b606460405162461bcd60e51b815260206004820152602060248201527f4f776e61626c653a2063616c6c6572206973206e6f7420746865206f776e65726044820152fd5b6001600160a01b031673eeeeeeeeeeeeeeeeeeeeeeeeeeeeeeeeeeeeeeee8103612e4d575060008080809333601054f1612e006136fe565b5015612e0857565b60405162461bcd60e51b815260206004820152601460248201527f524f5345207472616e73666572206661696c65640000000000000000000000006044820152606490fd5b60405163a9059cbb60e01b6020820152336024820152604480820193909352918252612ab49190612e7f6064836129bf565b6138fa565b601554601354814210600014612ef657601254601454909182811115612ed85792612ed261108992612ecc612ebc86612cef98612a73565b612ec68342612a73565b90612b00565b92612a73565b90612b13565b92612ed2612ef092612ecc612ebc612cef9787612a73565b90612a73565b905090565b600260015414612f0c576002600155565b60405162461bcd60e51b815260206004820152601f60248201527f5265656e7472616e637947756172643a207265656e7472616e742063616c6c006044820152606490fd5b9190612f5b612e84565b90600e5491600392600381029080820460031490151715612a805760031c60405193846002906000905b83821061311957505050600490612f9b86612979565b60206001600160a01b0360115416604051938480926318160ddd60e01b82525afa918215612d64576000926130e5575b50612ff5612fef612fda61312f565b936106fa612fe88887613522565b809c612b00565b89612a73565b926130028484888861373e565b9861301e6130148b610eed8a88612acc565b6110bb898b612acc565b9960005b8885821061306f579250505061304c9594925083915061304581612ef095612acc565b519461373e565b6000198101908111612a80576110bb61306892612cef94612acc565b8093612a73565b906130ad6402540be4006130a286868c868d60019982146000146130be576114ab92610ec36120ca96936106fa93612acc565b04610eed838a612acc565b6130b78289612acc565b5201613022565b9250926106fa612ef092610ec3866130d96130e09888612acc565b5196612acc565b6120ca565b9091506020813d602011613111575b81613101602093836129bf565b810103126103b857519038612fcb565b3d91506130f4565b6001602081928554815201930191019091612f85565b606060405161313d81612979565b3690376040519060056000835b600382106131a55750505061315e82612979565b8160005b6003811061316e575050565b80670de0b6b3a764000061319361318760019486612acc565b5183600b015490612b00565b0461319e8285612acc565b5201613162565b600160208192855481520193019101909161314a565b92909182841415806133e0575b806133d6575b15613391576131db612e84565b916131e68382613522565b80956000936003938487029787890486148815171561240657918994939187935b87851061331557505050505060099161321f91612b00565b9302908482041484151715612a805761323e6110899161324594612b13565b9385612b13565b918060005b60ff81106132975760405162461bcd60e51b815260206004820152601160248201527f646f6573206e6f7420636f6e76657267650000000000000000000000000000006044820152606490fd5b816132ab856132a68380612b00565b612af3565b906001916001600160ff1b0382168203612a8057612ed2866114ab8a6132d295871b612af3565b9283818111156132fe57906132e691612a73565b11156132f6576001905b0161324a565b509250505090565b61330791612a73565b11156132f6576001906132f0565b919395509193968486146000146133675761333b8b613335868094612af3565b99612b00565b87820291808304891490151715612a805760019161335891612b13565b955b019290918a959492613207565b8582146133875761333b8b61333561337f8987612acc565b518094612af3565b969460019061335a565b60405162461bcd60e51b815260206004820152601160248201527f496c6c6567616c20706172616d657465720000000000000000000000000000006044820152606490fd5b50600383106131ce565b50600384106131c8565b9060606040516133f981612979565b3690376040519160056000845b600382106134615750505061341a83612979565b8260005b6003811061342b57505050565b80670de0b6b3a764000061344f61344460019486612acc565b51610e648488612acc565b0461345a8285612acc565b520161341e565b6001602081928554815201930191019091613406565b9290604051926323b872dd60e01b60208501526001600160a01b03809216602485015216604483015260648201526064815260a081019181831067ffffffffffffffff84111761299557612ab4926040526138fa565b600054906001600160a01b03809116918273ffffffffffffffffffffffffffffffffffffffff19821617600055167f8be0079c531659141344cd1fd0a4f28419497f9722a3daafe3b4186f6b6457e0600080a3565b90600091825b600381106136e6575082156136de5782600380840293808504821490151715612a8057909360001984018481119290919060005b60ff81106135cf5760405162461bcd60e51b815260206004820152602660248201527f696e76617269616e742063616c63756c6174696f6e20646964206e6f7420636f60448201527f6e766572676500000000000000000000000000000000000000000000000000006064820152608490fd5b8260005b8381106136995750836135e68a8a612b00565b9084830291838304861484151715612a805781610caa8a9461360793612af3565b91612a80576136169087612b00565b907f3fffffffffffffffffffffffffffffffffffffffffffffffffffffffffffffff83168303612a8057612ed26136539260019460021b90612af3565b938481811115613682579061366791612a73565b1115613677576001905b0161355c565b505094505050505090565b61368b91612a73565b111561367757600190613671565b9690846136a8919a939a612b00565b6136b28883612acc565b519084820291808304861490151715612a80576001916136d191612b13565b97019891989690966135d3565b505050600090565b926136f76001916121b58685612acc565b9301613528565b3d15613739573d9067ffffffffffffffff8211612995576040519161372d601f8201601f1916602001846129bf565b82523d6000602084013e565b606090565b906003808210156138b5578460009282850295858704841486151715611b845787929185915b85831061385c5750505060099161377a91612b00565b9302908482041484151715612a805761323e6110899161379994612b13565b918060005b60ff81106137eb5760405162461bcd60e51b815260206004820152601160248201527f646f6573206e6f7420636f6e76657267650000000000000000000000000000006044820152606490fd5b816137fa856132a68380612b00565b906001916001600160ff1b0382168203612a8057612ed2866114ab8a61382195871b612af3565b928381811115613845579061383591612a73565b11156132f6576001905b0161379e565b61384e91612a73565b11156132f65760019061383f565b929591935091908284146138ab576138818961387b61337f8786612acc565b97612b00565b85820291808304871490151715612a805760019161389e91612b13565b935b019091889392613764565b94926001906138a0565b60405162461bcd60e51b815260206004820152601460248201527f6465763a20692061626f7665204e5f434f494e530000000000000000000000006044820152606490fd5b6001600160a01b031690604051604081019080821067ffffffffffffffff8311176129955761396d916040526020938482527f5361666545524332303a206c6f772d6c6576656c2063616c6c206661696c6564858301526000808587829751910182855af16139676136fe565b91613a16565b8051918215918483156139f2575b5050509050156139885750565b6084906040519062461bcd60e51b82526004820152602a60248201527f5361666545524332303a204552433230206f7065726174696f6e20646964206e60448201527f6f742073756363656564000000000000000000000000000000000000000000006064820152fd5b9193818094500103126106da578201519081151582036102bc57508038808461397b565b91929015613a785750815115613a2a575090565b3b15613a335790565b60405162461bcd60e51b815260206004820152601d60248201527f416464726573733a2063616c6c20746f206e6f6e2d636f6e74726163740000006044820152606490fd5b825190915015613a8b5750805190602001fd5b6040519062461bcd60e51b82528160208060048301528251908160248401526000935b828510613ad1575050604492506000838284010152601f80199101168101030190fd5b8481018201518686016044015293810193859350613aae56fea164736f6c6343000818000a",
  "devdoc": {
    "kind": "dev",
    "methods": {
      "add_liquidity(uint256[3],uint256)": {
        "params": {
          "amounts": ": Amount of each coin being deposited",
          "min_mint_amount": ": Minimum amount of LP tokens to mint from the deposit"
        }
      },
      "admin_balances(uint256)": {
        "params": {
          "i": ": Index of the coin to get admin balance for"
        }
      },
      "calc_token_amount(uint256[3],bool)": {
        "params": {
          "amounts": ": Amount of each coin being deposited",
          "deposit": ": Set True for deposits, False for withdrawals"
        }
      },
      "calc_withdraw_one_coin(uint256,uint256)": {
        "params": {
          "_token_amount": ": Amount of LP tokens to burn in the withdrawal",
          "i": ": Index value of the coin to withdraw"
        }
      },
      "commit_new_fee(uint256,uint256)": {
        "params": {
          "new_admin_fee": ": New admin fee (expressed as a percentage of the pool fee) Both the pool fee and the admin_fee are capped by the constants MAX_FEE and MAX_ADMIN_FEE, respectively. By default MAX_FEE is set at 50% and MAX_ADMIN_FEE at 100% (which is charged on the MAX_FEE amount).",
          "new_fee": ": New pool fee"
        }
      },
      "exchange(uint256,uint256,uint256,uint256)": {
        "params": {
          "dx": ": Amount of coin i to swap",
          "i": ": Index of coin to swap from",
          "j": ": Index of coin to swap to",
          "min_dy": ": \tMinimum amount of j to receive"
        }
      },
      "get_dy(uint256,uint256,uint256)": {
        "params": {
          "dx": ": Amount of coin i to swap",
          "i": ": Index of coin to swap from",
          "j": ": Index of coin to swap to"
        }
      },
      "get_dy_underlying(uint256,uint256,uint256)": {
        "params": {
          "dx": "Amount of coin i to swap",
          "i": "Index of coin to swap from",
          "j": "Index of coin to swap to"
        }
      },
      "initialize(address[3],uint256,uint256,uint256,address,address)": {
        "params": {
          "_A": ": Amplification coefficient multiplied by n * (n - 1)",
          "_LP": ": LP address",
          "_admin_fee": ": Admin fee",
          "_coins": ": Addresses of ERC20 conracts of coins (c-tokens) involved",
          "_fee": ": Fee to charge for exchanges",
          "_owner": ": Owner"
        }
      },
      "owner()": {
        "details": "Returns the address of the current owner."
      },
      "ramp_A(uint256,uint256)": {
        "params": {
          "_future_A": ": New future value of A",
          "_future_time": ": Timestamp at which new A should take effect"
        }
      },
      "remove_liquidity(uint256,uint256[3])": {
        "params": {
          "_amount": ": Quantity of LP tokens to burn in the withdrawal",
          "min_amounts": ": Minimum amounts of underlying coins to receive"
        }
      },
      "remove_liquidity_imbalance(uint256[3],uint256)": {
        "params": {
          "amounts": ": List of amounts of underlying coins to withdraw",
          "max_burn_amount": ": Maximum amount of LP token to burn in the withdrawal"
        }
      },
      "remove_liquidity_one_coin(uint256,uint256,uint256)": {
        "params": {
          "_token_amount": ": Amount of LP tokens to burn in the withdrawal",
          "i": ": Index value of the coin to withdraw",
          "min_amount": ": Minimum amount of coin to receive"
        }
      },
      "renounceOwnership()": {
        "details": "Leaves the contract without owner. It will not be possible to call `onlyOwner` functions. Can only be called by the current owner. NOTE: Renouncing ownership will leave the contract without an owner, thereby disabling any functionality that is only available to the owner."
      },
      "set_rose_gas(uint256)": {
        "params": {
          "_rose_gas": "The gas limit to be set. The gas limit should be within the acceptable range defined by MIN_ROSE_gas and MAX_ROSE_gas."
        }
      },
      "transferOwnership(address)": {
        "details": "Transfers ownership of the contract to a new account (`newOwner`). Can only be called by the current owner."
      }
    },
    "title": "StableSwapThreePool",
    "version": 1
  },
  "userdoc": {
    "kind": "user",
    "methods": {
      "A()": {
        "notice": "Getter for the amplification coefficient of the pool. The amplification coefficient A determines a pools tolerance for imbalance between the assets within it."
      },
      "add_liquidity(uint256[3],uint256)": {
        "notice": "Deposit coins into the pool"
      },
      "admin_balances(uint256)": {
        "notice": "Get the admin balance for a single coin in the pool."
      },
      "apply_new_fee()": {
        "notice": "Apply the previously committed new pool and admin fees for the pool."
      },
      "calc_token_amount(uint256[3],bool)": {
        "notice": "Calculate addition or reduction in token supply from a deposit or withdrawal Returns the expected amount of LP tokens received. This calculation accounts for slippage, but not fees."
      },
      "calc_withdraw_one_coin(uint256,uint256)": {
        "notice": "Calculate the amount received when withdrawing a single coin."
      },
      "commit_new_fee(uint256,uint256)": {
        "notice": "The method commits new fee params: these fees do not take immediate effect."
      },
      "constructor": {
        "notice": "constructor"
      },
      "donate_admin_fees()": {
        "notice": "Donate all admin fees to the pools liquidity providers."
      },
      "exchange(uint256,uint256,uint256,uint256)": {
        "notice": "Perform an exchange between two coins."
      },
      "get_dy(uint256,uint256,uint256)": {
        "notice": "Get the amount of coin j one would receive for swapping dx of coin i."
      },
      "get_dy_underlying(uint256,uint256,uint256)": {
        "notice": "Get the amount of coin j one would receive for swapping dx of coin i, in underlying units."
      },
      "get_virtual_price()": {
        "notice": "Current virtual price of the pool LP token relative to the underlying pool assets. Can get the absolute price by multiplying it with the price of the underlying assets. The method returns virtual_price as an integer with 1e18 precision."
      },
      "initialize(address[3],uint256,uint256,uint256,address,address)": {
        "notice": "initialize"
      },
      "kill_me()": {
        "notice": "Pause a pool by setting the is_killed boolean flag to True."
      },
      "ramp_A(uint256,uint256)": {
        "notice": "Ramp A up or down by setting a new A to take effect at a future point in time."
      },
      "remove_liquidity(uint256,uint256[3])": {
        "notice": "Withdraw coins from the pool"
      },
      "remove_liquidity_imbalance(uint256[3],uint256)": {
        "notice": "Withdraw coins from the pool in an imbalanced amount"
      },
      "remove_liquidity_one_coin(uint256,uint256,uint256)": {
        "notice": "Withdraw a single coin from the pool"
      },
      "revert_new_parameters()": {
        "notice": "Resets any previously committed new fees."
      },
      "set_rose_gas(uint256)": {
        "notice": "set the gas limit for transferring ROSE tokens."
      },
      "stop_rampget_A()": {
        "notice": "Stop ramping A up or down and sets A to current A."
      },
      "unkill_me()": {
        "notice": "Unpause a pool that was previously paused, re-enabling exchanges."
      },
      "withdraw_admin_fees()": {
        "notice": "Withdraws and transfers admin fees of the pool to the pool owner."
      }
    },
    "notice": "This contract facilitates liquidity addition, stable swapping, and liquidity removal in a stable swap system with three pools.It includes functions for adding liquidity, stable swapping, and removing liquidity, as well as parameter calculation for main operations.",
    "version": 1
  },
  "storageLayout": {
    "storage": [
      {
        "astId": 7,
        "contract": "contracts/stableSwap/plain-pools/StableSwapThreePool.sol:StableSwapThreePool",
        "label": "_owner",
        "offset": 0,
        "slot": "0",
        "type": "t_address"
      },
      {
        "astId": 123,
        "contract": "contracts/stableSwap/plain-pools/StableSwapThreePool.sol:StableSwapThreePool",
        "label": "_status",
        "offset": 0,
        "slot": "1",
        "type": "t_uint256"
      },
      {
        "astId": 1693,
        "contract": "contracts/stableSwap/plain-pools/StableSwapThreePool.sol:StableSwapThreePool",
        "label": "PRECISION_MUL",
        "offset": 0,
        "slot": "2",
        "type": "t_array(t_uint256)3_storage"
      },
      {
        "astId": 1697,
        "contract": "contracts/stableSwap/plain-pools/StableSwapThreePool.sol:StableSwapThreePool",
        "label": "RATES",
        "offset": 0,
        "slot": "5",
        "type": "t_array(t_uint256)3_storage"
      },
      {
        "astId": 1725,
        "contract": "contracts/stableSwap/plain-pools/StableSwapThreePool.sol:StableSwapThreePool",
        "label": "coins",
        "offset": 0,
        "slot": "8",
        "type": "t_array(t_address)3_storage"
      },
      {
        "astId": 1729,
        "contract": "contracts/stableSwap/plain-pools/StableSwapThreePool.sol:StableSwapThreePool",
        "label": "balances",
        "offset": 0,
        "slot": "11",
        "type": "t_array(t_uint256)3_storage"
      },
      {
        "astId": 1731,
        "contract": "contracts/stableSwap/plain-pools/StableSwapThreePool.sol:StableSwapThreePool",
        "label": "fee",
        "offset": 0,
        "slot": "14",
        "type": "t_uint256"
      },
      {
        "astId": 1733,
        "contract": "contracts/stableSwap/plain-pools/StableSwapThreePool.sol:StableSwapThreePool",
        "label": "admin_fee",
        "offset": 0,
        "slot": "15",
        "type": "t_uint256"
      },
      {
        "astId": 1736,
        "contract": "contracts/stableSwap/plain-pools/StableSwapThreePool.sol:StableSwapThreePool",
        "label": "rose_gas",
        "offset": 0,
        "slot": "16",
        "type": "t_uint256"
      },
      {
        "astId": 1739,
        "contract": "contracts/stableSwap/plain-pools/StableSwapThreePool.sol:StableSwapThreePool",
        "label": "token",
        "offset": 0,
        "slot": "17",
        "type": "t_contract(IStableSwapLP)1290"
      },
      {
        "astId": 1744,
        "contract": "contracts/stableSwap/plain-pools/StableSwapThreePool.sol:StableSwapThreePool",
        "label": "support_ROSE",
        "offset": 20,
        "slot": "17",
        "type": "t_bool"
      },
      {
        "astId": 1746,
        "contract": "contracts/stableSwap/plain-pools/StableSwapThreePool.sol:StableSwapThreePool",
        "label": "initial_A",
        "offset": 0,
        "slot": "18",
        "type": "t_uint256"
      },
      {
        "astId": 1748,
        "contract": "contracts/stableSwap/plain-pools/StableSwapThreePool.sol:StableSwapThreePool",
        "label": "future_A",
        "offset": 0,
        "slot": "19",
        "type": "t_uint256"
      },
      {
        "astId": 1750,
        "contract": "contracts/stableSwap/plain-pools/StableSwapThreePool.sol:StableSwapThreePool",
        "label": "initial_A_time",
        "offset": 0,
        "slot": "20",
        "type": "t_uint256"
      },
      {
        "astId": 1752,
        "contract": "contracts/stableSwap/plain-pools/StableSwapThreePool.sol:StableSwapThreePool",
        "label": "future_A_time",
        "offset": 0,
        "slot": "21",
        "type": "t_uint256"
      },
      {
        "astId": 1754,
        "contract": "contracts/stableSwap/plain-pools/StableSwapThreePool.sol:StableSwapThreePool",
        "label": "admin_actions_deadline",
        "offset": 0,
        "slot": "22",
        "type": "t_uint256"
      },
      {
        "astId": 1756,
        "contract": "contracts/stableSwap/plain-pools/StableSwapThreePool.sol:StableSwapThreePool",
        "label": "future_fee",
        "offset": 0,
        "slot": "23",
        "type": "t_uint256"
      },
      {
        "astId": 1758,
        "contract": "contracts/stableSwap/plain-pools/StableSwapThreePool.sol:StableSwapThreePool",
        "label": "future_admin_fee",
        "offset": 0,
        "slot": "24",
        "type": "t_uint256"
      },
      {
        "astId": 1760,
        "contract": "contracts/stableSwap/plain-pools/StableSwapThreePool.sol:StableSwapThreePool",
        "label": "kill_deadline",
        "offset": 0,
        "slot": "25",
        "type": "t_uint256"
      },
      {
        "astId": 1767,
        "contract": "contracts/stableSwap/plain-pools/StableSwapThreePool.sol:StableSwapThreePool",
        "label": "is_killed",
        "offset": 0,
        "slot": "26",
        "type": "t_bool"
      },
      {
        "astId": 1771,
        "contract": "contracts/stableSwap/plain-pools/StableSwapThreePool.sol:StableSwapThreePool",
        "label": "isInitialized",
        "offset": 1,
        "slot": "26",
        "type": "t_bool"
      }
    ],
    "types": {
      "t_address": {
        "encoding": "inplace",
        "label": "address",
        "numberOfBytes": "20"
      },
      "t_array(t_address)3_storage": {
        "base": "t_address",
        "encoding": "inplace",
        "label": "address[3]",
        "numberOfBytes": "96"
      },
      "t_array(t_uint256)3_storage": {
        "base": "t_uint256",
        "encoding": "inplace",
        "label": "uint256[3]",
        "numberOfBytes": "96"
      },
      "t_bool": {
        "encoding": "inplace",
        "label": "bool",
        "numberOfBytes": "1"
      },
      "t_contract(IStableSwapLP)1290": {
        "encoding": "inplace",
        "label": "contract IStableSwapLP",
        "numberOfBytes": "20"
      },
      "t_uint256": {
        "encoding": "inplace",
        "label": "uint256",
        "numberOfBytes": "32"
      }
    }
  }
}