{
  "address": "0x610178dA211FEF7D417bC0e6FeD39F05609AD788",
  "abi": [
    {
      "anonymous": false,
      "inputs": [
        {
          "indexed": true,
          "internalType": "address",
          "name": "previousAdminr",
          "type": "address"
        },
        {
          "indexed": true,
          "internalType": "address",
          "name": "newAdmin",
          "type": "address"
        }
      ],
      "name": "AdminshipTransferred",
      "type": "event"
    },
    {
      "anonymous": false,
      "inputs": [
        {
          "indexed": false,
          "internalType": "address",
          "name": "admin",
          "type": "address"
        }
      ],
      "name": "ApplyOwnership",
      "type": "event"
    },
    {
      "anonymous": false,
      "inputs": [
        {
          "indexed": false,
          "internalType": "address",
          "name": "admin",
          "type": "address"
        }
      ],
      "name": "CommitOwnership",
      "type": "event"
    },
    {
      "anonymous": false,
      "inputs": [
        {
          "indexed": false,
          "internalType": "uint8",
          "name": "version",
          "type": "uint8"
        }
      ],
      "name": "Initialized",
      "type": "event"
    },
    {
      "anonymous": false,
      "inputs": [
        {
          "indexed": true,
          "internalType": "address",
          "name": "swapContract",
          "type": "address"
        },
        {
          "indexed": false,
          "internalType": "address",
          "name": "tokenA",
          "type": "address"
        },
        {
          "indexed": false,
          "internalType": "address",
          "name": "tokenB",
          "type": "address"
        },
        {
          "indexed": false,
          "internalType": "address",
          "name": "tokenC",
          "type": "address"
        },
        {
          "indexed": false,
          "internalType": "address",
          "name": "LP",
          "type": "address"
        }
      ],
      "name": "NewStableSwapPair",
      "type": "event"
    },
    {
      "inputs": [],
      "name": "LPFactory",
      "outputs": [
        {
          "internalType": "contract IStableSwapLPFactory",
          "name": "",
          "type": "address"
        }
      ],
      "stateMutability": "view",
      "type": "function"
    },
    {
      "inputs": [],
      "name": "SwapThreePoolDeployer",
      "outputs": [
        {
          "internalType": "contract IStableSwapDeployer",
          "name": "",
          "type": "address"
        }
      ],
      "stateMutability": "view",
      "type": "function"
    },
    {
      "inputs": [],
      "name": "SwapTwoPoolDeployer",
      "outputs": [
        {
          "internalType": "contract IStableSwapDeployer",
          "name": "",
          "type": "address"
        }
      ],
      "stateMutability": "view",
      "type": "function"
    },
    {
      "inputs": [
        {
          "internalType": "address",
          "name": "_swapContract",
          "type": "address"
        }
      ],
      "name": "addPairInfo",
      "outputs": [],
      "stateMutability": "nonpayable",
      "type": "function"
    },
    {
      "inputs": [],
      "name": "admin",
      "outputs": [
        {
          "internalType": "address",
          "name": "",
          "type": "address"
        }
      ],
      "stateMutability": "view",
      "type": "function"
    },
    {
      "inputs": [
        {
          "internalType": "address",
          "name": "_tokenA",
          "type": "address"
        },
        {
          "internalType": "address",
          "name": "_tokenB",
          "type": "address"
        },
        {
          "internalType": "uint256",
          "name": "_A",
          "type": "uint256"
        },
        {
          "internalType": "uint256",
          "name": "_fee",
          "type": "uint256"
        },
        {
          "internalType": "uint256",
          "name": "_admin_fee",
          "type": "uint256"
        }
      ],
      "name": "createSwapPair",
      "outputs": [],
      "stateMutability": "nonpayable",
      "type": "function"
    },
    {
      "inputs": [
        {
          "internalType": "address",
          "name": "_tokenA",
          "type": "address"
        },
        {
          "internalType": "address",
          "name": "_tokenB",
          "type": "address"
        },
        {
          "internalType": "address",
          "name": "_tokenC",
          "type": "address"
        },
        {
          "internalType": "uint256",
          "name": "_A",
          "type": "uint256"
        },
        {
          "internalType": "uint256",
          "name": "_fee",
          "type": "uint256"
        },
        {
          "internalType": "uint256",
          "name": "_admin_fee",
          "type": "uint256"
        }
      ],
      "name": "createThreePoolPair",
      "outputs": [],
      "stateMutability": "nonpayable",
      "type": "function"
    },
    {
      "inputs": [
        {
          "internalType": "address",
          "name": "_tokenA",
          "type": "address"
        },
        {
          "internalType": "address",
          "name": "_tokenB",
          "type": "address"
        }
      ],
      "name": "getPairInfo",
      "outputs": [
        {
          "components": [
            {
              "internalType": "address",
              "name": "swapContract",
              "type": "address"
            },
            {
              "internalType": "address",
              "name": "token0",
              "type": "address"
            },
            {
              "internalType": "address",
              "name": "token1",
              "type": "address"
            },
            {
              "internalType": "address",
              "name": "LPContract",
              "type": "address"
            }
          ],
          "internalType": "struct StableSwapFactory.StableSwapPairInfo",
          "name": "info",
          "type": "tuple"
        }
      ],
      "stateMutability": "view",
      "type": "function"
    },
    {
      "inputs": [
        {
          "internalType": "address",
          "name": "_tokenA",
          "type": "address"
        },
        {
          "internalType": "address",
          "name": "_tokenB",
          "type": "address"
        }
      ],
      "name": "getThreePoolPairInfo",
      "outputs": [
        {
          "components": [
            {
              "internalType": "address",
              "name": "swapContract",
              "type": "address"
            },
            {
              "internalType": "address",
              "name": "token0",
              "type": "address"
            },
            {
              "internalType": "address",
              "name": "token1",
              "type": "address"
            },
            {
              "internalType": "address",
              "name": "token2",
              "type": "address"
            },
            {
              "internalType": "address",
              "name": "LPContract",
              "type": "address"
            }
          ],
          "internalType": "struct StableSwapFactory.StableSwapThreePoolPairInfo",
          "name": "info",
          "type": "tuple"
        }
      ],
      "stateMutability": "view",
      "type": "function"
    },
    {
      "inputs": [
        {
          "internalType": "contract IStableSwapLPFactory",
          "name": "_LPFactory",
          "type": "address"
        },
        {
          "internalType": "contract IStableSwapDeployer",
          "name": "_SwapTwoPoolDeployer",
          "type": "address"
        },
        {
          "internalType": "contract IStableSwapDeployer",
          "name": "_SwapThreePoolDeployer",
          "type": "address"
        },
        {
          "internalType": "address",
          "name": "_admin",
          "type": "address"
        }
      ],
      "name": "initialize",
      "outputs": [],
      "stateMutability": "nonpayable",
      "type": "function"
    },
    {
      "inputs": [],
      "name": "pairLength",
      "outputs": [
        {
          "internalType": "uint256",
          "name": "",
          "type": "uint256"
        }
      ],
      "stateMutability": "view",
      "type": "function"
    },
    {
      "inputs": [
        {
          "internalType": "address",
          "name": "",
          "type": "address"
        },
        {
          "internalType": "address",
          "name": "",
          "type": "address"
        },
        {
          "internalType": "address",
          "name": "",
          "type": "address"
        }
      ],
      "name": "stableSwapPairInfo",
      "outputs": [
        {
          "internalType": "address",
          "name": "swapContract",
          "type": "address"
        },
        {
          "internalType": "address",
          "name": "token0",
          "type": "address"
        },
        {
          "internalType": "address",
          "name": "token1",
          "type": "address"
        },
        {
          "internalType": "address",
          "name": "token2",
          "type": "address"
        },
        {
          "internalType": "address",
          "name": "LPContract",
          "type": "address"
        }
      ],
      "stateMutability": "view",
      "type": "function"
    },
    {
      "inputs": [
        {
          "internalType": "uint256",
          "name": "",
          "type": "uint256"
        }
      ],
      "name": "swapPairContract",
      "outputs": [
        {
          "internalType": "address",
          "name": "",
          "type": "address"
        }
      ],
      "stateMutability": "view",
      "type": "function"
    },
    {
      "inputs": [
        {
          "internalType": "address",
          "name": "newAdmin",
          "type": "address"
        }
      ],
      "name": "transferAdminship",
      "outputs": [],
      "stateMutability": "nonpayable",
      "type": "function"
    }
  ],
  "transactionHash": "0x0ff5f214b3e046dadfb3a2354498d5c9b407b9cf58251db336b0a20ba87ddca9",
  "args": [],
  "numDeployments": 1,
  "solcInputHash": "e22a307acdeecde468fe7734fd170cc0",
  "bytecode": "0x60808060405234610016576114cc908161001c8239f35b600080fdfe608060408181526004918236101561001657600080fd5b600092833560e01c91826314c77a6d14610cf95750816321420c4b14610cd157816338802f1a14610c3b578163400f7a1e14610b545781634205381b146108825781635be7cc16146107a2578163636e66a01461077157816368fae3f314610749578163923093cb14610695578163b3c0e846146103d257838263ec69a024146101ec57508163f851a440146101c4578163f8c8765e146100e2575063fcc9136c146100c157600080fd5b346100de57816003193601126100de576020906008549051908152f35b5080fd5b9050346101c05760803660031901126101c05780356001600160a01b03908181168091036101bc57610112610d35565b9161011b610d4b565b606435938285168095036101b757829061013361147f565b96876101a5575b6001600160a01b031995868254161790551683600554161760055516816006541617600655600754161760075561016f575080f35b60207f7f26b83ff96e1f2b6a682f133852f6798a09c465da95921460cefb38474024989161ff001984541684555160018152a180f35b895461ff001916610100178a5561013a565b600080fd5b8480fd5b8280fd5b5050346100de57816003193601126100de576020906001600160a01b03600754169051908152f35b929150346103ce5760a03660031901126103ce57610208610d1f565b918361024e610215610d35565b6001600160a01b039561022d87600754163314610e17565b61024987821680151590816103c2575b816103b5575b50610e63565b610f1a565b93909285825416815196635920110d60e11b88528086169182858a0152818816908160248b0152600060448b01523060648b01528960848160209d8e945af198891561038a57908a91879a610394575b5090899160e4846005541695898689519687958694639013148d60e01b86528d86015260248501526044356044850152606435606485015260843560848501523360a485015216978860c48401525af1998a1561038a57869a61035b575b5050813b156101bc5760248986809486519788958694637e51dad560e11b865216908401525af1908115610352575061033e575b505061033b93610f41565b80f35b61034790610d61565b6101bc578438610330565b513d84823e3d90fd5b61037b929a50803d10610383575b6103738183610da7565b810190610eaf565b9738806102fc565b503d610369565b84513d88823e3d90fd5b826103ad92939b503d8c11610383576103738183610da7565b98903861029e565b9050888416141538610243565b848a161515915061023d565b5050fd5b9050346101c05760209081600319360112610691576103ef610d1f565b906001600160a01b0361040781600754163314610e17565b8216918451630293577560e41b815284818481875afa9081156104cf578791610660575b5060028103610521575084519163c661065760e01b80845287828501528584602481885afa9384156104f8578894610502575b5086519081526001828201528581602481885afa9485156104f857869189966104d9575b508751637e062a3560e11b815292839182905afa9485156104cf5761033b965087956104b0575b5050610f41565b6104c7929550803d10610383576103738183610da7565b9238806104a9565b86513d89823e3d90fd5b6104f1919650823d8411610383576103738183610da7565b9438610482565b87513d8a823e3d90fd5b61051a919450863d8811610383576103738183610da7565b923861045e565b600314610531575b505050505080f35b84519063c661065760e01b9283835287818401528583602481885afa9283156104f8578893610641575b508651938085526001828601528685602481895afa948515610618578995610622575b5087519081526002828201528681602481895afa9586156106185787918a976105f9575b508851637e062a3560e11b815292839182905afa9586156104f8576105d0975088966105da575b5050611032565b3880808080610529565b6105f1929650803d10610383576103738183610da7565b9338806105c9565b610611919750823d8411610383576103738183610da7565b95386105a2565b88513d8b823e3d90fd5b61063a919550873d8911610383576103738183610da7565b933861057e565b610659919350863d8811610383576103738183610da7565b913861055b565b90508481813d831161068a575b6106778183610da7565b8101031261068657513861042b565b8680fd5b503d61066d565b8380fd5b5050346100de57806003193601126100de5760a0916106e76106b5610d1f565b6106bd610d35565b9083608086516106cc81610d8b565b82815282602082015282888201528260608201520152610f1a565b90836001600160a01b03938480931681526002602052209116600052602052608061071483600020610dc9565b835193838251168552836020830151166020860152838183015116908501528260608201511660608501520151166080820152f35b5050346100de57816003193601126100de576020906001600160a01b03600554169051908152f35b9050346101c05760203660031901126101c057816020936001600160a01b0392358152600385522054169051908152f35b9050346101c05760203660031901126101c0576107bd610d1f565b90600754906001600160a01b03808316936107d9853314610e17565b169384156108195750506001600160a01b03191682176007557f2931ebb3d190545dcf6801c37aa686b74f2e1000e753d0fac6e471a2aa5a62138380a380f35b906020608492519162461bcd60e51b8352820152602660248201527f4f776e61626c653a206e65772041646d696e20697320746865207a65726f206160448201527f64647265737300000000000000000000000000000000000000000000000000006064820152fd5b8383346100de5760c03660031901126100de5761089d610d1f565b6108a5610d35565b6108ad610d4b565b6001600160a01b03956108c587600754163314610e17565b8684169182151580610b49575b80610b3e575b80610b32575b80610b26575b80610b18575b6108f390610e63565b80948481948a8216908181141580610b0c575b80610b00575b61091590610ece565b11610af4575b5050878116908189861611610ad7575b505080548551635920110d60e11b81526001600160a01b03808516828501908152818716602082810191909152918816604082015230606082015290999197928a91899184169082908c90829060800103925af1968715610acd57888a918199610a87575b50839183610104888894838e818f8f829081600654169c519b8c9a8b99634cedbfc760e01b8b5216908901521660248701521660448501526064356064850152608435608485015260a43560a48501523360c485015216968760e48401525af19a8b15610a7d578a9b610a5e575b5050803b15610a5a579060248a8a809486519788958694637e51dad560e11b865216908401525af1908115610a515750610a3e575b5061033b9495611032565b94610a4b61033b96610d61565b94610a33565b513d88823e3d90fd5b8880fd5b610a75929b50803d10610383576103738183610da7565b988a806109fe565b84513d8c823e3d90fd5b8899509183888888948380808b99883d8a11610ac6575b610aa88183610da7565b8101610ab391610eaf565b9f50505050945050505091989798610990565b503d610a9e565b82513d8a823e3d90fd5b939450839083891611610aeb575b8061092b565b91925087610ae5565b9094509250888061091b565b50848c1682141561090c565b508b8516811415610906565b5083881681891614156108ea565b508781168314156108e4565b508784168314156108de565b5087811615156108d8565b5087841615156108d2565b8383346100de57806003193601126100de57610b6e610d1f565b610b76610d35565b928251936080850185811067ffffffffffffffff821117610c2857608096509084929183528186526020808701838152610bbd8589019385855260608a0197868952610f1a565b91908a610bf26001600160a01b039a8b9889968780961682526001895285838320911682528852818120818052885220610dc9565b82815116809c52828682015116845282898201511687520151168752855198895251169087015251169084015251166060820152f35b634e487b7160e01b835260418752602483fd5b9050346101c05760603660031901126101c0579160a09282610c5b610d1f565b92610c64610d35565b610c6c610d4b565b906001600160a01b03809616835260016020528584842091168352602052848383209116825260205220908282541693836001840154169380600285015416928160038601541694015416938151958652602086015284015260608301526080820152f35b5050346100de57816003193601126100de576020906001600160a01b03600654169051908152f35b8434610d1c5780600319360112610d1c57506001600160a01b0360209254168152f35b80fd5b600435906001600160a01b03821682036101b757565b602435906001600160a01b03821682036101b757565b604435906001600160a01b03821682036101b757565b67ffffffffffffffff8111610d7557604052565b634e487b7160e01b600052604160045260246000fd5b60a0810190811067ffffffffffffffff821117610d7557604052565b90601f8019910116810190811067ffffffffffffffff821117610d7557604052565b90604051610dd681610d8b565b6080819360046001600160a01b0391828154168552826001820154166020860152826002820154166040860152826003820154166060860152015416910152565b15610e1e57565b60405162461bcd60e51b815260206004820152600a60248201527f41646d696e206f6e6c79000000000000000000000000000000000000000000006044820152606490fd5b15610e6a57565b60405162461bcd60e51b815260206004820152600d60248201527f496c6c6567616c20746f6b656e000000000000000000000000000000000000006044820152606490fd5b908160209103126101b757516001600160a01b03811681036101b75790565b15610ed557565b60405162461bcd60e51b815260206004820152601360248201527f4944454e544943414c5f414444524553534553000000000000000000000000006044820152606490fd5b6001600160a01b03808316908216610f3482821415610ece565b1015610f3d5791565b9091565b919290926001600160a01b03809416926000918483526001602052604091868385209216918285526020528284208480526020528683852091169660046001600160a01b0319928984825416178155600181018985825416179055600281018585825416179055600381018481541690550195169485828254161790556008548452600360205286838520918254161790556008546001810180911161101e576008558151948552602085015283015260608201527f48dc7a1b156fe3e70ed5ed0afcb307661905edf536f15bb5786e327ea193353290608090a2565b634e487b7160e01b84526011600452602484fd5b926001600160a01b038216600052600160205260406000206001600160a01b03841660005260205260406000206001600160a01b0382166000526020526001600160a01b036040600020941694856001600160a01b0319865416178555600185016001600160a01b0384166001600160a01b0319825416179055600285016001600160a01b0385166001600160a01b0319825416179055600385016001600160a01b0383166001600160a01b0319825416179055600485016001600160a01b0382166001600160a01b031982541617905560085460005260036020526040600020866001600160a01b031982541617905560085491600183018093116113f7577f48dc7a1b156fe3e70ed5ed0afcb307661905edf536f15bb5786e327ea19335329561119c936008556001600160a01b0382166111a1575b50604080516001600160a01b039586168152958516602087015290841690850152909116606083015281906080820190565b0390a2565b6111aa90610dc9565b6001600160a01b038516600052600260205260406000206001600160a01b03871660005260205260406000206001600160a01b038251166001600160a01b03198254161781556001600160a01b036020830151166001600160a01b03196001830154161760018201556001600160a01b036040830151166001600160a01b03196002830154161760028201556001600160a01b036060830151166001600160a01b031960038301541617600382015560046001600160a01b036080840151166001600160a01b03198284015416179101556001600160a01b038516600052600260205260406000206001600160a01b038316600052602052600460406000206001600160a01b038351166001600160a01b0319825416178155600181016001600160a01b036020850151166001600160a01b0319825416179055600281016001600160a01b036040850151166001600160a01b0319825416179055600381016001600160a01b036060850151166001600160a01b0319825416179055016001600160a01b036080830151166001600160a01b03198254161790556001600160a01b038616600052600260205260406000206001600160a01b0383166000526020526001600160a01b03608060046040600020838551166001600160a01b031982541617815560018101846020870151166001600160a01b031982541617905560028101846040870151166001600160a01b031982541617905560038101846060870151166001600160a01b031982541617905501920151166001600160a01b03198254161790553861116a565b634e487b7160e01b600052601160045260246000fd5b1561141457565b60405162461bcd60e51b815260206004820152602e60248201527f496e697469616c697a61626c653a20636f6e747261637420697320616c72656160448201527f647920696e697469616c697a65640000000000000000000000000000000000006064820152608490fd5b60005460ff8160081c166000146114a1575061149c303b1561140d565b600090565b806114b2600160ff8194161061140d565b60ff19161760005560019056fea164736f6c6343000818000a",
  "devdoc": {
    "details": "This contract manages the creations of stable swap pools and provides access to their information",
    "events": {
      "Initialized(uint8)": {
        "details": "Triggered when the contract has been initialized or reinitialized."
      }
    },
    "kind": "dev",
    "methods": {
      "addPairInfo(address)": {
        "params": {
          "_swapContract": ": Addresses of stable swap contracts."
        }
      },
      "createSwapPair(address,address,uint256,uint256,uint256)": {
        "params": {
          "_A": ": Amplification coefficient multiplied by n * (n - 1)",
          "_admin_fee": ": Admin fee",
          "_fee": ": Fee to charge for exchanges",
          "_tokenA": ": Addresses of ERC20 conracts .",
          "_tokenB": ": Addresses of ERC20 conracts ."
        }
      },
      "createThreePoolPair(address,address,address,uint256,uint256,uint256)": {
        "params": {
          "_A": ": Amplification coefficient multiplied by n * (n - 1)",
          "_admin_fee": ": Admin fee",
          "_fee": ": Fee to charge for exchanges",
          "_tokenA": ": Addresses of ERC20 conracts .",
          "_tokenB": ": Addresses of ERC20 conracts .",
          "_tokenC": ": Addresses of ERC20 conracts ."
        }
      },
      "getPairInfo(address,address)": {
        "params": {
          "_tokenA": ": Addresses of ERC20 conracts.",
          "_tokenB": ": Addresses of ERC20 conracts."
        }
      },
      "getThreePoolPairInfo(address,address)": {
        "params": {
          "_tokenA": ": Addresses of ERC20 conracts.",
          "_tokenB": ": Addresses of ERC20 conracts."
        }
      },
      "transferAdminship(address)": {
        "details": "Transfers ownership of the contract to a new account (`newOwner`). Can only be called by the current owner."
      }
    },
    "title": "Stable swap factory",
    "version": 1
  },
  "userdoc": {
    "kind": "user",
    "methods": {
      "addPairInfo(address)": {
        "notice": "Adds information about a stable swap contract."
      },
      "createSwapPair(address,address,uint256,uint256,uint256)": {
        "notice": "createSwapPair"
      },
      "createThreePoolPair(address,address,address,uint256,uint256,uint256)": {
        "notice": "createThreePoolPair"
      },
      "getPairInfo(address,address)": {
        "notice": "Retrieves information of two pool."
      },
      "getThreePoolPairInfo(address,address)": {
        "notice": "Retrieves information of three pool by two tokens."
      },
      "initialize(address,address,address,address)": {
        "notice": "constructor _LPFactory: LP factory _SwapTwoPoolDeployer: Swap two pool deployer _SwapThreePoolDeployer: Swap three pool deployer"
      }
    },
    "notice": "A factory contract for creating new pool and providing pool information",
    "version": 1
  },
  "storageLayout": {
    "storage": [
      {
        "astId": 6,
        "contract": "contracts/stableSwap/StableSwapFactory.sol:StableSwapFactory",
        "label": "_initialized",
        "offset": 0,
        "slot": "0",
        "type": "t_uint8"
      },
      {
        "astId": 9,
        "contract": "contracts/stableSwap/StableSwapFactory.sol:StableSwapFactory",
        "label": "_initializing",
        "offset": 1,
        "slot": "0",
        "type": "t_bool"
      },
      {
        "astId": 867,
        "contract": "contracts/stableSwap/StableSwapFactory.sol:StableSwapFactory",
        "label": "stableSwapPairInfo",
        "offset": 0,
        "slot": "1",
        "type": "t_mapping(t_address,t_mapping(t_address,t_mapping(t_address,t_struct(StableSwapThreePoolPairInfo)858_storage)))"
      },
      {
        "astId": 874,
        "contract": "contracts/stableSwap/StableSwapFactory.sol:StableSwapFactory",
        "label": "threePoolInfo",
        "offset": 0,
        "slot": "2",
        "type": "t_mapping(t_address,t_mapping(t_address,t_struct(StableSwapThreePoolPairInfo)858_storage))"
      },
      {
        "astId": 878,
        "contract": "contracts/stableSwap/StableSwapFactory.sol:StableSwapFactory",
        "label": "swapPairContract",
        "offset": 0,
        "slot": "3",
        "type": "t_mapping(t_uint256,t_address)"
      },
      {
        "astId": 881,
        "contract": "contracts/stableSwap/StableSwapFactory.sol:StableSwapFactory",
        "label": "LPFactory",
        "offset": 0,
        "slot": "4",
        "type": "t_contract(IStableSwapLPFactory)827"
      },
      {
        "astId": 884,
        "contract": "contracts/stableSwap/StableSwapFactory.sol:StableSwapFactory",
        "label": "SwapTwoPoolDeployer",
        "offset": 0,
        "slot": "5",
        "type": "t_contract(IStableSwapDeployer)779"
      },
      {
        "astId": 887,
        "contract": "contracts/stableSwap/StableSwapFactory.sol:StableSwapFactory",
        "label": "SwapThreePoolDeployer",
        "offset": 0,
        "slot": "6",
        "type": "t_contract(IStableSwapDeployer)779"
      },
      {
        "astId": 895,
        "contract": "contracts/stableSwap/StableSwapFactory.sol:StableSwapFactory",
        "label": "admin",
        "offset": 0,
        "slot": "7",
        "type": "t_address"
      },
      {
        "astId": 897,
        "contract": "contracts/stableSwap/StableSwapFactory.sol:StableSwapFactory",
        "label": "pairLength",
        "offset": 0,
        "slot": "8",
        "type": "t_uint256"
      }
    ],
    "types": {
      "t_address": {
        "encoding": "inplace",
        "label": "address",
        "numberOfBytes": "20"
      },
      "t_bool": {
        "encoding": "inplace",
        "label": "bool",
        "numberOfBytes": "1"
      },
      "t_contract(IStableSwapDeployer)779": {
        "encoding": "inplace",
        "label": "contract IStableSwapDeployer",
        "numberOfBytes": "20"
      },
      "t_contract(IStableSwapLPFactory)827": {
        "encoding": "inplace",
        "label": "contract IStableSwapLPFactory",
        "numberOfBytes": "20"
      },
      "t_mapping(t_address,t_mapping(t_address,t_mapping(t_address,t_struct(StableSwapThreePoolPairInfo)858_storage)))": {
        "encoding": "mapping",
        "key": "t_address",
        "label": "mapping(address => mapping(address => mapping(address => struct StableSwapFactory.StableSwapThreePoolPairInfo)))",
        "numberOfBytes": "32",
        "value": "t_mapping(t_address,t_mapping(t_address,t_struct(StableSwapThreePoolPairInfo)858_storage))"
      },
      "t_mapping(t_address,t_mapping(t_address,t_struct(StableSwapThreePoolPairInfo)858_storage))": {
        "encoding": "mapping",
        "key": "t_address",
        "label": "mapping(address => mapping(address => struct StableSwapFactory.StableSwapThreePoolPairInfo))",
        "numberOfBytes": "32",
        "value": "t_mapping(t_address,t_struct(StableSwapThreePoolPairInfo)858_storage)"
      },
      "t_mapping(t_address,t_struct(StableSwapThreePoolPairInfo)858_storage)": {
        "encoding": "mapping",
        "key": "t_address",
        "label": "mapping(address => struct StableSwapFactory.StableSwapThreePoolPairInfo)",
        "numberOfBytes": "32",
        "value": "t_struct(StableSwapThreePoolPairInfo)858_storage"
      },
      "t_mapping(t_uint256,t_address)": {
        "encoding": "mapping",
        "key": "t_uint256",
        "label": "mapping(uint256 => address)",
        "numberOfBytes": "32",
        "value": "t_address"
      },
      "t_struct(StableSwapThreePoolPairInfo)858_storage": {
        "encoding": "inplace",
        "label": "struct StableSwapFactory.StableSwapThreePoolPairInfo",
        "members": [
          {
            "astId": 849,
            "contract": "contracts/stableSwap/StableSwapFactory.sol:StableSwapFactory",
            "label": "swapContract",
            "offset": 0,
            "slot": "0",
            "type": "t_address"
          },
          {
            "astId": 851,
            "contract": "contracts/stableSwap/StableSwapFactory.sol:StableSwapFactory",
            "label": "token0",
            "offset": 0,
            "slot": "1",
            "type": "t_address"
          },
          {
            "astId": 853,
            "contract": "contracts/stableSwap/StableSwapFactory.sol:StableSwapFactory",
            "label": "token1",
            "offset": 0,
            "slot": "2",
            "type": "t_address"
          },
          {
            "astId": 855,
            "contract": "contracts/stableSwap/StableSwapFactory.sol:StableSwapFactory",
            "label": "token2",
            "offset": 0,
            "slot": "3",
            "type": "t_address"
          },
          {
            "astId": 857,
            "contract": "contracts/stableSwap/StableSwapFactory.sol:StableSwapFactory",
            "label": "LPContract",
            "offset": 0,
            "slot": "4",
            "type": "t_address"
          }
        ],
        "numberOfBytes": "160"
      },
      "t_uint256": {
        "encoding": "inplace",
        "label": "uint256",
        "numberOfBytes": "32"
      },
      "t_uint8": {
        "encoding": "inplace",
        "label": "uint8",
        "numberOfBytes": "1"
      }
    }
  }
}