{
  "address": "0x0165878A594ca255338adfa4d48449f69242Eb8F",
  "abi": [
    {
      "inputs": [],
      "name": "FEE_DENOMINATOR",
      "outputs": [
        {
          "internalType": "uint256",
          "name": "",
          "type": "uint256"
        }
      ],
      "stateMutability": "view",
      "type": "function"
    },
    {
      "inputs": [],
      "name": "N_COINS",
      "outputs": [
        {
          "internalType": "uint256",
          "name": "",
          "type": "uint256"
        }
      ],
      "stateMutability": "view",
      "type": "function"
    },
    {
      "inputs": [],
      "name": "PRECISION",
      "outputs": [
        {
          "internalType": "uint256",
          "name": "",
          "type": "uint256"
        }
      ],
      "stateMutability": "view",
      "type": "function"
    },
    {
      "inputs": [
        {
          "internalType": "address",
          "name": "_swap",
          "type": "address"
        }
      ],
      "name": "PRECISION_MUL",
      "outputs": [
        {
          "internalType": "uint256[2]",
          "name": "swapPRECISION_MUL",
          "type": "uint256[2]"
        }
      ],
      "stateMutability": "view",
      "type": "function"
    },
    {
      "inputs": [
        {
          "internalType": "address",
          "name": "_swap",
          "type": "address"
        }
      ],
      "name": "RATES",
      "outputs": [
        {
          "internalType": "uint256[2]",
          "name": "swapRATES",
          "type": "uint256[2]"
        }
      ],
      "stateMutability": "view",
      "type": "function"
    },
    {
      "inputs": [
        {
          "internalType": "address",
          "name": "_swap",
          "type": "address"
        },
        {
          "internalType": "uint256[2]",
          "name": "_balances",
          "type": "uint256[2]"
        }
      ],
      "name": "_xp_mem",
      "outputs": [
        {
          "internalType": "uint256[2]",
          "name": "result",
          "type": "uint256[2]"
        }
      ],
      "stateMutability": "view",
      "type": "function"
    },
    {
      "inputs": [
        {
          "internalType": "address",
          "name": "_swap",
          "type": "address"
        }
      ],
      "name": "balances",
      "outputs": [
        {
          "internalType": "uint256[2]",
          "name": "swapBalances",
          "type": "uint256[2]"
        }
      ],
      "stateMutability": "view",
      "type": "function"
    },
    {
      "inputs": [
        {
          "internalType": "address",
          "name": "_swap",
          "type": "address"
        },
        {
          "internalType": "uint256",
          "name": "_amount",
          "type": "uint256"
        }
      ],
      "name": "calc_coins_amount",
      "outputs": [
        {
          "internalType": "uint256[2]",
          "name": "",
          "type": "uint256[2]"
        }
      ],
      "stateMutability": "view",
      "type": "function"
    },
    {
      "inputs": [
        {
          "internalType": "address",
          "name": "_swap",
          "type": "address"
        },
        {
          "internalType": "uint256[2]",
          "name": "_balances",
          "type": "uint256[2]"
        },
        {
          "internalType": "uint256",
          "name": "amp",
          "type": "uint256"
        }
      ],
      "name": "get_D_mem",
      "outputs": [
        {
          "internalType": "uint256",
          "name": "",
          "type": "uint256"
        }
      ],
      "stateMutability": "view",
      "type": "function"
    },
    {
      "inputs": [
        {
          "internalType": "address",
          "name": "_swap",
          "type": "address"
        },
        {
          "internalType": "uint256[2]",
          "name": "amounts",
          "type": "uint256[2]"
        }
      ],
      "name": "get_add_liquidity_fee",
      "outputs": [
        {
          "internalType": "uint256[2]",
          "name": "liquidityFee",
          "type": "uint256[2]"
        }
      ],
      "stateMutability": "view",
      "type": "function"
    },
    {
      "inputs": [
        {
          "internalType": "address",
          "name": "_swap",
          "type": "address"
        },
        {
          "internalType": "uint256[2]",
          "name": "amounts",
          "type": "uint256[2]"
        }
      ],
      "name": "get_add_liquidity_mint_amount",
      "outputs": [
        {
          "internalType": "uint256",
          "name": "",
          "type": "uint256"
        }
      ],
      "stateMutability": "view",
      "type": "function"
    },
    {
      "inputs": [
        {
          "internalType": "address",
          "name": "_swap",
          "type": "address"
        },
        {
          "internalType": "uint256",
          "name": "i",
          "type": "uint256"
        },
        {
          "internalType": "uint256",
          "name": "j",
          "type": "uint256"
        },
        {
          "internalType": "uint256",
          "name": "dy",
          "type": "uint256"
        },
        {
          "internalType": "uint256",
          "name": "max_dx",
          "type": "uint256"
        }
      ],
      "name": "get_dx",
      "outputs": [
        {
          "internalType": "uint256",
          "name": "",
          "type": "uint256"
        }
      ],
      "stateMutability": "view",
      "type": "function"
    },
    {
      "inputs": [
        {
          "internalType": "address",
          "name": "_swap",
          "type": "address"
        },
        {
          "internalType": "uint256",
          "name": "i",
          "type": "uint256"
        },
        {
          "internalType": "uint256",
          "name": "j",
          "type": "uint256"
        },
        {
          "internalType": "uint256",
          "name": "dx",
          "type": "uint256"
        }
      ],
      "name": "get_exchange_fee",
      "outputs": [
        {
          "internalType": "uint256",
          "name": "exFee",
          "type": "uint256"
        },
        {
          "internalType": "uint256",
          "name": "exAdminFee",
          "type": "uint256"
        }
      ],
      "stateMutability": "view",
      "type": "function"
    },
    {
      "inputs": [
        {
          "internalType": "address",
          "name": "_swap",
          "type": "address"
        },
        {
          "internalType": "uint256[2]",
          "name": "amounts",
          "type": "uint256[2]"
        }
      ],
      "name": "get_remove_liquidity_imbalance_fee",
      "outputs": [
        {
          "internalType": "uint256[2]",
          "name": "liquidityFee",
          "type": "uint256[2]"
        }
      ],
      "stateMutability": "view",
      "type": "function"
    },
    {
      "inputs": [
        {
          "internalType": "address",
          "name": "_swap",
          "type": "address"
        },
        {
          "internalType": "uint256",
          "name": "_token_amount",
          "type": "uint256"
        },
        {
          "internalType": "uint256",
          "name": "i",
          "type": "uint256"
        }
      ],
      "name": "get_remove_liquidity_one_coin_fee",
      "outputs": [
        {
          "internalType": "uint256",
          "name": "adminFee",
          "type": "uint256"
        }
      ],
      "stateMutability": "view",
      "type": "function"
    },
    {
      "inputs": [
        {
          "internalType": "address",
          "name": "_swap",
          "type": "address"
        }
      ],
      "name": "token",
      "outputs": [
        {
          "internalType": "contract IERC20",
          "name": "",
          "type": "address"
        }
      ],
      "stateMutability": "view",
      "type": "function"
    }
  ],
  "transactionHash": "0x88313cb4559bee3b5fe35a18bc57dc045ab7adb015aa74e626a26d90315243c9",
  "args": [],
  "numDeployments": 1,
  "solcInputHash": "c9085358f158263735fdb8c81e9dc0b1",
  "bytecode": "0x6080806040523461001657611ec1908161001c8239f35b600080fdfe6080604052600436101561001257600080fd5b60003560e01c80630d098fa9146111e257806315a4d7fe146110915780631f38b0c714610ead5780632494acbd14610e89578063279a07cc14610e6557806327e235e314610e415780632935775014610e255780635779dcd814610a345780636c92118e146107b75780636d46a1db14610783578063aaf5eb6814610760578063ae6452b414610722578063b6f03ac1146103b6578063ca4bc71414610131578063d73792a9146101115763f74d92e7146100cc57600080fd5b3461010c57608036600319011261010c5760206101046100ea6114b4565b6100ff6100f63661151e565b60643592611913565b611ba9565b604051908152f35b600080fd5b3461010c57600036600319011261010c5760206040516402540be4008152f35b3461010c5760a036600319011261010c5761014a6114b4565b60643590602490813560443561015f836117fb565b9261016a8482611913565b906402540be400808802978089048214901517156103a15760405163ddca3f4360e01b81526020989089816004816001600160a01b0388165afa90811561039557600091610368575b508203918211610353576101cb6101d19286926115ae565b966115ce565b5185101561030f579081816101e686946116a5565b94846101f282846115ce565b51670de0b6b3a7640000809a610208858b6115ce565b516102129161158e565b0461021c916115a1565b9161022694611975565b91610230916115ce565b5161023a916115a1565b8381029381850414901517156102fa5761025f9291610258916115ce565b51906115ae565b90600182018092116102e657608435821161027d5750604051908152f35b82602e6084926040519262461bcd60e51b845260048401528201527f45786368616e676520726573756c74656420696e20666577657220636f696e7360448201527f207468616e2065787065637465640000000000000000000000000000000000006064820152fd5b634e487b7160e01b60009081526011600452fd5b83634e487b7160e01b60005260116004526000fd5b60405162461bcd60e51b815260048101889052600e818801527f4578636573732062616c616e63650000000000000000000000000000000000006044820152606490fd5b87634e487b7160e01b60005260116004526000fd5b90508981813d831161038e575b61037f81836114fc565b8101031261010c57518a6101b3565b503d610375565b6040513d6000823e3d90fd5b86634e487b7160e01b60005260116004526000fd5b3461010c57606036600319011261010c576103cf6114b4565b6103d83661151e565b906001600160a01b03918282166040516103f1816114ca565b604036823760405163ddca3f4360e01b815294602086600481865afa958615610395576000966106ee575b50858060011b04600214861517156106d857602060049360405194858092630f446c1d60e41b82525afa928315610395576000936106a3575b509160206004936104658761189f565b16604051948580926318160ddd60e01b82525afa9283156103955760009361066f575b50600093610495866117fb565b9584610659575b604051916104a9836114ca565b875183526020880151602084015260005b600281106106055750506104d2836100ff8484611913565b966104de878911611659565b879486610526575b505050505060209450811560001461050357505050604051908152f35b6105219350906105168361051c936115a1565b9061158e565b6115ae565b610104565b90919293945060005b60028110610556575050506020965061054c92916100ff91611913565b85808080806104e6565b806402540be4006105b68c6001600160fe1b036105858d8f61051c9061057e60019a8d6115ce565b519061158e565b61058f868c6115ce565b518111156105f1576105ac906105a5878d6115ce565b51906115a1565b915b861c1661158e565b046105c182856115ce565b526105e06105cf82856115ce565b516105da83896115ce565b516115a1565b6105ea82886115ce565b520161052f565b6105ff906105da878d6115ce565b916105ae565b600190871561063f575b61062e61061c828c6115ce565b5161062783866115ce565b519061164c565b61063882876115ce565b52016104ba565b61065461064c82856115ce565b5115156115f5565b61060f565b9450610669826100ff8888611913565b9461049c565b9092506020813d60201161069b575b8161068b602093836114fc565b8101031261010c57519186610488565b3d915061067e565b92506020833d6020116106d0575b816106be602093836114fc565b8101031261010c579151916020610455565b3d91506106b1565b634e487b7160e01b600052601160045260246000fd5b9095506020813d60201161071a575b8161070a602093836114fc565b8101031261010c5751948661041c565b3d91506106fd565b3461010c57606036600319011261010c5761075c6107506107416114b4565b61074a3661151e565b90611913565b60405191829182611560565b0390f35b3461010c57600036600319011261010c576020604051670de0b6b3a76400008152f35b3461010c57602036600319011261010c5760206107a66107a16114b4565b61189f565b6001600160a01b0360405191168152f35b3461010c57606036600319011261010c576107d06114b4565b6107d93661151e565b90604051906107e7826114ca565b604036833760405163ddca3f4360e01b8152906001600160a01b03811660208084600481855afa93841561039557600094610a05575b50600195600294808060011b04600214811517156106d8576001600160fe1b039060011c16936040519363fee3f7f960e01b85528385600481845afa948515610395576000956109d6575b508360049160405192838092630f446c1d60e41b82525afa908115610395576000916109a9575b5061089b8294926117fb565b916040519485916108ab836114ca565b8451835280850151908301526108c5836100ff8684611913565b948b60005b8b8110610976575050506108e292916100ff91611913565b9060005b8781106108fb576040518061075c8b82611560565b899061094b6109518861091c8861051c610915878a6115ce565b518a61158e565b610926858b6115ce565b518111156109635761093c906105a5868c6115ce565b6402540be4009384918d61158e565b0461158e565b0461095c828c6115ce565b52016108e6565b610971906105da868c6115ce565b61093c565b909192935061099361098882856115ce565b516105da838b6115ce565b61099d828a6115ce565b5201908b8793926108ca565b90508381813d83116109cf575b6109c081836114fc565b8101031261010c57518961088f565b503d6109b6565b9094508381813d83116109fe575b6109ee81836114fc565b8101031261010c57519383610868565b503d6109e4565b9080945081813d8311610a2d575b610a1d81836114fc565b8101031261010c5751928661081d565b503d610a13565b3461010c57606036600319011261010c57610a4d6114b4565b604051630f446c1d60e41b8152906020826004816001600160a01b0385165afa91821561039557600092610df1575b5060405163ddca3f4360e01b8152916020836004816001600160a01b0386165afa92831561039557600093610dbd575b50828060011b04600214831517156106d857610ac782611757565b9060408051610ad5816114ca565b369037610ae1836116a5565b9360005b60028110610d1d5750610af88286611ba9565b94610b058660243561158e565b600460206001600160a01b03610b1a8961189f565b16604051928380926318160ddd60e01b82525afa90811561039557600091610ce9575b50610b4b90610b51926115ae565b876115a1565b91610b60838360443587611d13565b90610b80610b74836105da604435876115ce565b610258604435896115ce565b9760005b60028110610c585750505050610bb69291610bb091610ba5604435826115ce565b519360443590611d13565b906115a1565b60001981019081116106d8576001600160a01b0393610bb0610be192610258602095604435906115ce565b9160046040518095819363fee3f7f960e01b8352165afa91821561039557600092610c22575b60206402540be400610c19858561158e565b04604051908152f35b91506020823d602011610c50575b81610c3d602093836114fc565b8101031261010c57905190610c19610c07565b3d9150610c30565b600190610cb16402540be400610ca685888b868c6044358203610cc257610c9092610c8a610c95969361051c936115ce565b5161158e565b6115a1565b6001600160fe1b0388871c1661158e565b046105da83896115ce565b610cbb82886115ce565b5201610b84565b92509261051c610bb092610c8a86610cdd610ce498886115ce565b51966115ce565b610c95565b90506020813d602011610d15575b81610d04602093836114fc565b8101031261010c5751610b51610b3d565b3d9150610cf7565b610d2781876115ce565b51604051634903b0d160e01b81526004810183905291906020836024816001600160a01b038b165afa92831561039557600093610d87575b50610d75600193670de0b6b3a76400009261158e565b04610d8082896115ce565b5201610ae5565b92506020833d602011610db5575b81610da2602093836114fc565b8101031261010c57915191610d75610d5f565b3d9150610d95565b9092506020813d602011610de9575b81610dd9602093836114fc565b8101031261010c57519183610aac565b3d9150610dcc565b9091506020813d602011610e1d575b81610e0d602093836114fc565b8101031261010c57519082610a7c565b3d9150610e00565b3461010c57600036600319011261010c57602060405160028152f35b3461010c57602036600319011261010c5761075c610750610e606114b4565b6117fb565b3461010c57602036600319011261010c5761075c610750610e846114b4565b611757565b3461010c57602036600319011261010c5761075c610750610ea86114b4565b6116a5565b3461010c57608036600319011261010c57610ec66114b4565b6001600160a01b03811690610f47610ee6610ee0836117fb565b83611913565b6105da610f3d82610ef6866116a5565b95610f2f610f06602435846115ce565b51670de0b6b3a7640000610f28610f1f6024358c6115ce565b5160643561158e565b049061164c565b906044359060243590611975565b91604435906115ce565b60001981019081116106d85760405163ddca3f4360e01b8152602091908281600481885afa908115610395578390600092611063575b5060049192610f936402540be40094859261158e565b04956040519283809263fee3f7f960e01b82525afa801561039557600090611034575b610fc191508561158e565b0492670de0b6b3a7640000810290808204670de0b6b3a764000014901517156106d857610ff490610258604435856115ce565b91670de0b6b3a7640000840293808504670de0b6b3a764000014901517156106d85760409361025861102992604435906115ce565b908351928352820152f35b508281813d831161105c575b61104a81836114fc565b8101031261010c57610fc19051610fb6565b503d611040565b809250813d831161108a575b61107981836114fc565b8101031261010c5751826004610f7d565b503d61106f565b3461010c57604036600319011261010c576110aa6114b4565b6024803591604080516110bc816114ca565b3690376001600160a01b0391826110d28361189f565b166040519182916318160ddd60e01b835282600460209485935afa928315610395576000936111b3575b506040519461110a866114ca565b604036873760009416935b6002811061112b576040518061075c8882611560565b604051634903b0d160e01b8152600481018290529083828481895afa918215610395578592899160009161117c575b509261051c61116b9260019561158e565b61117582896115ce565b5201611115565b935050508382813d83116111ac575b61119581836114fc565b8101031261010c579051849190889061051c61115a565b503d61118b565b9092508181813d83116111db575b6111cb81836114fc565b8101031261010c575191866110fc565b503d6111c1565b3461010c57606036600319011261010c576111fb6114b4565b6112043661151e565b9060405190611212826114ca565b60403683376001600160a01b038082166040519263ddca3f4360e01b84526020908185600481865afa94851561039557600095611485575b50600196600295808060011b04600214811517156106d8576001600160fe1b039060011c16946040519463fee3f7f960e01b86528486600481845afa95861561039557600096611454575b50908460049260405193848092630f446c1d60e41b82525afa908115610395578590600092611424575b600493506112cc8661189f565b16604051938480926318160ddd60e01b82525afa918215610395576000926113f5575b506000936112fc816117fb565b9215801594856113df575b969190604051978893611319856114ca565b8651855280870151908501528d60005b8d811061139d575050505061134292916100ff91611913565b9161134e848411611659565b611361575b6040518061075c8a82611560565b60005b8781106113715750611353565b899061094b61138b8861091c8861051c610915878a6115ce565b04611396828c6115ce565b5201611364565b909192809495506113cd575b6113b661061c82896115ce565b6113c0828c6115ce565b5201908d89949392611329565b6113da61064c82856115ce565b6113a9565b95506113ef836100ff8685611913565b95611307565b9091508481813d831161141d575b61140d81836114fc565b8101031261010c5751908a6112ef565b503d611403565b915082813d831161144d575b61143a81836114fc565b8101031261010c578460049251916112bf565b503d611430565b919095508482813d831161147e575b61146d81836114fc565b8101031261010c5790519484611295565b503d611463565b9094508181813d83116114ad575b61149d81836114fc565b8101031261010c5751938761124a565b503d611493565b600435906001600160a01b038216820361010c57565b6040810190811067ffffffffffffffff8211176114e657604052565b634e487b7160e01b600052604160045260246000fd5b90601f8019910116810190811067ffffffffffffffff8211176114e657604052565b806043121561010c5760405190611534826114ca565b8160649160641161010c576024905b8282106115505750505090565b8135815260209182019101611543565b6040810192916000915b6002831061157757505050565b60019082518152602080910192019201919061156a565b818102929181159184041417156106d857565b919082039182116106d857565b81156115b8570490565b634e487b7160e01b600052601260045260246000fd5b9060028110156115df5760051b0190565b634e487b7160e01b600052603260045260246000fd5b156115fc57565b60405162461bcd60e51b815260206004820152602260248201527f496e697469616c206465706f73697420726571756972657320616c6c20636f696044820152616e7360f01b6064820152608490fd5b919082018092116106d857565b1561166057565b60405162461bcd60e51b815260206004820152601a60248201527f4431206d7573742062652067726561746572207468616e2044300000000000006044820152606490fd5b9060408051926116b4846114ca565b60403685378360005b600281106116cb5750505050565b83516318880f5d60e21b8152600481018290526020919082816024816001600160a01b0389165afa90811561174c57600091611718575b506001925061171182856115ce565b52016116bd565b919282813d8311611745575b61172e81836114fc565b810103126117425750906001915138611702565b80fd5b503d611724565b86513d6000823e3d90fd5b906040805192611766846114ca565b60403685378360005b6002811061177d5750505050565b8351631f6be8d960e21b8152600481018290526020919082816024816001600160a01b0389165afa90811561174c576000916117ca575b50600192506117c382856115ce565b520161176f565b919282813d83116117f4575b6117e081836114fc565b8101031261174257509060019151386117b4565b503d6117d6565b90604080519261180a846114ca565b60403685378360005b600281106118215750505050565b8351634903b0d160e01b8152600481018290526020919082816024816001600160a01b0389165afa90811561174c5760009161186e575b506001925061186782856115ce565b5201611813565b919282813d8311611898575b61188481836114fc565b810103126117425750906001915138611858565b503d61187a565b604051637e062a3560e11b81526001600160a01b03916020908290600490829086165afa908115610395576000916118d657501690565b6020813d60201161190b575b816118ef602093836114fc565b81010312611907575190828216820361174257501690565b5080fd5b3d91506118e2565b61192f9092919260408051611927816114ca565b3690376116a5565b9160005b6002811061193f575050565b80670de0b6b3a7640000611963611958600194886115ce565b5161057e84876115ce565b0461196e82876115ce565b5201611933565b9193909360405190630f446c1d60e41b82526020826004816001600160a01b038298165afa91821561039557600092611b75575b506119b48284611ba9565b809660009260019785891b9660029287890460021488151715611b61579290918b94928796975086945b838610611ace575050505050506119f5919261158e565b9160021b838104600214841517156106d857611a17611a1e91611a24946115ae565b93876115ae565b9061164c565b918460005b60ff8110611a3b575b50505050505090565b86611a4f85611a4a838061158e565b61164c565b906001600160ff1b0381168103611ab9578791611a7585610c908a611a7b95871b61164c565b906115ae565b978881811115611aa35790611a8f916115a1565b1115611a9e5785905b01611a29565b611a32565b611aac916115a1565b1115611a9e578590611a98565b601185634e487b7160e01b6000525260246000fd5b9193809650859791939514600014611b3757611af58d611aef86809461164c565b9961158e565b818d1b91808304871490151715611b22578c91611b11916115ae565b965b0193918c9593919796976119de565b60118c634e487b7160e01b6000525260246000fd5b8b878314611b595750611af58d611aef611b518a876115ce565b51809461164c565b909796611b13565b634e487b7160e01b87526011600452602487fd5b90916020823d602011611ba1575b81611b90602093836114fc565b8101031261174257505190386119a9565b3d9150611b83565b90600090815b60028110611cfb57508115611cf357819260019282841b91600293808404600214901517156106d85790926000198301838111929160005b60ff8110611bfb575b505050505050505090565b8860005b838110611ca357508099611c13898961158e565b91818b1b928284048614831517156106d85781611c348a95611c399361164c565b61158e565b926106d857611c48908661158e565b91600391808302928304036106d857611a75611c65928c9461164c565b998a81811115611c8d5790611c79916115a1565b1115611c885787905b01611be7565b611bf0565b611c96916115a1565b1115611c88578790611c82565b959697919981611cb9919c9a9c9692959661158e565b611cc387836115ce565b5190818d1b918083048614901517156106d8578c91611ce1916115ae565b999b999a929897969195949101611bff565b505050600090565b91611d0c60019161062785876115ce565b9201611baf565b919091600280841015611e6f57849060009160019584871b95858704841486151715611e5b5788929185915b858310611e035750505090611d539161158e565b92811b9084820414841517156106d857611d73611a1e91611d7a946115ae565b93866115ae565b908360005b60ff8110611d90575b505050505090565b85611d9f84611a4a838061158e565b906001600160ff1b03811681036106d8578691611a7585610c9089611dc595871b61164c565b968781811115611ded5790611dd9916115a1565b1115611de85784905b01611d7f565b611d88565b611df6916115a1565b1115611de8578490611de2565b9295919350919088838514611e535750611e2a8a611e24611b5187866115ce565b9761158e565b818a1b918083048714901517156106d8578991611e46916115ae565b935b019091899392611d3f565b909593611e48565b634e487b7160e01b85526011600452602485fd5b60405162461bcd60e51b815260206004820152601460248201527f6465763a20692061626f7665204e5f434f494e530000000000000000000000006044820152606490fdfea164736f6c6343000818000a",
  "devdoc": {
    "details": "This contract provides utility functions for retrieving information and calculating fees related to stable swaps with two coins.",
    "kind": "dev",
    "methods": {
      "PRECISION_MUL(address)": {
        "params": {
          "_swap": "Address of the stable swap contract"
        }
      },
      "RATES(address)": {
        "params": {
          "_swap": "Address of the stable swap contract"
        }
      },
      "_xp_mem(address,uint256[2])": {
        "params": {
          "_balances": "The array of balances to calculate virtual balances from."
        }
      },
      "balances(address)": {
        "params": {
          "_swap": "Address of the stable swap contract"
        }
      },
      "calc_coins_amount(address,uint256)": {
        "params": {
          "_amount": "Amount of LP tokens to burn in the withdrawal",
          "_swap": "Address of the stable swap contract"
        }
      },
      "get_D_mem(address,uint256[2],uint256)": {
        "params": {
          "_balances": "Array of balances to calculate virtual balances from.",
          "amp": "Amplification factor of the pool."
        }
      },
      "get_add_liquidity_fee(address,uint256[2])": {
        "params": {
          "_swap": "Address of the stable swap contract",
          "amounts": "Array of amounts for each coin being deposited"
        }
      },
      "get_add_liquidity_mint_amount(address,uint256[2])": {
        "params": {
          "_swap": "Address of the stable swap contract",
          "amounts": "Array of amounts for each coin being deposited"
        }
      },
      "get_dx(address,uint256,uint256,uint256,uint256)": {
        "params": {
          "_swap": ": Addresses of pool conracts .",
          "dy": ":  the given amount out",
          "i": ": the token index.",
          "j": ": the token index ",
          "max_dx": ": the maximum of amount in "
        }
      },
      "get_exchange_fee(address,uint256,uint256,uint256)": {
        "params": {
          "_swap": "Address of the stable swap contract",
          "dx": "Amount of token to swap from",
          "i": "Index of the token to swap from",
          "j": "Index of the token to swap to"
        },
        "returns": {
          "exAdminFee": "Admin fee for the swap",
          "exFee": "Exchange fee for the swap"
        }
      },
      "get_remove_liquidity_imbalance_fee(address,uint256[2])": {
        "params": {
          "_swap": "Address of the stable swap contract",
          "amounts": "Array of amounts for each coin being withdrawn"
        }
      },
      "get_remove_liquidity_one_coin_fee(address,uint256,uint256)": {
        "params": {
          "_swap": "Address of the stable swap contract",
          "_token_amount": "Amount of liquidity tokens being withdrawn",
          "i": "Index of the coin to withdraw"
        }
      },
      "token(address)": {
        "params": {
          "_swap": "Address of the stable swap contract"
        }
      }
    },
    "title": "StableSwapTwoPoolInfo",
    "version": 1
  },
  "userdoc": {
    "kind": "user",
    "methods": {
      "PRECISION_MUL(address)": {
        "notice": "Get the precision multipliers for each coin in the pool"
      },
      "RATES(address)": {
        "notice": "Get the exchange rates for each coin in the pool"
      },
      "_xp_mem(address,uint256[2])": {
        "notice": "Calculates the array of virtual balances for the pool, scaled by precision, using provided balances."
      },
      "balances(address)": {
        "notice": "Get the balances of each coin in the pool"
      },
      "calc_coins_amount(address,uint256)": {
        "notice": "Calculate the amount of each coin received when removing liquidity "
      },
      "get_D_mem(address,uint256[2],uint256)": {
        "notice": "Calculates the total value of the pool's assets (invariant D), given balances and amplification factor."
      },
      "get_add_liquidity_fee(address,uint256[2])": {
        "notice": "Calculate the fee charged when adding liquidity"
      },
      "get_add_liquidity_mint_amount(address,uint256[2])": {
        "notice": "Calculate the amount of LP token received when adding liquidity"
      },
      "get_dx(address,uint256,uint256,uint256,uint256)": {
        "notice": "get amountIn  with the given amount out  "
      },
      "get_exchange_fee(address,uint256,uint256,uint256)": {
        "notice": "Calculates the exchange fee and admin fee for a token swap"
      },
      "get_remove_liquidity_imbalance_fee(address,uint256[2])": {
        "notice": "Calculate the fee charged when removing liquidity"
      },
      "get_remove_liquidity_one_coin_fee(address,uint256,uint256)": {
        "notice": "Calculate the fee charged when removing liquidity for a single coin"
      },
      "token(address)": {
        "notice": "Get the LP token of the two pool"
      }
    },
    "notice": "Contract for retrieving information about stable swaps with two coins",
    "version": 1
  },
  "storageLayout": {
    "storage": [],
    "types": null
  }
}