{
  "address": "0x93Be1021366c15506C0c7daad550D2E4Ebc138a3",
  "abi": [
    {
      "inputs": [
        {
          "internalType": "address",
          "name": "_stableSwapFactory",
          "type": "address"
        },
        {
          "internalType": "address",
          "name": "_stableSwapInfo",
          "type": "address"
        }
      ],
      "stateMutability": "nonpayable",
      "type": "constructor"
    },
    {
      "anonymous": false,
      "inputs": [
        {
          "indexed": true,
          "internalType": "address",
          "name": "previousOwner",
          "type": "address"
        },
        {
          "indexed": true,
          "internalType": "address",
          "name": "newOwner",
          "type": "address"
        }
      ],
      "name": "OwnershipTransferred",
      "type": "event"
    },
    {
      "anonymous": false,
      "inputs": [
        {
          "indexed": true,
          "internalType": "address",
          "name": "factory",
          "type": "address"
        },
        {
          "indexed": true,
          "internalType": "address",
          "name": "info",
          "type": "address"
        }
      ],
      "name": "SetStableSwap",
      "type": "event"
    },
    {
      "anonymous": false,
      "inputs": [
        {
          "indexed": true,
          "internalType": "address",
          "name": "buyer",
          "type": "address"
        },
        {
          "indexed": false,
          "internalType": "uint256",
          "name": "amountIn",
          "type": "uint256"
        },
        {
          "indexed": true,
          "internalType": "address",
          "name": "token1",
          "type": "address"
        },
        {
          "indexed": false,
          "internalType": "uint256",
          "name": "amountOut",
          "type": "uint256"
        },
        {
          "indexed": true,
          "internalType": "address",
          "name": "token2",
          "type": "address"
        },
        {
          "indexed": false,
          "internalType": "address",
          "name": "recipient",
          "type": "address"
        }
      ],
      "name": "StableExchange",
      "type": "event"
    },
    {
      "inputs": [],
      "name": "ROSE",
      "outputs": [
        {
          "internalType": "address",
          "name": "",
          "type": "address"
        }
      ],
      "stateMutability": "view",
      "type": "function"
    },
    {
      "inputs": [],
      "name": "WROSE",
      "outputs": [
        {
          "internalType": "address",
          "name": "",
          "type": "address"
        }
      ],
      "stateMutability": "view",
      "type": "function"
    },
    {
      "inputs": [
        {
          "internalType": "address[]",
          "name": "path",
          "type": "address[]"
        },
        {
          "internalType": "uint256[]",
          "name": "flag",
          "type": "uint256[]"
        },
        {
          "internalType": "uint256",
          "name": "amountIn",
          "type": "uint256"
        },
        {
          "internalType": "uint256",
          "name": "amountOutMin",
          "type": "uint256"
        },
        {
          "internalType": "address",
          "name": "to",
          "type": "address"
        }
      ],
      "name": "exactInputStableSwap",
      "outputs": [
        {
          "internalType": "uint256",
          "name": "amountOut",
          "type": "uint256"
        }
      ],
      "stateMutability": "payable",
      "type": "function"
    },
    {
      "inputs": [
        {
          "internalType": "address[]",
          "name": "path",
          "type": "address[]"
        },
        {
          "internalType": "uint256[]",
          "name": "flag",
          "type": "uint256[]"
        },
        {
          "internalType": "uint256",
          "name": "amountOut",
          "type": "uint256"
        },
        {
          "internalType": "uint256",
          "name": "amountInMax",
          "type": "uint256"
        }
      ],
      "name": "getInputStableSwap",
      "outputs": [
        {
          "internalType": "uint256",
          "name": "amountIn",
          "type": "uint256"
        }
      ],
      "stateMutability": "view",
      "type": "function"
    },
    {
      "inputs": [
        {
          "internalType": "address[]",
          "name": "path",
          "type": "address[]"
        },
        {
          "internalType": "uint256[]",
          "name": "flag",
          "type": "uint256[]"
        },
        {
          "internalType": "uint256",
          "name": "amountIn",
          "type": "uint256"
        },
        {
          "internalType": "uint256",
          "name": "amountOutMin",
          "type": "uint256"
        }
      ],
      "name": "getOutputStableSwap",
      "outputs": [
        {
          "internalType": "uint256",
          "name": "amountOut",
          "type": "uint256"
        }
      ],
      "stateMutability": "view",
      "type": "function"
    },
    {
      "inputs": [],
      "name": "isKill",
      "outputs": [
        {
          "internalType": "bool",
          "name": "",
          "type": "bool"
        }
      ],
      "stateMutability": "view",
      "type": "function"
    },
    {
      "inputs": [],
      "name": "kill",
      "outputs": [],
      "stateMutability": "nonpayable",
      "type": "function"
    },
    {
      "inputs": [],
      "name": "owner",
      "outputs": [
        {
          "internalType": "address",
          "name": "",
          "type": "address"
        }
      ],
      "stateMutability": "view",
      "type": "function"
    },
    {
      "inputs": [],
      "name": "renounceOwnership",
      "outputs": [],
      "stateMutability": "nonpayable",
      "type": "function"
    },
    {
      "inputs": [
        {
          "internalType": "address",
          "name": "_factory",
          "type": "address"
        },
        {
          "internalType": "address",
          "name": "_info",
          "type": "address"
        }
      ],
      "name": "setStableSwap",
      "outputs": [],
      "stateMutability": "nonpayable",
      "type": "function"
    },
    {
      "inputs": [],
      "name": "stableSwapFactory",
      "outputs": [
        {
          "internalType": "address",
          "name": "",
          "type": "address"
        }
      ],
      "stateMutability": "view",
      "type": "function"
    },
    {
      "inputs": [],
      "name": "stableSwapInfo",
      "outputs": [
        {
          "internalType": "address",
          "name": "",
          "type": "address"
        }
      ],
      "stateMutability": "view",
      "type": "function"
    },
    {
      "inputs": [
        {
          "internalType": "address",
          "name": "newOwner",
          "type": "address"
        }
      ],
      "name": "transferOwnership",
      "outputs": [],
      "stateMutability": "nonpayable",
      "type": "function"
    },
    {
      "inputs": [],
      "name": "unKill",
      "outputs": [],
      "stateMutability": "nonpayable",
      "type": "function"
    },
    {
      "stateMutability": "payable",
      "type": "receive"
    }
  ],
  "transactionHash": "0x076a54f517ca78ee19f8a9cb596c9a7f3874c6238df26b8abcaafeb87b7bc302",
  "args": [
    "0x85E778c1Eeaee783E5f304F8cC8d82402490D2DB",
    "0x43BF204Eef9CD53dA4959A4E1b93937a530f54Ac"
  ],
  "numDeployments": 1,
  "solcInputHash": "c8c16bdf34dd16dea0419dbbb136c897",
  "bytecode": "0x6080346100ce57601f61147e38819003918201601f19168301916001600160401b038311848410176100d35780849260409485528339810103126100ce57610052602061004b836100e9565b92016100e9565b60008054336001600160a01b031980831682178455604051956001600160a01b039594919386939192908416907f8be0079c531659141344cd1fd0a4f28419497f9722a3daafe3b4186f6b6457e09080a360018055169060035416176003551660018060a81b0319600454161760045561138090816100fe8239f35b600080fd5b634e487b7160e01b600052604160045260246000fd5b51906001600160a01b03821682036100ce5756fe608080604052600436101561001d575b50361561001b57600080fd5b005b60003560e01c90816315b6dd8214610e4857508063191d30ae14610e2057806324dec03414610d8057806331b2cc4514610d5957806341c0e1b514610d1a57806357c7996114610cf3578063715018a614610c8d5780638da5cb5b14610c66578063904174f114610b33578063aa0ad5e1146109fa578063b4554231146101fc578063b85aa7af146101d5578063c7ef47d7146101af5763f2fde38b146100c4573861000f565b346101aa5760203660031901126101aa576100dd610e75565b6100e56110bc565b6001600160a01b0380911690811561013f576000548273ffffffffffffffffffffffffffffffffffffffff19821617600055167f8be0079c531659141344cd1fd0a4f28419497f9722a3daafe3b4186f6b6457e0600080a3005b60405162461bcd60e51b815260206004820152602660248201527f4f776e61626c653a206e6577206f776e657220697320746865207a65726f206160448201527f64647265737300000000000000000000000000000000000000000000000000006064820152608490fd5b600080fd5b346101aa5760003660031901126101aa57602060ff60045460a01c166040519015158152f35b346101aa5760003660031901126101aa5760206001600160a01b0360045416604051908152f35b60a03660031901126101aa5767ffffffffffffffff6004358181116101aa57610229903690600401610e9f565b90916024359081116101aa57610243903690600401610e9f565b92608435926001600160a01b03841684036101aa576002600154146109b5576002600155839060443560ff60045460a01c1661097057811561095a57610288846110a8565b9282600019810111610695576102ab6102a660001985018588611098565b6110a8565b936000604435156108bd575b15610832575b506102c783610f6f565b976102d5604051998a610f4d565b83895260208901368560051b8801116101aa5786905b8560051b8801821061081a57505061030281610f6f565b966103106040519889610f4d565b8188526020880190368360051b8201116101aa5780915b8360051b8201831061080a575050505087516000198101908111610695578651036101aa5760005b86518110156106ab576001600160a01b0361036a828b611084565b511690600181018111610695576001600160a01b0361038c600183018c611084565b51166001600160a01b0360035416906103a5838b611084565b51906040519263b735aecd60e01b8452600484015284602484015260448301526064820152606081608481736ddBFDee4Fe0B1A3415C0cc309A335ad2475811c5af490811561053e57600091600091600091610643575b5073eeeeeeeeeeeeeeeeeeeeeeeeeeeeeeeeeeeeeeee85146105d8575b73eeeeeeeeeeeeeeeeeeeeeeeeeeeeeeeeeeeeeeee8503610442575b505050600191500161034f565b6040516370a0823160e01b815230600482015294602086602481845afa95861561053e576000966105a3575b5060405163095ea7b360e01b602082019081526001600160a01b038416602483015260448201889052600092839290919083906104b881606481015b03601f198101835282610f4d565b51925af16104c461131b565b81610574575b501561054a576001600160a01b0381163b156101aa57600092836001600160a01b036084936040519889968795630b68372160e31b8752600487015260248601526044850152826064850152165af191821561053e5760019261052f575b8080610435565b61053890610f23565b8a610528565b6040513d6000823e3d90fd5b60405162461bcd60e51b8152602060048201526002602482015261534160f01b6044820152606490fd5b8051801592508215610589575b50508e6104ca565b61059c925060208091830101910161135b565b8e80610581565b9095506020813d6020116105d0575b816105bf60209383610f4d565b810103126101aa575194600061046e565b3d91506105b2565b476001600160a01b0382163b156101aa57600060849160405192838092630b68372160e31b82528860048301528760248301528060448301528460648301526001600160a01b0387165af1801561053e57610634575b50610419565b61063d90610f23565b8d61062e565b925050506060813d60601161068d575b8161066060609383610f4d565b810103126101aa57805160406020830151920151906001600160a01b03821682036101aa5791908d6103fc565b3d9150610653565b634e487b7160e01b600052601160045260246000fd5b50866001600160a01b03851673eeeeeeeeeeeeeeeeeeeeeeeeeeeeeeeeeeeeeeee81036107a4575047945b60643586106101aa576020966001600160a01b039384938085166001036107825750506102a66107289133935b898686169530870361076f575b50505061071c816110a8565b97600019810191611098565b9060405194855286888601526040850152169216907f813e980c7d6e80d4a991ca81010827af0ccda6cc436935598108dfe2df67a31060603392a460018055604051908152f35b61077a923090611114565b8a8981610710565b909290841660021461079c575b610728916102a691610703565b30925061078f565b6020602491604051928380926370a0823160e01b82523060048301525afa90811561053e576000916107d8575b50946106d6565b90506020813d602011610802575b816107f360209383610f4d565b810103126101aa5751876107d1565b3d91506107e6565b8235815260209283019201610327565b6020809161082784610e8b565b8152019101906102eb565b826001600160a01b03821673eeeeeeeeeeeeeeeeeeeeeeeeeeeeeeeeeeeeeeee036108ab5790503403610866575b886102bd565b60405162461bcd60e51b815260206004820152601160248201527f496e76616c6964206d73672e76616c75650000000000000000000000000000006044820152606490fd5b6108b89130903390611114565b610860565b50600192506001600160a01b03811673eeeeeeeeeeeeeeeeeeeeeeeeeeeeeeeeeeeeeeee036108ed5747926102b7565b6040516370a0823160e01b81523060048201526020816024816001600160a01b0386165afa90811561053e57600091610928575b50926102b7565b90506020813d602011610952575b8161094360209383610f4d565b810103126101aa57518a610921565b3d9150610936565b634e487b7160e01b600052603260045260246000fd5b60405162461bcd60e51b815260206004820152601260248201527f436f6e7472616374206973206b696c6c656400000000000000000000000000006044820152606490fd5b60405162461bcd60e51b815260206004820152601f60248201527f5265656e7472616e637947756172643a207265656e7472616e742063616c6c006044820152606490fd5b346101aa576000610a6a610a0d36610ed0565b969493959091926001600160a01b0393610a588560035416956004541696604051998a988998635923cab360e01b8a5260048a0152602489015260a0604489015260a4880191611001565b85810360031901606487015291611047565b9060848301520381736ddBFDee4Fe0B1A3415C0cc309A335ad2475811c5af490811561053e57600091610b10575b5080511561095a5760200151908111610ab657602090604051908152f35b60405162461bcd60e51b815260206004820152602c60248201527f54686520616d6f756e74206f6620746f6b656e2069732067726561746572207460448201526b1a185b88195e1c1958dd195960a21b6064820152608490fd5b610b2d91503d806000833e610b258183610f4d565b810190610f87565b82610a98565b346101aa576000610b86610b98610b4936610ed0565b979493959091926001600160a01b03600354169360405198899687966386be32f960e01b8852600488015260806024880152896084880191611001565b85810360031901604487015291611047565b9060648301520381736ddBFDee4Fe0B1A3415C0cc309A335ad2475811c5af491821561053e57600092610c49575b50600019810190811161069557610bdc91611084565b51908110610bef57602090604051908152f35b60405162461bcd60e51b815260206004820152602c60248201527f54686520616d6f756e74206f6620746f6b656e20697320736d616c6c6572207460448201526b1a185b88195e1c1958dd195960a21b6064820152608490fd5b610c5f9192503d806000833e610b258183610f4d565b9083610bc6565b346101aa5760003660031901126101aa5760206001600160a01b0360005416604051908152f35b346101aa5760003660031901126101aa57610ca66110bc565b60006001600160a01b03815473ffffffffffffffffffffffffffffffffffffffff1981168355167f8be0079c531659141344cd1fd0a4f28419497f9722a3daafe3b4186f6b6457e08280a3005b346101aa5760003660031901126101aa5760206001600160a01b0360035416604051908152f35b346101aa5760003660031901126101aa57610d336110bc565b6004805460ff60a01b191674010000000000000000000000000000000000000000179055005b346101aa5760003660031901126101aa5760206001600160a01b0360025416604051908152f35b346101aa5760403660031901126101aa57610d99610e75565b602435906001600160a01b03908183168093036101aa57610db86110bc565b1680151580610e17575b156101aa578173ffffffffffffffffffffffffffffffffffffffff198281600354161760035560045416176004557f26e41379222b54b0470031bc11852ad23058ffb8983f7cc0e18257d6f7afca9d600080a3005b50811515610dc2565b346101aa5760003660031901126101aa57610e396110bc565b6004805460ff60a01b19169055005b346101aa5760003660031901126101aa578073eeeeeeeeeeeeeeeeeeeeeeeeeeeeeeeeeeeeeeee60209252f35b600435906001600160a01b03821682036101aa57565b35906001600160a01b03821682036101aa57565b9181601f840112156101aa5782359167ffffffffffffffff83116101aa576020808501948460051b0101116101aa57565b60806003198201126101aa5767ffffffffffffffff916004358381116101aa5782610efd91600401610e9f565b939093926024359182116101aa57610f1791600401610e9f565b90916044359060643590565b67ffffffffffffffff8111610f3757604052565b634e487b7160e01b600052604160045260246000fd5b90601f8019910116810190811067ffffffffffffffff821117610f3757604052565b67ffffffffffffffff8111610f375760051b60200190565b60209081818403126101aa5780519067ffffffffffffffff82116101aa57019180601f840112156101aa578251610fbd81610f6f565b93610fcb6040519586610f4d565b818552838086019260051b8201019283116101aa578301905b828210610ff2575050505090565b81518152908301908301610fe4565b91908082526020809201929160005b82811061101e575050505090565b9091929382806001926001600160a01b0361103889610e8b565b16815201950193929101611010565b90918281527f07ffffffffffffffffffffffffffffffffffffffffffffffffffffffffffffff83116101aa5760209260051b809284830137010190565b805182101561095a5760209160051b010190565b919081101561095a5760051b0190565b356001600160a01b03811681036101aa5790565b6001600160a01b036000541633036110d057565b606460405162461bcd60e51b815260206004820152602060248201527f4f776e61626c653a2063616c6c6572206973206e6f7420746865206f776e65726044820152fd5b906001600160a01b0390811630810361125c5750811673eeeeeeeeeeeeeeeeeeeeeeeeeeeeeeeeeeeeeeee036111ad5750604051602081019080821067ffffffffffffffff831117610f37576000938493848094938194604052525af161117961131b565b5015611182575b565b60405162461bcd60e51b815260206004820152600360248201526253544560e81b6044820152606490fd5b60405163a9059cbb60e01b602082019081526001600160a01b039093166024820152604481019390935260009283929083906111ec81606481016104aa565b51925af16111f861131b565b8161122d575b506111805760405162461bcd60e51b815260206004820152600260248201526114d560f21b6044820152606490fd5b8051801592508215611242575b5050386111fe565b611255925060208091830101910161135b565b388061123a565b93906040519360208501956323b872dd60e01b8752602486015216604484015260648301526064825260a082019282841067ffffffffffffffff851117610f37576000809493819460405251925af16112b361131b565b816112ec575b50156112c157565b60405162461bcd60e51b815260206004820152600360248201526229aa2360e91b6044820152606490fd5b8051801592508215611301575b5050386112b9565b611314925060208091830101910161135b565b38806112f9565b3d15611356573d9067ffffffffffffffff8211610f37576040519161134a601f8201601f191660200184610f4d565b82523d6000602084013e565b606090565b908160209103126101aa575180151581036101aa579056fea164736f6c6343000818000a",
  "deployedBytecode": "0x608080604052600436101561001d575b50361561001b57600080fd5b005b60003560e01c90816315b6dd8214610e4857508063191d30ae14610e2057806324dec03414610d8057806331b2cc4514610d5957806341c0e1b514610d1a57806357c7996114610cf3578063715018a614610c8d5780638da5cb5b14610c66578063904174f114610b33578063aa0ad5e1146109fa578063b4554231146101fc578063b85aa7af146101d5578063c7ef47d7146101af5763f2fde38b146100c4573861000f565b346101aa5760203660031901126101aa576100dd610e75565b6100e56110bc565b6001600160a01b0380911690811561013f576000548273ffffffffffffffffffffffffffffffffffffffff19821617600055167f8be0079c531659141344cd1fd0a4f28419497f9722a3daafe3b4186f6b6457e0600080a3005b60405162461bcd60e51b815260206004820152602660248201527f4f776e61626c653a206e6577206f776e657220697320746865207a65726f206160448201527f64647265737300000000000000000000000000000000000000000000000000006064820152608490fd5b600080fd5b346101aa5760003660031901126101aa57602060ff60045460a01c166040519015158152f35b346101aa5760003660031901126101aa5760206001600160a01b0360045416604051908152f35b60a03660031901126101aa5767ffffffffffffffff6004358181116101aa57610229903690600401610e9f565b90916024359081116101aa57610243903690600401610e9f565b92608435926001600160a01b03841684036101aa576002600154146109b5576002600155839060443560ff60045460a01c1661097057811561095a57610288846110a8565b9282600019810111610695576102ab6102a660001985018588611098565b6110a8565b936000604435156108bd575b15610832575b506102c783610f6f565b976102d5604051998a610f4d565b83895260208901368560051b8801116101aa5786905b8560051b8801821061081a57505061030281610f6f565b966103106040519889610f4d565b8188526020880190368360051b8201116101aa5780915b8360051b8201831061080a575050505087516000198101908111610695578651036101aa5760005b86518110156106ab576001600160a01b0361036a828b611084565b511690600181018111610695576001600160a01b0361038c600183018c611084565b51166001600160a01b0360035416906103a5838b611084565b51906040519263b735aecd60e01b845260048401528460248401526044830152606482015260608160848173__$d75017e8592c813c72614beebf2a3b9fe6$__5af490811561053e57600091600091600091610643575b5073eeeeeeeeeeeeeeeeeeeeeeeeeeeeeeeeeeeeeeee85146105d8575b73eeeeeeeeeeeeeeeeeeeeeeeeeeeeeeeeeeeeeeee8503610442575b505050600191500161034f565b6040516370a0823160e01b815230600482015294602086602481845afa95861561053e576000966105a3575b5060405163095ea7b360e01b602082019081526001600160a01b038416602483015260448201889052600092839290919083906104b881606481015b03601f198101835282610f4d565b51925af16104c461131b565b81610574575b501561054a576001600160a01b0381163b156101aa57600092836001600160a01b036084936040519889968795630b68372160e31b8752600487015260248601526044850152826064850152165af191821561053e5760019261052f575b8080610435565b61053890610f23565b8a610528565b6040513d6000823e3d90fd5b60405162461bcd60e51b8152602060048201526002602482015261534160f01b6044820152606490fd5b8051801592508215610589575b50508e6104ca565b61059c925060208091830101910161135b565b8e80610581565b9095506020813d6020116105d0575b816105bf60209383610f4d565b810103126101aa575194600061046e565b3d91506105b2565b476001600160a01b0382163b156101aa57600060849160405192838092630b68372160e31b82528860048301528760248301528060448301528460648301526001600160a01b0387165af1801561053e57610634575b50610419565b61063d90610f23565b8d61062e565b925050506060813d60601161068d575b8161066060609383610f4d565b810103126101aa57805160406020830151920151906001600160a01b03821682036101aa5791908d6103fc565b3d9150610653565b634e487b7160e01b600052601160045260246000fd5b50866001600160a01b03851673eeeeeeeeeeeeeeeeeeeeeeeeeeeeeeeeeeeeeeee81036107a4575047945b60643586106101aa576020966001600160a01b039384938085166001036107825750506102a66107289133935b898686169530870361076f575b50505061071c816110a8565b97600019810191611098565b9060405194855286888601526040850152169216907f813e980c7d6e80d4a991ca81010827af0ccda6cc436935598108dfe2df67a31060603392a460018055604051908152f35b61077a923090611114565b8a8981610710565b909290841660021461079c575b610728916102a691610703565b30925061078f565b6020602491604051928380926370a0823160e01b82523060048301525afa90811561053e576000916107d8575b50946106d6565b90506020813d602011610802575b816107f360209383610f4d565b810103126101aa5751876107d1565b3d91506107e6565b8235815260209283019201610327565b6020809161082784610e8b565b8152019101906102eb565b826001600160a01b03821673eeeeeeeeeeeeeeeeeeeeeeeeeeeeeeeeeeeeeeee036108ab5790503403610866575b886102bd565b60405162461bcd60e51b815260206004820152601160248201527f496e76616c6964206d73672e76616c75650000000000000000000000000000006044820152606490fd5b6108b89130903390611114565b610860565b50600192506001600160a01b03811673eeeeeeeeeeeeeeeeeeeeeeeeeeeeeeeeeeeeeeee036108ed5747926102b7565b6040516370a0823160e01b81523060048201526020816024816001600160a01b0386165afa90811561053e57600091610928575b50926102b7565b90506020813d602011610952575b8161094360209383610f4d565b810103126101aa57518a610921565b3d9150610936565b634e487b7160e01b600052603260045260246000fd5b60405162461bcd60e51b815260206004820152601260248201527f436f6e7472616374206973206b696c6c656400000000000000000000000000006044820152606490fd5b60405162461bcd60e51b815260206004820152601f60248201527f5265656e7472616e637947756172643a207265656e7472616e742063616c6c006044820152606490fd5b346101aa576000610a6a610a0d36610ed0565b969493959091926001600160a01b0393610a588560035416956004541696604051998a988998635923cab360e01b8a5260048a0152602489015260a0604489015260a4880191611001565b85810360031901606487015291611047565b906084830152038173__$d75017e8592c813c72614beebf2a3b9fe6$__5af490811561053e57600091610b10575b5080511561095a5760200151908111610ab657602090604051908152f35b60405162461bcd60e51b815260206004820152602c60248201527f54686520616d6f756e74206f6620746f6b656e2069732067726561746572207460448201526b1a185b88195e1c1958dd195960a21b6064820152608490fd5b610b2d91503d806000833e610b258183610f4d565b810190610f87565b82610a98565b346101aa576000610b86610b98610b4936610ed0565b979493959091926001600160a01b03600354169360405198899687966386be32f960e01b8852600488015260806024880152896084880191611001565b85810360031901604487015291611047565b906064830152038173__$d75017e8592c813c72614beebf2a3b9fe6$__5af491821561053e57600092610c49575b50600019810190811161069557610bdc91611084565b51908110610bef57602090604051908152f35b60405162461bcd60e51b815260206004820152602c60248201527f54686520616d6f756e74206f6620746f6b656e20697320736d616c6c6572207460448201526b1a185b88195e1c1958dd195960a21b6064820152608490fd5b610c5f9192503d806000833e610b258183610f4d565b9083610bc6565b346101aa5760003660031901126101aa5760206001600160a01b0360005416604051908152f35b346101aa5760003660031901126101aa57610ca66110bc565b60006001600160a01b03815473ffffffffffffffffffffffffffffffffffffffff1981168355167f8be0079c531659141344cd1fd0a4f28419497f9722a3daafe3b4186f6b6457e08280a3005b346101aa5760003660031901126101aa5760206001600160a01b0360035416604051908152f35b346101aa5760003660031901126101aa57610d336110bc565b6004805460ff60a01b191674010000000000000000000000000000000000000000179055005b346101aa5760003660031901126101aa5760206001600160a01b0360025416604051908152f35b346101aa5760403660031901126101aa57610d99610e75565b602435906001600160a01b03908183168093036101aa57610db86110bc565b1680151580610e17575b156101aa578173ffffffffffffffffffffffffffffffffffffffff198281600354161760035560045416176004557f26e41379222b54b0470031bc11852ad23058ffb8983f7cc0e18257d6f7afca9d600080a3005b50811515610dc2565b346101aa5760003660031901126101aa57610e396110bc565b6004805460ff60a01b19169055005b346101aa5760003660031901126101aa578073eeeeeeeeeeeeeeeeeeeeeeeeeeeeeeeeeeeeeeee60209252f35b600435906001600160a01b03821682036101aa57565b35906001600160a01b03821682036101aa57565b9181601f840112156101aa5782359167ffffffffffffffff83116101aa576020808501948460051b0101116101aa57565b60806003198201126101aa5767ffffffffffffffff916004358381116101aa5782610efd91600401610e9f565b939093926024359182116101aa57610f1791600401610e9f565b90916044359060643590565b67ffffffffffffffff8111610f3757604052565b634e487b7160e01b600052604160045260246000fd5b90601f8019910116810190811067ffffffffffffffff821117610f3757604052565b67ffffffffffffffff8111610f375760051b60200190565b60209081818403126101aa5780519067ffffffffffffffff82116101aa57019180601f840112156101aa578251610fbd81610f6f565b93610fcb6040519586610f4d565b818552838086019260051b8201019283116101aa578301905b828210610ff2575050505090565b81518152908301908301610fe4565b91908082526020809201929160005b82811061101e575050505090565b9091929382806001926001600160a01b0361103889610e8b565b16815201950193929101611010565b90918281527f07ffffffffffffffffffffffffffffffffffffffffffffffffffffffffffffff83116101aa5760209260051b809284830137010190565b805182101561095a5760209160051b010190565b919081101561095a5760051b0190565b356001600160a01b03811681036101aa5790565b6001600160a01b036000541633036110d057565b606460405162461bcd60e51b815260206004820152602060248201527f4f776e61626c653a2063616c6c6572206973206e6f7420746865206f776e65726044820152fd5b906001600160a01b0390811630810361125c5750811673eeeeeeeeeeeeeeeeeeeeeeeeeeeeeeeeeeeeeeee036111ad5750604051602081019080821067ffffffffffffffff831117610f37576000938493848094938194604052525af161117961131b565b5015611182575b565b60405162461bcd60e51b815260206004820152600360248201526253544560e81b6044820152606490fd5b60405163a9059cbb60e01b602082019081526001600160a01b039093166024820152604481019390935260009283929083906111ec81606481016104aa565b51925af16111f861131b565b8161122d575b506111805760405162461bcd60e51b815260206004820152600260248201526114d560f21b6044820152606490fd5b8051801592508215611242575b5050386111fe565b611255925060208091830101910161135b565b388061123a565b93906040519360208501956323b872dd60e01b8752602486015216604484015260648301526064825260a082019282841067ffffffffffffffff851117610f37576000809493819460405251925af16112b361131b565b816112ec575b50156112c157565b60405162461bcd60e51b815260206004820152600360248201526229aa2360e91b6044820152606490fd5b8051801592508215611301575b5050386112b9565b611314925060208091830101910161135b565b38806112f9565b3d15611356573d9067ffffffffffffffff8211610f37576040519161134a601f8201601f191660200184610f4d565b82523d6000602084013e565b606090565b908160209103126101aa575180151581036101aa579056fea164736f6c6343000818000a",
  "libraries": {
    "SmartRouterHelper": "0x6ddBFDee4Fe0B1A3415C0cc309A335ad2475811c"
  },
  "devdoc": {
    "details": "This contract manages stable swap functionality, including executing swaps and caculating swap amounts",
    "kind": "dev",
    "methods": {
      "exactInputStableSwap(address[],uint256[],uint256,uint256,address)": {
        "params": {
          "amountIn": "Amount of the input token to be exchanged.",
          "amountOutMin": "Minimum expected amount of output tokens.",
          "flag": "Flag indicating the pool type. Use '2' for a 2-pool, '3' for a 3-pool.",
          "path": "Array of token addresses in a stable swap pool.",
          "to": "Recipient address to receive the exchanged tokens."
        }
      },
      "getInputStableSwap(address[],uint256[],uint256,uint256)": {
        "params": {
          "amountInMax": "Maximum expected amount of output tokens.",
          "amountOut": "Amount of the redeemed token .",
          "flag": "Flag indicating the pool type. Use '2' for a 2-pool, '3' for a 3-pool.",
          "path": "Array of token addresses in a stable swap pool."
        }
      },
      "getOutputStableSwap(address[],uint256[],uint256,uint256)": {
        "params": {
          "amountIn": "Amount of the exchanged token .",
          "amountOutMin": "Minimum expected amount of output tokens.",
          "flag": "Flag indicating the pool type. Use '2' for a 2-pool, '3' for a 3-pool.",
          "path": "Array of token addresses in a stable swap pool."
        }
      },
      "owner()": {
        "details": "Returns the address of the current owner."
      },
      "renounceOwnership()": {
        "details": "Leaves the contract without owner. It will not be possible to call `onlyOwner` functions. Can only be called by the current owner. NOTE: Renouncing ownership will leave the contract without an owner, thereby disabling any functionality that is only available to the owner."
      },
      "setStableSwap(address,address)": {
        "details": "Only callable by contract owner"
      },
      "transferOwnership(address)": {
        "details": "Transfers ownership of the contract to a new account (`newOwner`). Can only be called by the current owner."
      }
    },
    "title": "Stable Swap Router",
    "version": 1
  },
  "userdoc": {
    "kind": "user",
    "methods": {
      "setStableSwap(address,address)": {
        "notice": "Set Stable Swap Factory and Info"
      }
    },
    "notice": "A router contract for excuting stable swaps between different stablecoins pairs through mutiple pools         It allows users to swap stable coins efficiently",
    "version": 1
  },
  "storageLayout": {
    "storage": [
      {
        "astId": 7,
        "contract": "contracts/StableSwapRouter.sol:StableSwapRouter",
        "label": "_owner",
        "offset": 0,
        "slot": "0",
        "type": "t_address"
      },
      {
        "astId": 123,
        "contract": "contracts/StableSwapRouter.sol:StableSwapRouter",
        "label": "_status",
        "offset": 0,
        "slot": "1",
        "type": "t_uint256"
      },
      {
        "astId": 306,
        "contract": "contracts/StableSwapRouter.sol:StableSwapRouter",
        "label": "WROSE",
        "offset": 0,
        "slot": "2",
        "type": "t_address"
      },
      {
        "astId": 308,
        "contract": "contracts/StableSwapRouter.sol:StableSwapRouter",
        "label": "stableSwapFactory",
        "offset": 0,
        "slot": "3",
        "type": "t_address"
      },
      {
        "astId": 310,
        "contract": "contracts/StableSwapRouter.sol:StableSwapRouter",
        "label": "stableSwapInfo",
        "offset": 0,
        "slot": "4",
        "type": "t_address"
      },
      {
        "astId": 315,
        "contract": "contracts/StableSwapRouter.sol:StableSwapRouter",
        "label": "isKill",
        "offset": 20,
        "slot": "4",
        "type": "t_bool"
      }
    ],
    "types": {
      "t_address": {
        "encoding": "inplace",
        "label": "address",
        "numberOfBytes": "20"
      },
      "t_bool": {
        "encoding": "inplace",
        "label": "bool",
        "numberOfBytes": "1"
      },
      "t_uint256": {
        "encoding": "inplace",
        "label": "uint256",
        "numberOfBytes": "32"
      }
    }
  }
}