{
  "address": "0x20973dfFa9Ee32b03f4a5e3c5A686B48FF63b1B1",
  "abi": [
    {
      "inputs": [],
      "stateMutability": "nonpayable",
      "type": "constructor"
    },
    {
      "anonymous": false,
      "inputs": [
        {
          "indexed": true,
          "internalType": "address",
          "name": "previousOwner",
          "type": "address"
        },
        {
          "indexed": true,
          "internalType": "address",
          "name": "newOwner",
          "type": "address"
        }
      ],
      "name": "OwnershipTransferred",
      "type": "event"
    },
    {
      "inputs": [],
      "name": "N_COINS",
      "outputs": [
        {
          "internalType": "uint256",
          "name": "",
          "type": "uint256"
        }
      ],
      "stateMutability": "view",
      "type": "function"
    },
    {
      "inputs": [
        {
          "internalType": "address",
          "name": "_tokenA",
          "type": "address"
        },
        {
          "internalType": "address",
          "name": "_tokenB",
          "type": "address"
        },
        {
          "internalType": "uint256",
          "name": "_A",
          "type": "uint256"
        },
        {
          "internalType": "uint256",
          "name": "_fee",
          "type": "uint256"
        },
        {
          "internalType": "uint256",
          "name": "_admin_fee",
          "type": "uint256"
        },
        {
          "internalType": "address",
          "name": "_admin",
          "type": "address"
        },
        {
          "internalType": "address",
          "name": "_LP",
          "type": "address"
        }
      ],
      "name": "createSwapPair",
      "outputs": [
        {
          "internalType": "address",
          "name": "",
          "type": "address"
        }
      ],
      "stateMutability": "nonpayable",
      "type": "function"
    },
    {
      "inputs": [],
      "name": "owner",
      "outputs": [
        {
          "internalType": "address",
          "name": "",
          "type": "address"
        }
      ],
      "stateMutability": "view",
      "type": "function"
    },
    {
      "inputs": [],
      "name": "renounceOwnership",
      "outputs": [],
      "stateMutability": "nonpayable",
      "type": "function"
    },
    {
      "inputs": [
        {
          "internalType": "address",
          "name": "newOwner",
          "type": "address"
        }
      ],
      "name": "transferOwnership",
      "outputs": [],
      "stateMutability": "nonpayable",
      "type": "function"
    }
  ],
  "transactionHash": "0x791b0b6ed4171b217263966c72ce5c8f5b9ec09ed659a279fa600d413cf0f339",
  "args": [],
  "numDeployments": 1,
  "solcInputHash": "1829c01f17cf3f9febab972c66c3c9e3",
  "bytecode": "0x6080806040523461005b5760008054336001600160a01b0319821681178355916001600160a01b03909116907f8be0079c531659141344cd1fd0a4f28419497f9722a3daafe3b4186f6b6457e09080a361416190816100618239f35b600080fdfe6080604052600436101561001257600080fd5b6000803560e01c90816329357750146100cd578163715018a614610065575080638da5cb5b146100605780639013148d1461005b5763f2fde38b1461005657600080fd5b610331565b610177565b6100f8565b346100ca57806003193601126100ca5761007d610558565b806001600160a01b03815473ffffffffffffffffffffffffffffffffffffffff1981168355167f8be0079c531659141344cd1fd0a4f28419497f9722a3daafe3b4186f6b6457e08280a380f35b80fd5b346100ca57806003193601126100ca57600260805260206080f35b60009103126100f357565b600080fd5b346100f35760003660031901126100f35760206001600160a01b0360005416604051908152f35b600435906001600160a01b03821682036100f357565b602435906001600160a01b03821682036100f357565b60a435906001600160a01b03821682036100f357565b60c435906001600160a01b03821682036100f357565b346100f35760e03660031901126100f35761019061011f565b610198610135565b906101a161014b565b916101e06101ad610161565b916101b6610558565b6001600160a01b03936101db8582168015159081610325575b81610318575b50610417565b6105b0565b91906101ea6104b4565b6001600160a01b0382168152926001600160a01b0381166020850152613b3d9061027561028361021c602085016104d4565b94848652602086019461061886396040516bffffffffffffffffffffffff19606092831b81166020830190815295831b811660348301523390921b909116604882015242605c82015246607c820152918290609c820190565b03601f198101835282610492565b5190209151906000f5928316803b156100f3576102c7946000809460405197889586948593634239b1c160e01b8552608435906064359060443590600488016104e4565b03925af1918215610313576102f6926102fa575b506040516001600160a01b0390911681529081906020820190565b0390f35b8061030761030d92610479565b806100e8565b386102db565b61054c565b90508684161415386101d5565b848816151591506101cf565b346100f35760203660031901126100f35761034a61011f565b610352610558565b6001600160a01b0380911680156103ac5760009182548273ffffffffffffffffffffffffffffffffffffffff198216178455167f8be0079c531659141344cd1fd0a4f28419497f9722a3daafe3b4186f6b6457e08380a380f35b60405162461bcd60e51b815260206004820152602660248201527f4f776e61626c653a206e6577206f776e657220697320746865207a65726f206160448201527f64647265737300000000000000000000000000000000000000000000000000006064820152608490fd5b1561041e57565b60405162461bcd60e51b815260206004820152600d60248201527f496c6c6567616c20746f6b656e000000000000000000000000000000000000006044820152606490fd5b634e487b7160e01b600052604160045260246000fd5b67ffffffffffffffff811161048d57604052565b610463565b90601f8019910116810190811067ffffffffffffffff82111761048d57604052565b604051906040820182811067ffffffffffffffff82111761048d57604052565b906104e26040519283610492565b565b939096949295919560e085019685986000995b60028b1061052c5750506040860152606085015260808401526001600160a01b0391821660a08401521660c090910152909150565b6001906001600160a01b038351168152602080910192019a0199906104f7565b6040513d6000823e3d90fd5b6001600160a01b0360005416330361056c57565b606460405162461bcd60e51b815260206004820152602060248201527f4f776e61626c653a2063616c6c6572206973206e6f7420746865206f776e65726044820152fd5b6001600160a01b038083169082168181146105d25710156105ce5791565b9091565b60405162461bcd60e51b815260206004820152601360248201527f4944454e544943414c5f414444524553534553000000000000000000000000006044820152606490fdfe60a080604052346100795760008054336001600160a01b0319821681178355916001600160a01b03909116907f8be0079c531659141344cd1fd0a4f28419497f9722a3daafe3b4186f6b6457e09080a360018055610fbd600c5533608052613abe908161007f8239608051818181610e700152611b130152f35b600080fdfe608080604052600436101561001357600080fd5b600090813560e01c90816306e9481c14612951575080630b4c7e4d146125315780631405228814612513578063193d983f146124f65780632081066c146124d8578063226840fb14612494578063270271a8146123e357806329357750146123c75780632a426896146123a95780633046f9721461235f57806330c540851461223e578063392e53cd1461221857806339698415146121fa5780633c157e6414611fc6578063405e28f814611fa85780634239b1c114611a955780634903b0d114611a685780634f12fe971461198d5780634fb08c5e1461196a578063524c39011461186e5780635409491a14611850578063556d6e9f1461177557806358680d0b146117575780635b36389c146114c75780635b41b908146111f45780635b5a14671461108e57806362203d74146110615780636d4366b714611045578063715018a614610fde5780637dafa36414610fad57806385f11d1e14610edd5780638da5cb5b14610eb75780639c868ac014610e94578063a6b0a71814610e50578063a97e1c9214610e33578063aaf5eb6814610e10578063ab5ac06114610df4578063b2b8a2c514610dd6578063b4b577ad14610db8578063bb7b8b8014610cec578063bc063e1a14610ccc578063c661065714610c95578063ca8ca15414610c32578063d73792a914610309578063ddca3f4314610c14578063e2e7d26414610bf5578063e3103273146107b0578063e369885314610714578063e3824462146106f6578063e5d9e903146106d8578063ed8e84f31461056b578063edfb78011461054d578063f1dc3cc9146103bd578063f2fde38b1461030e578063f3de036214610309578063f446c1d0146102e6578063fc0c546a146102bf5763fee3f7f91461029f57600080fd5b346102bc57806003193601126102bc576020600b54604051908152f35b80fd5b50346102bc57806003193601126102bc5760206001600160a01b03600d5416604051908152f35b50346102bc57806003193601126102bc576020610301612dee565b604051908152f35b612a48565b50346102bc5760203660031901126102bc576004356001600160a01b0381168082036103b85761033c612e65565b1561034d5761034a906134b5565b80f35b60405162461bcd60e51b815260206004820152602660248201527f4f776e61626c653a206e6577206f776e657220697320746865207a65726f206160448201527f64647265737300000000000000000000000000000000000000000000000000006064820152608490fd5b600080fd5b50346102bc576103cc36612a2e565b90916103d6612d98565b6103e560ff6016541615612a68565b6103ef8382612f79565b90928310610508576402540be40061040d61041492600b5490612b00565b0483612be7565b60028410156104f45761042c84600801918254612b29565b90556001600160a01b0380600d5416803b156104f05760405163079cc67960e41b81523360048201526024810184905290869081908390604490829084905af19182156104e35785926104c8575b505061048b91856006015416612ebd565b604051928352602083015260408201527f5ad056f2e28a8cec232015406b843668c1e36cda598127ec3b8c59b8c72773a060603392a26001805580f35b6104d39192506129a0565b6104df5782853861047a565b8480fd5b50604051903d90823e3d90fd5b8580fd5b634e487b7160e01b85526032600452602485fd5b60405162461bcd60e51b815260206004820152601860248201527f4e6f7420656e6f75676820636f696e732072656d6f76656400000000000000006044820152606490fd5b50346102bc57806003193601126102bc576020604051624f1a008152f35b50346102bc5760603660031901126102bc57610586366129d6565b60443580151581036106d45761059a612b56565b6105a2612dee565b906105b5826105b083613400565b61350a565b93855b6002811061066d575050600492916105b06105d292613400565b9360206001600160a01b03600d5416604051948580926318160ddd60e01b82525afa9283156104e3578193610636575b5091602094846106279361030196955060001461062c5761062291612b29565b612b00565b612b36565b9061062291612b29565b9392506020843d602011610665575b81610652602093836129b4565b810103126103b857925191926020610602565b3d9150610645565b60019085156106a6576106946106838285612bc0565b5161068e8387612bc0565b51612be7565b61069e8286612bc0565b525b016105b8565b6106c46106b38285612bc0565b516106be8387612bc0565b51612b29565b6106ce8286612bc0565b526106a0565b8280fd5b50346102bc57806003193601126102bc5760206040516203f4808152f35b50346102bc57806003193601126102bc576020601454604051908152f35b50346102bc57806003193601126102bc5761072d612e65565b60155442101561076b57600160ff1960165416176016557fbe26733c2bf6ff3ea5ba8cfe744422bd49052ff9ed5685c9e81e6f9321dbaddd8180a180f35b60405162461bcd60e51b815260206004820152601160248201527f457863656564656420646561646c696e650000000000000000000000000000006044820152606490fd5b50346102bc5760603660031901126102bc5760046107cd366129d6565b916107d6612d98565b6107e560ff6016541615612a68565b60206001600160a01b03600d5416604051938480926318160ddd60e01b82525afa9182156104e3578192610bc1575b508115610b7c57600a54808060011b0460021481151715610b6857600b549061083b612dee565b610843612b56565b90604051906108518261296e565b825182526020830151602083015261086c816105b085613400565b91865b60028110610b3d5750908161088b826105b08b9c9a9b95613400565b96604051966108998861296e565b60403689378a5b888c8b60028410610a50575050505050506108d094506108ca61062793926105b061062293613400565b84612b29565b9485156109ff57600186018096116109eb576108f0604435871115612bf4565b6001600160a01b03600d5416803b156104f05760405163079cc67960e41b8152336004820152602481018890529086908290604490829084905af180156109e0579086916109cc575b505b6002811061098c57506109747f2b5508378d7e19e0d5fa338419034731416c4f5b219a10379956f764317fd47e94959661098292612b29565b604051938493339785612c68565b0390a26001805580f35b8061099960019287612bc0565b516109a5575b0161093b565b6109c76001600160a01b038260060154166109c08389612bc0565b5190612ebd565b61099f565b6109d5906129a0565b6104df578438610939565b6040513d88823e3d90fd5b634e487b7160e01b85526011600452602485fd5b60405162461bcd60e51b815260206004820152602360248201527f746f6b656e5f616d6f756e74206d75737420626520677265617465722074686160448201526206e20360ec1b6064820152608490fd5b869850610aec86610ae686610adf8e9f9c9e8a9b9c60019b8f610af39b9a610a9387956106276001600160fe1b039d610a8c89610ace97612bc0565b5190612b00565b9050610a9f8585612bc0565b51811115610b2a57610abc90610ab58686612bc0565b5190612b29565b6402540be4009a8f938c941c16612b00565b04610ad9838b612bc0565b52612bc0565b5195612bc0565b51612b00565b0490612b29565b8160080155610b10610b05828b612bc0565b516106be8389612bc0565b610b1a8288612bc0565b5201908b949291969593966108a0565b610b38906106be8686612bc0565b610abc565b80610b526106b36001938d9895969798612bc0565b610b5c8286612bc0565b5201939291909361086f565b634e487b7160e01b82526011600452602482fd5b60405162461bcd60e51b815260206004820152601660248201527f6465763a207a65726f20746f74616c20737570706c79000000000000000000006044820152606490fd5b9091506020813d602011610bed575b81610bdd602093836129b4565b810103126103b857519038610814565b3d9150610bd0565b50346102bc5760203660031901126102bc576020610301600435612cd5565b50346102bc57806003193601126102bc576020600a54604051908152f35b50346102bc57806003193601126102bc57610c4b612e65565b7f46e22fb3709ad289f62ce63d469248536dbc78d82b84a3d7e74ad606dc2019386040610c76612dee565b80600e5580600f5542601055426011558151908152426020820152a180f35b50346102bc5760203660031901126102bc576004359060028210156102bc5760206001600160a01b03836006015416604051908152f35b50346102bc57806003193601126102bc57602060405164012a05f2008152f35b50346102bc57806003193601126102bc57600490610d19610d0b613161565b610d13612dee565b9061350a565b9060206001600160a01b03600d5416604051948580926318160ddd60e01b82525afa9283156104e3578193610d84575b50670de0b6b3a764000091828102928184041490151715610d705760206103018484612b36565b634e487b7160e01b81526011600452602490fd5b9092506020813d602011610db0575b81610da0602093836129b4565b810103126103b857519138610d49565b3d9150610d93565b50346102bc57806003193601126102bc576020600f54604051908152f35b50346102bc57806003193601126102bc576020600c54604051908152f35b50346102bc57806003193601126102bc576020604051600a8152f35b50346102bc57806003193601126102bc576020604051670de0b6b3a76400008152f35b50346102bc57806003193601126102bc5760206040516108fc8152f35b50346102bc57806003193601126102bc5760206040516001600160a01b037f0000000000000000000000000000000000000000000000000000000000000000168152f35b50346102bc57806003193601126102bc57602060ff601654166040519015158152f35b50346102bc57806003193601126102bc576001600160a01b036020915416604051908152f35b50346102bc57610eec36612a2e565b610ef7929192613161565b8360405193848095946002806000905b828210610f9157505050610f58955083926106be94610f4c84610f468995610f31610f529861296e565b610a8c86610f3f818a612bc0565b5194612bc0565b90612be7565b916131bf565b92612bc0565b600019810193908411610d70576020610301610f7f86610f788787612bc0565b5190612b36565b6402540be400610aec82600a54612b00565b805489526020909801978a965089945060019182019101610f07565b50346102bc5760203660031901126102bc576004356002811015610fda5760209060020154604051908152f35b5080fd5b50346102bc57806003193601126102bc57610ff7612e65565b60006001600160a01b03815473ffffffffffffffffffffffffffffffffffffffff1981168355167f8be0079c531659141344cd1fd0a4f28419497f9722a3daafe3b4186f6b6457e08280a380f35b50346102bc57806003193601126102bc57602060405160128152f35b50346102bc5760203660031901126102bc576004356002811015610fda5760209060040154604051908152f35b50346102bc5761109d36612a18565b906110a6612e65565b6012546111b05764012a05f200811161116b576402540be4008211611126576203f480420191824211611112577f351fc5da2fbf480f2225debf3664a4bc90fa9923743aad58b4603f648e931fe09160409184601255816013558060145582519182526020820152a280f35b634e487b7160e01b84526011600452602484fd5b60405162461bcd60e51b815260206004820152601e60248201527f6465763a2061646d696e206665652065786365656473206d6178696d756d00006044820152606490fd5b60405162461bcd60e51b815260206004820152601860248201527f6465763a206665652065786365656473206d6178696d756d00000000000000006044820152606490fd5b606460405162461bcd60e51b815260206004820152602060248201527f61646d696e5f616374696f6e735f646561646c696e65206d75737420626520306044820152fd5b5060803660031901126102bc576024906004358235604435611214612d98565b61122360ff6016541615612a68565b60ff600d5460a01c16156114b8575b61123a612b56565b9461124486613400565b61124e8582612bc0565b5160028610156114a557816106be86610f52611283969561128a611291968c670de0b6b3a76400009a8b91600401548d612b00565b0490612be7565b838c6131bf565b600019810192908311611492576402540be400916112bd836112b5600a5487612b00565b048095612b29565b928284029380850484149015171561147f57600287101561146c576112e787600401548095612b36565b94606435861061140257600b546112fd91612b00565b048281029281840414901517156113f0575085611365846106be887fb2e76ae99761dc136e598d4a629bb347eccb9532a5f8bbd72e18467c3c34cc989a9b9c61135b8a61068e6113546109829c9b61136a9b612b36565b9884612bc0565b8d60080155612bc0565b612b29565b84600801556113b9816001600160a01b03808960060154168673eeeeeeeeeeeeeeeeeeeeeeeeeeeeeeeeeeeeeeee82146000146113de5750506113ae348714612ab4565b866006015416612ebd565b6040519384933397859094939260609260808301968352602083015260408201520152565b6113eb913090339061345f565b6113ae565b634e487b7160e01b8852601160045287fd5b60405162461bcd60e51b815260206004820152602e818501527f45786368616e676520726573756c74656420696e20666577657220636f696e7360448201527f207468616e2065787065637465640000000000000000000000000000000000006064820152608490fd5b50634e487b7160e01b8852603260045287fd5b50634e487b7160e01b8852601160045287fd5b50634e487b7160e01b8652601160045285fd5b634e487b7160e01b875260326004528287fd5b6114c23415612ab4565b611232565b50346102bc5760603660031901126102bc5760043536604312156103b857604051906114f28261296e565b81906064366064116103b8576024926024905b828210611747575050611516612d98565b6001600160a01b0380600d541693604051926318160ddd60e01b845260208460048183995afa93841561173c578894611708575b50908792916040519761155c8961296e565b6040368a376040519761156e8961296e565b6040368a37855b60028110611638575050505050600d5416803b15610fda5760405163079cc67960e41b8152336004820152602481018590529082908290604490829084905af1801561162d57611619575b50506115e7916115cf91612b29565b916115dd6040518095612c40565b6040840190612c40565b60808201527f7c363854ccf79623411f8995b362bce5eddff18c927edc6f5dbbb5e05819a82c60a03392a26001805580f35b611622906129a0565b6104df5784386115c0565b6040513d84823e3d90fd5b8091929394959650600801805490611654896106278c85612b00565b9161165f8487612bc0565b51831061169f579180611685858f6116929561167e8560019a99612b29565b9055612bc0565b5288836006015416612ebd565b01908a9594939291611575565b60405162461bcd60e51b8152600481018690526030818a01527f5769746864726177616c20726573756c74656420696e20666577657220636f6960448201527f6e73207468616e2065787065637465640000000000000000000000000000000081890152608490fd5b9093506020813d602011611734575b81611724602093836129b4565b810103126103b85751923861154a565b3d9150611717565b6040513d8a823e3d90fd5b8135815260209182019101611505565b50346102bc57806003193601126102bc576020601354604051908152f35b50346102bc5761178436612a2e565b928160409392935192836004906000905b60028210611836575050506117a98461296e565b6117b1613161565b9081836117be8383612bc0565b51670de0b6b3a7640000809a6117d4868b612bc0565b516117de91612b00565b046117e891612be7565b906117f2936131bf565b916117fc91612bc0565b519061180791612b29565b6000198101908111610b6857848102948186041490151715610d70576020610301610f7f86610f788787612bc0565b825481528794506001928301929190910190602001611795565b50346102bc57806003193601126102bc576020600e54604051908152f35b50346102bc57806003193601126102bc57611887612e65565b805b600281106118b957507f2c7203581ca666b8c5094c11c03f0b19b3750234a9d281bcbc88a260bcb006de8180a180f35b60068101546001600160a01b03169073eeeeeeeeeeeeeeeeeeeeeeeeeeeeeeeeeeeeeeee82036118f457600191504781600801555b01611889565b60405180926370a0823160e01b825230600483015281602460209384935afa90811561195f578491611930575b506001925081600801556118ee565b905082813d8311611958575b61194681836129b4565b810103126103b8576001915138611921565b503d61193c565b6040513d86823e3d90fd5b50346102bc57602061198461197e36612a18565b90612f79565b50604051908152f35b50346102bc57806003193601126102bc576119a6612e65565b6012546119b581421015612c89565b156119fd57806012557fbe12859b636aed607d5230b2cc2711f68d70e51060e6cca1f575ef5d2fcc95d1604060135480600a5560145480600b5582519182526020820152a180f35b60405162461bcd60e51b815260206004820152602660248201527f61646d696e5f616374696f6e735f646561646c696e652073686f756c64206e6f60448201527f74206265203000000000000000000000000000000000000000000000000000006064820152608490fd5b50346102bc5760203660031901126102bc576004356002811015610fda5760209060080154604051908152f35b50346102bc5760e03660031901126102bc5736602312156102bc57604051611abc8161296e565b80366044116106d4576004905b60448210611f885750506001600160a01b0360a4351660a435036103b85760c435906001600160a01b03821682036103b85760165460ff8160081c16611f43576001600160a01b037f0000000000000000000000000000000000000000000000000000000000000000163303611efe57620f424060443511611eb95764012a05f20060643511611e74576402540be40060843511611e2f5761ff00191661010017601655825b6002811015611d7b576001600160a01b03611b8a8284612bc0565b511615611d365773eeeeeeeeeeeeeeeeeeeeeeeeeeeeeeeeeeeeeeee6001600160a01b03611bb88385612bc0565b511603611cac576012600d740100000000000000000000000000000000000000007fffffffffffffffffffffff00ffffffffffffffffffffffffffffffffffffffff8254161790555b601290818111611c5b5781039081116109eb57604d81116109eb57600a0a808260020155670de0b6b3a764000080828102048203611c4757026004820155600101611b6f565b634e487b7160e01b86526011600452602486fd5b60405162461bcd60e51b8152602060048201526024808201527f546865206d6178696d756d20646563696d616c2063616e6e6f742065786365656044820152630c84062760e31b6064820152608490fd5b600460206001600160a01b03611cc28486612bc0565b51166040519283809263313ce56760e01b82525afa8015611d2b578590611cee575b60ff915016611c01565b506020813d602011611d23575b81611d08602093836129b4565b810103126104df575160ff811681036104df5760ff90611ce4565b3d9150611cfb565b6040513d87823e3d90fd5b60405162461bcd60e51b815260206004820152600c60248201527f5a45524f204164647265737300000000000000000000000000000000000000006044820152606490fd5b50825b60028110611e11575050604435600e55604435600f55606435600a55608435600b55624f1a004201804211611dfd57906001600160a01b03916015551673ffffffffffffffffffffffffffffffffffffffff19600d541617600d55611de1612e65565b6001600160a01b0360a435161561034d5761034a60a4356134b5565b634e487b7160e01b83526011600452602483fd5b60019060206001600160a01b03845116930192816006015501611d7e565b60405162461bcd60e51b815260206004820152601a60248201527f5f61646d696e5f6665652065786365656473206d6178696d756d0000000000006044820152606490fd5b60405162461bcd60e51b815260206004820152601460248201527f5f6665652065786365656473206d6178696d756d0000000000000000000000006044820152606490fd5b60405162461bcd60e51b815260206004820152601260248201527f5f412065786365656473206d6178696d756d00000000000000000000000000006044820152606490fd5b60405162461bcd60e51b815260206004820152601760248201527f4f7065726174696f6e733a204e6f7420666163746f72790000000000000000006044820152606490fd5b60405162461bcd60e51b815260206004820152601f60248201527f4f7065726174696f6e733a20416c726561647920696e697469616c697a6564006044820152606490fd5b81356001600160a01b03811681036103b857815260209182019101611ac9565b50346102bc57806003193601126102bc576020601254604051908152f35b50346102bc57611fd536612a18565b90611fde612e65565b60105462015180908181018091116109eb5742106121b55742018042116111125761200b90831015612c89565b612013612dee565b9080158015806121a9575b1561213e578282108015918261210d575b82156120e2575b50501561209d576120977fa2b71ec6df949300b59aab36b55e189697b750119dd349fcfa8c0f779e83c2549383600e5582600f5542601055806011556040519384934291859094939260609260808301968352602083015260408201520152565b0390a180f35b60405162461bcd60e51b815260206004820152601b60248201527f496c6c6567616c20706172616d65746572205f6675747572655f4100000000006044820152606490fd5b909150816120f3575b503880612036565b600a83810292508383041417156109eb57821115386120eb565b9150600a8402848104600a148515171561212a578311159161202f565b634e487b7160e01b87526011600452602487fd5b60405162461bcd60e51b815260206004820152602560248201527f5f6675747572655f41206d757374206265206265747765656e203020616e642060448201527f4d41585f410000000000000000000000000000000000000000000000000000006064820152608490fd5b50620f4240821061201e565b60405162461bcd60e51b815260206004820152600f60248201527f646576203a20746f6f206561726c7900000000000000000000000000000000006044820152606490fd5b50346102bc57806003193601126102bc576020604051620f42408152f35b50346102bc57806003193601126102bc57602060ff60165460081c166040519015158152f35b50346102bc57806003193601126102bc57612257612e65565b805b600281101561235b5760006001600160a01b0382600601541673eeeeeeeeeeeeeeeeeeeeeeeeeeeeeeeeeeeeeeee81146000146122e45747826104f45760088401546122a491612b29565b915b826122b7575b505050600101612259565b6122d057600192916122c891612ebd565b9038806122ac565b634e487b7160e01b84526032600452602484fd5b6040516370a0823160e01b8152306004820152602092908381602481865afa9384156109e0578694612329575b50506123239092846008015490612b29565b916122a6565b9080929450813d8311612354575b61234181836129b4565b810103126106d457519161232338612311565b503d612337565b5080f35b50346102bc57806003193601126102bc57612378612e65565b60ff19601654166016557f061284ffa2814ace135f62907c78a7cff0f070efe7e6a0a42740ea1da2c8bdc88180a180f35b50346102bc57806003193601126102bc576020601554604051908152f35b50346102bc57806003193601126102bc57602060405160028152f35b50346102bc5760203660031901126102bc57600435612400612e65565b6108fc81101580612488575b15612443576020817f535533646ff25874ff322c27a44e684b16c906ef818ae694d70794ec40860e2e92600c55604051908152a180f35b60405162461bcd60e51b815260206004820152600b60248201527f496c6c6567616c206761730000000000000000000000000000000000000000006044820152606490fd5b506159d881111561240c565b50346102bc57806003193601126102bc576124ad612e65565b806012557f1b4883af197c705114490f8d84f9ce30bef6a6199f7b7b649e845577cf0769a18180a180f35b50346102bc57806003193601126102bc576020601054604051908152f35b50346102bc57806003193601126102bc5760206040516159d88152f35b50346102bc57806003193601126102bc576020601154604051908152f35b5060603660031901126102bc57612547366129d6565b90612550612d98565b61255f60ff6016541615612a68565b600d549160ff8360a01c1615612942575b60405161257c8161296e565b6040368237600a5490818060011b046002148215171561111257600b546001600160a01b039560206125ac612dee565b916004604051809a81936318160ddd60e01b8352165afa9687156109e057869761290e575b5085916125dc612b56565b886128f9575b604051916125ef8361296e565b8151835260208201516020840152885b600281106128605750612615846105b085613400565b968588111561281b57878b156127ef5750895b878b888b60028510612798575050505050505050906105b061264992613400565b905b8661277d575050815b612662604435821015612bf4565b845b6002811061272157506001600160a01b03600d5416803b156104f0576040516340c10f1960e01b8152336004820152602481018390529086908290604490829084905af180156109e0576126e4575b50610974610982917f26f55a85081d24974e85c6c00045d0f0453991e95873f52bff0d21af4079a768959697612be7565b610982917f26f55a85081d24974e85c6c00045d0f0453991e95873f52bff0d21af4079a7689596612717610974936129a0565b96955091506126b3565b8061272e60019287612bc0565b5160068201546001600160a01b03169073eeeeeeeeeeeeeeeeeeeeeeeeeeeeeeeeeeeeeeee820361276b5761276591503414612ab4565b01612664565b612778913090339061345f565b612765565b61062761278d8261279394612b29565b88612b00565b612654565b610aec87610ae687610adf818e8c8f6127cc9b610a9360019f9e9c6106276001600160fe1b039d610a8c89610ace97612bc0565b81600801556127de610b05828b612bc0565b6127e88288612bc0565b5201612628565b959450505050865b6002811061280657505061264b565b600190602083519301928160080155016127f7565b60405162461bcd60e51b815260206004820152601a60248201527f4431206d7573742062652067726561746572207468616e2044300000000000006044820152606490fd5b8a1561289a575b8061288961287760019386612bc0565b51612882838d612bc0565b5190612be7565b6128938287612bc0565b52016125ff565b6128a4818a612bc0565b516128675760405162461bcd60e51b815260206004820152602260248201527f496e697469616c206465706f73697420726571756972657320616c6c20636f696044820152616e7360f01b6064820152608490fd5b9250612908826105b085613400565b926125e2565b9096506020813d60201161293a575b8161292a602093836129b4565b810103126104f0575195386125d1565b3d915061291d565b61294c3415612ab4565b612570565b905034610fda5781600319360112610fda57806201518060209252f35b6040810190811067ffffffffffffffff82111761298a57604052565b634e487b7160e01b600052604160045260246000fd5b67ffffffffffffffff811161298a57604052565b90601f8019910116810190811067ffffffffffffffff82111761298a57604052565b80602312156103b857604051906129ec8261296e565b816044916044116103b8576004905b828210612a085750505090565b81358152602091820191016129fb565b60409060031901126103b8576004359060243590565b60609060031901126103b857600435906024359060443590565b346103b85760003660031901126103b85760206040516402540be4008152f35b15612a6f57565b60405162461bcd60e51b815260206004820152600660248201527f4b696c6c656400000000000000000000000000000000000000000000000000006044820152606490fd5b15612abb57565b60405162461bcd60e51b815260206004820152601560248201527f496e636f6e73697374656e74207175616e7469747900000000000000000000006044820152606490fd5b81810292918115918404141715612b1357565b634e487b7160e01b600052601160045260246000fd5b91908203918211612b1357565b8115612b40570490565b634e487b7160e01b600052601260045260246000fd5b6040519060086000835b60028210612b7657505050612b748261296e565b565b6001602081928554815201930191019091612b60565b6040519060046000835b60028210612baa57505050612b748261296e565b6001602081928554815201930191019091612b96565b906002811015612bd15760051b0190565b634e487b7160e01b600052603260045260246000fd5b91908201809211612b1357565b15612bfb57565b60405162461bcd60e51b815260206004820152601460248201527f536c697070616765207363726577656420796f750000000000000000000000006044820152606490fd5b6000915b60028310612c5157505050565b600190825181526020809101920192019190612c44565b90949392612c8060a0936115dd8460c0810199612c40565b60808201520152565b15612c9057565b60405162461bcd60e51b815260206004820152601660248201527f6465763a20696e73756666696369656e742074696d65000000000000000000006044820152606490fd5b6002811015612bd15760068101546001600160a01b03169073eeeeeeeeeeeeeeeeeeeeeeeeeeeeeeeeeeeeeeee8203612d1a5760080154612d17915047612b29565b90565b6020602492604051938480926370a0823160e01b82523060048301525afa908115612d8c57600091612d56575b612d1792506008015490612b29565b90506020823d602011612d84575b81612d71602093836129b4565b810103126103b857612d17915190612d47565b3d9150612d64565b6040513d6000823e3d90fd5b600260015414612da9576002600155565b60405162461bcd60e51b815260206004820152601f60248201527f5265656e7472616e637947756172643a207265656e7472616e742063616c6c006044820152606490fd5b601154600f54814210600014612e6057600e54601054909182811115612e425792612e3c610f4692612e36612e2686612d1798612b29565b612e308342612b29565b90612b00565b92612b29565b90612b36565b92612e3c612e5a92612e36612e26612d179787612b29565b90612b29565b905090565b6001600160a01b03600054163303612e7957565b606460405162461bcd60e51b815260206004820152602060248201527f4f776e61626c653a2063616c6c6572206973206e6f7420746865206f776e65726044820152fd5b6001600160a01b031673eeeeeeeeeeeeeeeeeeeeeeeeeeeeeeeeeeeeeeee8103612f42575060008080809333600c54f1612ef56136ce565b5015612efd57565b60405162461bcd60e51b815260206004820152601460248201527f524f5345207472616e73666572206661696c65640000000000000000000000006044820152606490fd5b60405163a9059cbb60e01b6020820152336024820152604480820193909352918252612b749190612f746064836129b4565b6138d4565b9190612f83612dee565b90600a54916001600293808060011b0460021481151715612b13576001600160fe1b039060011c169060405194856002906000905b83821061314d5750505090600491612fcf8761296e565b60206001600160a01b03600d5416604051948580926318160ddd60e01b82525afa928315612d8c57600093613119575b5061302961302361300e613161565b9461062761301c898861350a565b809d612b00565b8a612b29565b936130368585898961370e565b996130526130488c6106be8b89612bc0565b610f788a8c612bc0565b9a60005b898582106130a45793505050506130819594925083915061307a81612e5a95612bc0565b519461370e565b6000198101908111612b1357610f7861309d92612d1794612bc0565b8093612b29565b906130e16402540be4006130d686868d868e8e9982146000146130f25761136592610ae661278d969361062793612bc0565b046106be838b612bc0565b6130eb828a612bc0565b5201613056565b925092610627612e5a92610ae68661310d6131149888612bc0565b5196612bc0565b61278d565b9092506020813d602011613145575b81613135602093836129b4565b810103126103b857519138612fff565b3d9150613128565b825481529184019190840190602001612fb8565b6040805161316e8161296e565b369037613179612b8c565b9060005b600281106131885750565b80670de0b6b3a76400006131ad6131a160019487612bc0565b51836008015490612b00565b046131b88286612bc0565b520161317d565b929093919380841415806133f6575b806133ec575b156133a7576131e1612dee565b906131ec828461350a565b8095600092600198858a1b966002928789046002148815171561212a579290918a95949287945b8d84871061332457505050505050509061322c91612b00565b9160021b83810460021484151715612b135761324e610f469161325594612b36565b9386612b36565b928060005b60ff81106132a75760405162461bcd60e51b815260206004820152601160248201527f646f6573206e6f7420636f6e76657267650000000000000000000000000000006044820152606490fd5b816132bb856132b68380612b00565b612be7565b906001600160ff1b0381168103612b13578891612e3c866113658b6132e195871b612be7565b92838181111561330e57906132f591612b29565b11156133045786905b0161325a565b5093505050915090565b61331791612b29565b11156133045786906132fe565b9193959785899a929496989a1460001461337b579061335161334b93928794858094612be7565b9b612b00565b911b91808304871490151715612b13578d9161336c91612b36565b965b0193918b96959391613213565b88841461339f579061335161334b93926133958b88612bc0565b5194858094612be7565b50979661336e565b60405162461bcd60e51b815260206004820152601160248201527f496c6c6567616c20706172616d657465720000000000000000000000000000006044820152606490fd5b50600281106131d4565b50600284106131ce565b906040805161340e8161296e565b369037613419612b8c565b9160005b60028110613429575050565b80670de0b6b3a764000061344d61344260019488612bc0565b51610a8c8487612bc0565b046134588287612bc0565b520161341d565b9290604051926323b872dd60e01b60208501526001600160a01b03809216602485015216604483015260648201526064815260a081019181831067ffffffffffffffff84111761298a57612b74926040526138d4565b600054906001600160a01b03809116918273ffffffffffffffffffffffffffffffffffffffff19821617600055167f8be0079c531659141344cd1fd0a4f28419497f9722a3daafe3b4186f6b6457e0600080a3565b91600091825b600281106136b6575082156136ad578260019482861b9260029080850460021490151715612b1357919460001984018481119390919060005b60ff81106135bc5760405162461bcd60e51b815260206004820152602660248201527f696e76617269616e742063616c63756c6174696f6e20646964206e6f7420636f60448201527f6e766572676500000000000000000000000000000000000000000000000000006064820152608490fd5b8260005b838110613667575080936135d48b8a612b00565b91818d1b92828404861483151715612b1357816106228b956135f593612be7565b92612b13576136049087612b00565b9160039180830292830403612b1357612e3c613621928e94612be7565b938481811115613651579061363591612b29565b11156136445789905b01613549565b5050955050505050915090565b61365a91612b29565b111561364457899061363e565b95909384613677919b939b612b00565b6136818783612bc0565b5190818d1b91808304861490151715612b13578c9161369f91612b36565b9601999199959390956135c0565b50915050600090565b926136c76001916128828688612bc0565b9301613510565b3d15613709573d9067ffffffffffffffff821161298a57604051916136fd601f8201601f1916602001846129b4565b82523d6000602084013e565b606090565b9391909360028086101561388f57849060009160019784891b958587048414861517156109eb5788929185915b85831061382f575050509061374f91612b00565b92811b908482041484151715612b135761324e610f469161376f94612b36565b928060005b60ff81106137c15760405162461bcd60e51b815260206004820152601160248201527f646f6573206e6f7420636f6e76657267650000000000000000000000000000006044820152606490fd5b816137d0856132b68380612b00565b906001600160ff1b0381168103612b13578891612e3c866113658b6137f695871b612be7565b928381811115613819579061380a91612b29565b11156133045786905b01613774565b61382291612b29565b1115613304578690613813565b929591935091908a838514613887575061385e8a6138586138508786612bc0565b518094612be7565b97612b00565b818c1b91808304871490151715612b13578b9161387a91612b36565b935b01909189939261373b565b90959361387c565b60405162461bcd60e51b815260206004820152601460248201527f6465763a20692061626f7665204e5f434f494e530000000000000000000000006044820152606490fd5b6001600160a01b0316906139346040516138ed8161296e565b6020938482527f5361666545524332303a206c6f772d6c6576656c2063616c6c206661696c6564858301526000808587829751910182855af161392e6136ce565b916139dd565b8051918215918483156139b9575b50505090501561394f5750565b6084906040519062461bcd60e51b82526004820152602a60248201527f5361666545524332303a204552433230206f7065726174696f6e20646964206e60448201527f6f742073756363656564000000000000000000000000000000000000000000006064820152fd5b919381809450010312610fda578201519081151582036102bc575080388084613942565b91929015613a3f57508151156139f1575090565b3b156139fa5790565b60405162461bcd60e51b815260206004820152601d60248201527f416464726573733a2063616c6c20746f206e6f6e2d636f6e74726163740000006044820152606490fd5b825190915015613a525750805190602001fd5b6040519062461bcd60e51b82528160208060048301528251908160248401526000935b828510613a98575050604492506000838284010152601f80199101168101030190fd5b8481018201518686016044015293810193859350613a7556fea164736f6c6343000818000aa164736f6c6343000818000a",
  "devdoc": {
    "details": "This contract manages the deployment of pool, including sorting the pool tokens",
    "kind": "dev",
    "methods": {
      "createSwapPair(address,address,uint256,uint256,uint256,address,address)": {
        "params": {
          "_A": ": Amplification coefficient multiplied by n * (n - 1)",
          "_LP": ": LP",
          "_admin": ": Admin",
          "_admin_fee": ": Admin fee",
          "_fee": ": Fee to charge for exchanges",
          "_tokenA": ": Addresses of ERC20 conracts .",
          "_tokenB": ": Addresses of ERC20 conracts ."
        }
      },
      "owner()": {
        "details": "Returns the address of the current owner."
      },
      "renounceOwnership()": {
        "details": "Leaves the contract without owner. It will not be possible to call `onlyOwner` functions. Can only be called by the current owner. NOTE: Renouncing ownership will leave the contract without an owner, thereby disabling any functionality that is only available to the owner."
      },
      "transferOwnership(address)": {
        "details": "Transfers ownership of the contract to a new account (`newOwner`). Can only be called by the current owner."
      }
    },
    "title": "stable swap three pool deployer",
    "version": 1
  },
  "userdoc": {
    "kind": "user",
    "methods": {
      "createSwapPair(address,address,uint256,uint256,uint256,address,address)": {
        "notice": "createSwapPair"
      }
    },
    "notice": "A deployer contract for executing the three pool deloyment",
    "version": 1
  },
  "storageLayout": {
    "storage": [
      {
        "astId": 7,
        "contract": "contracts/stableSwap/StableSwapTwoPoolDeployer.sol:StableSwapTwoPoolDeployer",
        "label": "_owner",
        "offset": 0,
        "slot": "0",
        "type": "t_address"
      }
    ],
    "types": {
      "t_address": {
        "encoding": "inplace",
        "label": "address",
        "numberOfBytes": "20"
      }
    }
  }
}