{
  "address": "0x51563D3C4B28600d61A39dbE16F27704EFfbB757",
  "abi": [
    {
      "inputs": [],
      "stateMutability": "nonpayable",
      "type": "constructor"
    },
    {
      "inputs": [],
      "name": "admin",
      "outputs": [
        {
          "internalType": "address",
          "name": "",
          "type": "address"
        }
      ],
      "stateMutability": "view",
      "type": "function"
    },
    {
      "inputs": [
        {
          "internalType": "address",
          "name": "tokenAddress",
          "type": "address"
        }
      ],
      "name": "getBalance",
      "outputs": [
        {
          "internalType": "uint256",
          "name": "",
          "type": "uint256"
        }
      ],
      "stateMutability": "view",
      "type": "function"
    },
    {
      "inputs": [
        {
          "internalType": "address",
          "name": "tokenAddress",
          "type": "address"
        },
        {
          "internalType": "address",
          "name": "to",
          "type": "address"
        },
        {
          "internalType": "uint256",
          "name": "amount",
          "type": "uint256"
        }
      ],
      "name": "withdrawERC20",
      "outputs": [],
      "stateMutability": "nonpayable",
      "type": "function"
    }
  ],
  "transactionHash": "0x67cdf47423c9f3c45399ef6d84145e65a0fa2e8c83d911b175fdf3a9ece92b19",
  "args": [],
  "numDeployments": 1,
  "solcInputHash": "3ee9c3a4a8891d925665472eaf8b086e",
  "bytecode": "0x6080806040523461002857600080546001600160a01b03191633179055610319908161002e8239f35b600080fdfe60806040908082526004918236101561001757600080fd5b600091823560e01c90816344004cc11461010857508063f851a440146100e35763f8b2cb4f1461004657600080fd5b346100df57602092836003193601126100db57836001600160a01b0361006a6102b9565b169160248451809481936370a0823160e01b835230908301525afa9283156100d057809361009b575b505051908152f35b909192508382813d83116100c9575b6100b481836102d4565b810103126100c6575051903880610093565b80fd5b503d6100aa565b8251903d90823e3d90fd5b8280fd5b5080fd5b50346100df57816003193601126100df576001600160a01b0360209254169051908152f35b91849150346102b55760603660031901126102b5576101256102b9565b602435906001600160a01b03908183168093036102b15760443595828854163303610270575016928251936370a0823160e01b855230828601526020948581602481855afa908115610266579087918991610231575b50106101ee57849291876044928651988995869463a9059cbb60e01b865285015260248401525af19081156101e557506101b3578280f35b81813d83116101de575b6101c781836102d4565b810103126100df5751801515036100c65781808280f35b503d6101bd565b513d85823e3d90fd5b835162461bcd60e51b8152808301869052601460248201527f496e73756666696369656e742062616c616e63650000000000000000000000006044820152606490fd5b809250878092503d831161025f575b61024a81836102d4565b8101031261025b578690518961017b565b8780fd5b503d610240565b85513d8a823e3d90fd5b62461bcd60e51b8152602086820152601660248201527f4e6f742074686520636f6e7472616374206f776e6572000000000000000000006044820152606490fd5b8680fd5b8380fd5b600435906001600160a01b03821682036102cf57565b600080fd5b90601f8019910116810190811067ffffffffffffffff8211176102f657604052565b634e487b7160e01b600052604160045260246000fdfea164736f6c6343000818000a",
  "devdoc": {
    "kind": "dev",
    "methods": {},
    "version": 1
  },
  "userdoc": {
    "kind": "user",
    "methods": {},
    "version": 1
  },
  "storageLayout": {
    "storage": [
      {
        "astId": 82,
        "contract": "contracts/Test.sol:Test",
        "label": "admin",
        "offset": 0,
        "slot": "0",
        "type": "t_address"
      }
    ],
    "types": {
      "t_address": {
        "encoding": "inplace",
        "label": "address",
        "numberOfBytes": "20"
      }
    }
  }
}