{
  "address": "0x6ddBFDee4Fe0B1A3415C0cc309A335ad2475811c",
  "abi": [
    {
      "inputs": [
        {
          "internalType": "address",
          "name": "stableSwapFactory",
          "type": "address"
        },
        {
          "internalType": "address",
          "name": "stableSwapInfo",
          "type": "address"
        },
        {
          "internalType": "address[]",
          "name": "path",
          "type": "address[]"
        },
        {
          "internalType": "uint256[]",
          "name": "flag",
          "type": "uint256[]"
        },
        {
          "internalType": "uint256",
          "name": "amountOut",
          "type": "uint256"
        }
      ],
      "name": "getStableAmountsIn",
      "outputs": [
        {
          "internalType": "uint256[]",
          "name": "amounts",
          "type": "uint256[]"
        }
      ],
      "stateMutability": "view",
      "type": "function"
    },
    {
      "inputs": [
        {
          "internalType": "address",
          "name": "stableSwapFactory",
          "type": "address"
        },
        {
          "internalType": "address[]",
          "name": "path",
          "type": "address[]"
        },
        {
          "internalType": "uint256[]",
          "name": "flag",
          "type": "uint256[]"
        },
        {
          "internalType": "uint256",
          "name": "amountIn",
          "type": "uint256"
        }
      ],
      "name": "getStableAmountsOut",
      "outputs": [
        {
          "internalType": "uint256[]",
          "name": "amounts",
          "type": "uint256[]"
        }
      ],
      "stateMutability": "view",
      "type": "function"
    },
    {
      "inputs": [
        {
          "internalType": "address",
          "name": "stableSwapFactory",
          "type": "address"
        },
        {
          "internalType": "address",
          "name": "input",
          "type": "address"
        },
        {
          "internalType": "address",
          "name": "output",
          "type": "address"
        },
        {
          "internalType": "uint256",
          "name": "flag",
          "type": "uint256"
        }
      ],
      "name": "getStableInfo",
      "outputs": [
        {
          "internalType": "uint256",
          "name": "i",
          "type": "uint256"
        },
        {
          "internalType": "uint256",
          "name": "j",
          "type": "uint256"
        },
        {
          "internalType": "address",
          "name": "swapContract",
          "type": "address"
        }
      ],
      "stateMutability": "view",
      "type": "function"
    }
  ],
  "transactionHash": "0x44957398800289d62a4863aa4e06a4f32fea6178d6366431a87fabf551a45d68",
  "args": [],
  "numDeployments": 1,
  "solcInputHash": "c8c16bdf34dd16dea0419dbbb136c897",
  "bytecode": "0x6080806040523461001a57610bbf9081610020823930815050f35b600080fdfe6080604052600436101561001257600080fd5b60003560e01c80635923cab31461025c57806386be32f91461009c5763b735aecd1461003d57600080fd5b6080366003190112610097576100516103fa565b610059610410565b90604435916001600160a01b03918284168403610097576060936100809260643592610650565b906040939293519384526020840152166040820152f35b600080fd5b6080366003190112610097576100b06103fa565b67ffffffffffffffff90602435828111610097576100d2903690600401610492565b91604435908111610097576100eb903690600401610502565b918051916100fc600284101561059e565b610105836105f6565b9182511561024657606435602084015260005b8460001981011161021e576000198501811015610234576001600160a01b036101418284610628565b51169060018101811161021e57602061017f6064936001600160a01b0361016b6001860188610628565b5116610177858c610628565b519188610650565b9490916001600160a01b03610194868b610628565b5196604051978895869463556d6e9f60e01b8652600486015260248501526044840152165afa8015610212576000906101df575b600192506101d883830187610628565b5201610118565b506020823d60201161020a575b816101f960209383610458565b8101031261009757600191516101c8565b3d91506101ec565b6040513d6000823e3d90fd5b634e487b7160e01b600052601160045260246000fd5b604051806102428682610562565b0390f35b634e487b7160e01b600052603260045260246000fd5b60a0366003190112610097576102706103fa565b610278610410565b67ffffffffffffffff916044358381116100975761029a903690600401610492565b92606490606435908111610097576102b6903690600401610502565b926084938551956102ca600288101561059e565b6102d3876105f6565b956000199788810190811161021e576084356102ef828a610628565b52805b61030457604051806102428a82610562565b808981011161021e5761034e6001600160a01b036103248b840186610628565b51166001600160a01b036103388487610628565b51166103468c850188610628565b51918a610650565b919061035a848c610628565b51916001600160a01b0360405194633292f1c560e21b86521660048501526024840152604483015287820152898382015260208160a4816001600160a01b038a165afa908115610212576000916103c8575b506103b98a83018a610628565b52801561021e578801806102f2565b90506020813d6020116103f2575b816103e360209383610458565b8101031261009757518a6103ac565b3d91506103d6565b600435906001600160a01b038216820361009757565b602435906001600160a01b038216820361009757565b6040810190811067ffffffffffffffff82111761044257604052565b634e487b7160e01b600052604160045260246000fd5b90601f8019910116810190811067ffffffffffffffff82111761044257604052565b67ffffffffffffffff81116104425760051b60200190565b9080601f830112156100975760209082356104ac8161047a565b936104ba6040519586610458565b81855260208086019260051b82010192831161009757602001905b8282106104e3575050505090565b81356001600160a01b03811681036100975781529083019083016104d5565b9080601f8301121561009757602090823561051c8161047a565b9361052a6040519586610458565b81855260208086019260051b82010192831161009757602001905b828210610553575050505090565b81358152908301908301610545565b602090602060408183019282815285518094520193019160005b82811061058a575050505090565b83518552938101939281019260010161057c565b156105a557565b60405162461bcd60e51b8152602060048201526024808201527f676574537461626c65416d6f756e7473496e3a20696e636f7272656374206c656044820152630dccee8d60e31b6064820152608490fd5b906106008261047a565b61060d6040519182610458565b828152809261061e601f199161047a565b0190602036910137565b80518210156102465760209160051b010190565b51906001600160a01b038216820361009757565b929391906000946000958687600284146000146109385750505060408680825161067981610426565b600881526020947f666c61673a202573000000000000000000000000000000000000000000000000868301526106e1855180926106cd89830195632d839cb360e21b87528960248501526064840190610b11565b90604483015203601f198101835282610458565b51906a636f6e736f6c652e6c6f675afa5061072f83825161070181610426565b600881527f696e70757420257300000000000000000000000000000000000000000000000085820152610b51565b61076c84825161073e81610426565b600981527f6f7574707574202573000000000000000000000000000000000000000000000085820152610b51565b8051632007bd0f60e11b81526001600160a01b0384811660048301529485166024820152956080908790604490829088165afa95861561092e578796610886575b50508401519082169082160361087d5760ff845b169384610875575060ff60015b16925116905b610813826040516107e481610426565b601081527f73776170436f6e74726163743a202573000000000000000000000000000000006020820152610b51565b6001600160a01b0382161561082457565b60405162461bcd60e51b815260206004820152602360248201527f676574537461626c65496e666f3a20696e76616c696420706f6f6c206164647260448201526265737360e81b6064820152608490fd5b60ff906107ce565b60ff60016107c1565b909195506080813d608011610926575b816108a360809383610458565b81010312610922578151916080830183811067ffffffffffffffff82111761090e5760608694929384610902938796526108dc8261063c565b85526108e98b830161063c565b8b8601526108f881830161063c565b908501520161063c565b606082015295916107ad565b634e487b7160e01b89526041600452602489fd5b8680fd5b3d9150610896565b81513d89823e3d90fd5b95949390969260039098929814610953575b505050506107d4565b6040805163923093cb60e01b81526001600160a01b0383811660048301528681166024830152959990989697509495929492939192909160a090899060449082908a165afa978815610b07578598610a4e575b50908591828060208b0151169416848114600014610a0e5750508185995b169283036109de5750505050925b5116903880808061094a565b87015192935090911681036109f75750506001926109d2565b826060869396015116036109d257600293506109d2565b909192838a0151168114600014610a2c5750508490816001996109c4565b8660608a9b939b01511614610a45575b908580926109c4565b60029850610a3c565b90975060a0813d60a011610aff575b81610a6a60a09383610458565b81010312610afb5781519060a0820182811067ffffffffffffffff821117610ae7576080849392610ada928a9652610aa18161063c565b8452610aaf6020820161063c565b6020850152610abf85820161063c565b85850152610acf6060820161063c565b60608501520161063c565b60808201529790916109a6565b634e487b7160e01b87526041600452602487fd5b8480fd5b3d9150610a5d565b82513d87823e3d90fd5b919082519283825260005b848110610b3d575050826000602080949584010152601f8019910116010190565b602081830181015184830182015201610b1c565b600091908291610b9f60405180926001600160a01b03610b8a602084019663319af33360e01b8852604060248601526064850190610b11565b9116604483015203601f198101835282610458565b51906a636f6e736f6c652e6c6f675afa5056fea164736f6c6343000818000a",
  "devdoc": {
    "kind": "dev",
    "methods": {},
    "version": 1
  },
  "userdoc": {
    "kind": "user",
    "methods": {},
    "version": 1
  },
  "storageLayout": {
    "storage": [],
    "types": null
  }
}