{
  "address": "0x27b7158C6Ab336F8ed4B744Bc295a10194653846",
  "abi": [
    {
      "inputs": [],
      "name": "FEE_DENOMINATOR",
      "outputs": [
        {
          "internalType": "uint256",
          "name": "",
          "type": "uint256"
        }
      ],
      "stateMutability": "view",
      "type": "function"
    },
    {
      "inputs": [],
      "name": "N_COINS",
      "outputs": [
        {
          "internalType": "uint256",
          "name": "",
          "type": "uint256"
        }
      ],
      "stateMutability": "view",
      "type": "function"
    },
    {
      "inputs": [],
      "name": "PRECISION",
      "outputs": [
        {
          "internalType": "uint256",
          "name": "",
          "type": "uint256"
        }
      ],
      "stateMutability": "view",
      "type": "function"
    },
    {
      "inputs": [
        {
          "internalType": "address",
          "name": "_swap",
          "type": "address"
        }
      ],
      "name": "PRECISION_MUL",
      "outputs": [
        {
          "internalType": "uint256[3]",
          "name": "swapPRECISION_MUL",
          "type": "uint256[3]"
        }
      ],
      "stateMutability": "view",
      "type": "function"
    },
    {
      "inputs": [
        {
          "internalType": "address",
          "name": "_swap",
          "type": "address"
        }
      ],
      "name": "RATES",
      "outputs": [
        {
          "internalType": "uint256[3]",
          "name": "swapRATES",
          "type": "uint256[3]"
        }
      ],
      "stateMutability": "view",
      "type": "function"
    },
    {
      "inputs": [
        {
          "internalType": "address",
          "name": "_swap",
          "type": "address"
        },
        {
          "internalType": "uint256[3]",
          "name": "_balances",
          "type": "uint256[3]"
        }
      ],
      "name": "_xp_mem",
      "outputs": [
        {
          "internalType": "uint256[3]",
          "name": "result",
          "type": "uint256[3]"
        }
      ],
      "stateMutability": "view",
      "type": "function"
    },
    {
      "inputs": [
        {
          "internalType": "address",
          "name": "_swap",
          "type": "address"
        }
      ],
      "name": "balances",
      "outputs": [
        {
          "internalType": "uint256[3]",
          "name": "swapBalances",
          "type": "uint256[3]"
        }
      ],
      "stateMutability": "view",
      "type": "function"
    },
    {
      "inputs": [
        {
          "internalType": "address",
          "name": "_swap",
          "type": "address"
        },
        {
          "internalType": "uint256",
          "name": "_amount",
          "type": "uint256"
        }
      ],
      "name": "calc_coins_amount",
      "outputs": [
        {
          "internalType": "uint256[3]",
          "name": "",
          "type": "uint256[3]"
        }
      ],
      "stateMutability": "view",
      "type": "function"
    },
    {
      "inputs": [
        {
          "internalType": "address",
          "name": "_swap",
          "type": "address"
        },
        {
          "internalType": "uint256[3]",
          "name": "_balances",
          "type": "uint256[3]"
        },
        {
          "internalType": "uint256",
          "name": "amp",
          "type": "uint256"
        }
      ],
      "name": "get_D_mem",
      "outputs": [
        {
          "internalType": "uint256",
          "name": "",
          "type": "uint256"
        }
      ],
      "stateMutability": "view",
      "type": "function"
    },
    {
      "inputs": [
        {
          "internalType": "address",
          "name": "_swap",
          "type": "address"
        },
        {
          "internalType": "uint256[3]",
          "name": "amounts",
          "type": "uint256[3]"
        }
      ],
      "name": "get_add_liquidity_fee",
      "outputs": [
        {
          "internalType": "uint256[3]",
          "name": "liquidityFee",
          "type": "uint256[3]"
        }
      ],
      "stateMutability": "view",
      "type": "function"
    },
    {
      "inputs": [
        {
          "internalType": "address",
          "name": "_swap",
          "type": "address"
        },
        {
          "internalType": "uint256[3]",
          "name": "amounts",
          "type": "uint256[3]"
        }
      ],
      "name": "get_add_liquidity_mint_amount",
      "outputs": [
        {
          "internalType": "uint256",
          "name": "",
          "type": "uint256"
        }
      ],
      "stateMutability": "view",
      "type": "function"
    },
    {
      "inputs": [
        {
          "internalType": "address",
          "name": "_swap",
          "type": "address"
        },
        {
          "internalType": "uint256",
          "name": "i",
          "type": "uint256"
        },
        {
          "internalType": "uint256",
          "name": "j",
          "type": "uint256"
        },
        {
          "internalType": "uint256",
          "name": "dy",
          "type": "uint256"
        },
        {
          "internalType": "uint256",
          "name": "max_dx",
          "type": "uint256"
        }
      ],
      "name": "get_dx",
      "outputs": [
        {
          "internalType": "uint256",
          "name": "",
          "type": "uint256"
        }
      ],
      "stateMutability": "view",
      "type": "function"
    },
    {
      "inputs": [
        {
          "internalType": "address",
          "name": "_swap",
          "type": "address"
        },
        {
          "internalType": "uint256",
          "name": "i",
          "type": "uint256"
        },
        {
          "internalType": "uint256",
          "name": "j",
          "type": "uint256"
        },
        {
          "internalType": "uint256",
          "name": "dx",
          "type": "uint256"
        }
      ],
      "name": "get_exchange_fee",
      "outputs": [
        {
          "internalType": "uint256",
          "name": "exFee",
          "type": "uint256"
        },
        {
          "internalType": "uint256",
          "name": "exAdminFee",
          "type": "uint256"
        }
      ],
      "stateMutability": "view",
      "type": "function"
    },
    {
      "inputs": [
        {
          "internalType": "address",
          "name": "_swap",
          "type": "address"
        },
        {
          "internalType": "uint256[3]",
          "name": "amounts",
          "type": "uint256[3]"
        }
      ],
      "name": "get_remove_liquidity_imbalance_fee",
      "outputs": [
        {
          "internalType": "uint256[3]",
          "name": "liquidityFee",
          "type": "uint256[3]"
        }
      ],
      "stateMutability": "view",
      "type": "function"
    },
    {
      "inputs": [
        {
          "internalType": "address",
          "name": "_swap",
          "type": "address"
        },
        {
          "internalType": "uint256",
          "name": "_token_amount",
          "type": "uint256"
        },
        {
          "internalType": "uint256",
          "name": "i",
          "type": "uint256"
        }
      ],
      "name": "get_remove_liquidity_one_coin_fee",
      "outputs": [
        {
          "internalType": "uint256",
          "name": "adminFee",
          "type": "uint256"
        }
      ],
      "stateMutability": "view",
      "type": "function"
    },
    {
      "inputs": [
        {
          "internalType": "address",
          "name": "_swap",
          "type": "address"
        }
      ],
      "name": "token",
      "outputs": [
        {
          "internalType": "contract IERC20",
          "name": "",
          "type": "address"
        }
      ],
      "stateMutability": "view",
      "type": "function"
    }
  ],
  "transactionHash": "0xa9805d940fd16acd123bb482dd1e1c947a0ea71c967f38ad5b3ea523c32662bc",
  "args": [],
  "numDeployments": 1,
  "solcInputHash": "e01055ca5ec021cf1427f0131726ccb9",
  "bytecode": "0x6080806040523461001657611fae908161001c8239f35b600080fdfe608080604052600436101561001357600080fd5b60003560e01c90816315a4d7fe14611355575080631f38b0c7146111715780632494acbd1461114d578063279a07cc1461112957806327e235e31461110557806329357750146110e9578063437fe6f914610ec757806346f57d4514610b9b5780635779dcd8146107b15780636d46a1db1461077d5780637619153d14610742578063789787ac146103da57806382abb1a31461039c578063aaf5eb6814610379578063ca4bc714146100f45763d73792a9146100cf57600080fd5b346100ef5760003660031901126100ef5760206040516402540be4008152f35b600080fd5b346100ef5760a03660031901126100ef5761010d6114a6565b6064359060249081356044356101228361178c565b9261012d8482611947565b906402540be400808802978089048214901517156103645760405163ddca3f4360e01b81526020989089816004816001600160a01b0388165afa9081156103585760009161032b575b5082039182116103165761018e6101949286926115d5565b966115f5565b518510156102d2579081816101a98694611636565b94846101b582846115f5565b51670de0b6b3a7640000809a6101cb858b6115f5565b516101d5916115c2565b046101df91611629565b916101e9946119aa565b916101f3916115f5565b516101fd91611629565b8381029381850414901517156102bd57610222929161021b916115f5565b51906115d5565b90600182018092116102a95760843582116102405750604051908152f35b82602e6084926040519262461bcd60e51b845260048401528201527f45786368616e676520726573756c74656420696e20666577657220636f696e7360448201527f207468616e2065787065637465640000000000000000000000000000000000006064820152fd5b634e487b7160e01b60009081526011600452fd5b83634e487b7160e01b60005260116004526000fd5b60405162461bcd60e51b815260048101889052600e818801527f4578636573732062616c616e63650000000000000000000000000000000000006044820152606490fd5b87634e487b7160e01b60005260116004526000fd5b90508981813d8311610351575b610342818361151c565b810103126100ef57518a610176565b503d610338565b6040513d6000823e3d90fd5b86634e487b7160e01b60005260116004526000fd5b346100ef5760003660031901126100ef576020604051670de0b6b3a76400008152f35b346100ef5760803660031901126100ef576103d66103ca6103bb6114a6565b6103c436611580565b90611947565b604051918291826114bc565b0390f35b346100ef5760803660031901126100ef576103f36114a6565b6103fc36611580565b906040519161040a836114ea565b606036843760405163ddca3f4360e01b8152916001600160a01b0391818316916020918286600481875afa95861561035857600096610713575b506003956003810290808204600314901517156106fd5760031c946040519463fee3f7f960e01b86528486600481845afa958615610358576000966106cc575b50908460049260405193848092630f446c1d60e41b82525afa90811561035857859060009261069c575b600493506104bb866118d3565b16604051938480926318160ddd60e01b82525afa9182156103585760009261066d575b506000936104eb8161178c565b921580159485610657575b969190604051978893610508856114ea565b8651855280870151908501526040860151604085015260005b8c81106105fb5750505061053e929161053991611947565b611c28565b9161054a848411611887565b61055d575b604051806103d68a826114bc565b60005b87811061056d575061054f565b806105ca6105d0886105948861058f6105886001988a6115f5565b518a6115c2565b6115d5565b61059e858b6115f5565b518111156105e2576105bb906105b4868c6115f5565b5190611629565b6402540be4009384918d6115c2565b046115c2565b046105db828c6115f5565b5201610560565b6105f6906105f0868c6115f5565b51611629565b6105bb565b826001929394955061063d575b61062761061582896115f5565b5161062083866115f5565b519061161c565b610631828c6115f5565b52019088939291610521565b61065261064a82856115f5565b511515611830565b610608565b9550610667836105398685611947565b956104f6565b9091508481813d8311610695575b610685818361151c565b810103126100ef575190896104de565b503d61067b565b915082813d83116106c5575b6106b2818361151c565b810103126100ef578460049251916104ae565b503d6106a8565b919095508482813d83116106f6575b6106e5818361151c565b810103126100ef5790519484610484565b503d6106db565b634e487b7160e01b600052601160045260246000fd5b9095508281813d831161073b575b61072b818361151c565b810103126100ef57519487610444565b503d610721565b346100ef5760a03660031901126100ef5760206107756107606114a6565b61053961076c3661153e565b60843592611947565b604051908152f35b346100ef5760203660031901126100ef5760206107a061079b6114a6565b6118d3565b6001600160a01b0360405191168152f35b346100ef5760603660031901126100ef576107ca6114a6565b604051630f446c1d60e41b8152906020826004816001600160a01b0385165afa91821561035857600092610b67575b5060405163ddca3f4360e01b81526020816004816001600160a01b0386165afa90811561035857600091610b35575b506003810290808204600314901517156106fd5760031c91610849826116e8565b906060604051610858816114ea565b36903761086483611636565b9360005b60038110610a95575061087b8286611c28565b94610888866024356115c2565b600460206001600160a01b0361089d896118d3565b16604051928380926318160ddd60e01b82525afa90811561035857600091610a61575b506108ce906108d4926115d5565b87611629565b916108e3838360443587611e09565b906109036108f7836105f0604435876115f5565b61021b604435896115f5565b9760005b600381106109db5750505050610939929161093391610928604435826115f5565b519360443590611e09565b90611629565b60001981019081116106fd576001600160a01b03936109336109649261021b602095604435906115f5565b9160046040518095819363fee3f7f960e01b8352165afa918215610358576000926109a5575b60206402540be40061099c85856115c2565b04604051908152f35b91506020823d6020116109d3575b816109c06020938361151c565b810103126100ef5790519061099c61098a565b3d91506109b3565b600190610a296402540be400610a1e85888b868c6044358203610a3a57610a1392610a0d610a18969361058f936115f5565b516115c2565b611629565b876115c2565b046105f083896115f5565b610a3382886115f5565b5201610907565b92509261058f61093392610a0d86610a55610a5c98886115f5565b51966115f5565b610a18565b90506020813d602011610a8d575b81610a7c6020938361151c565b810103126100ef57516108d46108c0565b3d9150610a6f565b610a9f81876115f5565b51604051634903b0d160e01b81526004810183905291906020836024816001600160a01b038b165afa92831561035857600093610aff575b50610aed600193670de0b6b3a7640000926115c2565b04610af882896115f5565b5201610868565b92506020833d602011610b2d575b81610b1a6020938361151c565b810103126100ef57915191610aed610ad7565b3d9150610b0d565b90506020813d602011610b5f575b81610b506020938361151c565b810103126100ef575183610828565b3d9150610b43565b9091506020813d602011610b93575b81610b836020938361151c565b810103126100ef575190826107f9565b3d9150610b76565b346100ef5760803660031901126100ef57610bb46114a6565b610bbd3661153e565b906001600160a01b039081811660405190610bd7826114ea565b60603683376040519163ddca3f4360e01b83526020948584600481865afa93841561035857600094610e98575b506003966003850294808604600314901517156106fd578660049560031c9460405196878092630f446c1d60e41b82525afa918215610358578790600093610e68575b60049650610c54886118d3565b16604051968780926318160ddd60e01b82525afa94851561035857600095610e39575b50600095610c848161178c565b9886159485159687610e23575b60409b9a9b5194610ca1866114ea565b8b5186528c8c01518d87015260408c0151604087015260005b848110610de5575050610cd1866105398787611947565b9a610cdd8b8d11611887565b8b98610d1b575b50505050505050600014610cfd57505050604051908152f35b610d16935090610d108361058f93611629565b906115c2565b610775565b90919293949596975060005b8a8c868310610d525750505050505050610d45929161053991611947565b9086808080808080610ce4565b610d9d610d77849361058f6402540be40094610d706001988a6115f5565b51906115c2565b610d81848c6115f5565b51811115610dd257610d97906105b4858d6115f5565b866115c2565b04610da882876115f5565b52610dc1610db682876115f5565b516105f0838b6115f5565b610dcb828a6115f5565b5201610d27565b610de0906105f0858d6115f5565b610d97565b80610dfd8e9f9e600193610615918d610e11576115f5565b610e07828a6115f5565b52019c9b9c610cba565b610e1e61064a83896115f5565b6115f5565b9850610e33856105398d86611947565b98610c91565b9094508681813d8311610e61575b610e51818361151c565b810103126100ef57519388610c77565b503d610e47565b925085813d8311610e91575b610e7e818361151c565b810103126100ef57866004955192610c47565b503d610e74565b9093508581813d8311610ec0575b610eb0818361151c565b810103126100ef57519287610c04565b503d610ea6565b346100ef5760803660031901126100ef57610ee06114a6565b610ee93661153e565b60405191610ef6836114ea565b606036843760405163ddca3f4360e01b8152916001600160a01b038216906020908185600481865afa948515610358576000956110ba575b506003946003810290808204600314901517156106fd5760031c936040519363fee3f7f960e01b85528385600481845afa9485156103585760009561108b575b508360049160405192838092630f446c1d60e41b82525afa9081156103585760009161105e575b50610fa182949261178c565b91604051948591610fb1836114ea565b84518352808501519083015260408401516040830152610fd5836105398684611947565b9460005b8a8110611036575050610ff0929161053991611947565b9060005b87811061100957604051806103d68b826114bc565b806105ca611024886105948861058f6105886001988a6115f5565b0461102f828c6115f5565b5201610ff4565b81929350611049610db6826001946115f5565b611053828a6115f5565b520190869291610fd9565b90508381813d8311611084575b611075818361151c565b810103126100ef575188610f95565b503d61106b565b9094508381813d83116110b3575b6110a3818361151c565b810103126100ef57519383610f6e565b503d611099565b9094508181813d83116110e2575b6110d2818361151c565b810103126100ef57519386610f2e565b503d6110c8565b346100ef5760003660031901126100ef57602060405160038152f35b346100ef5760203660031901126100ef576103d66103ca6111246114a6565b61178c565b346100ef5760203660031901126100ef576103d66103ca6111486114a6565b6116e8565b346100ef5760203660031901126100ef576103d66103ca61116c6114a6565b611636565b346100ef5760803660031901126100ef5761118a6114a6565b6001600160a01b0381169061120b6111aa6111a48361178c565b83611947565b6105f0611201826111ba86611636565b956111f36111ca602435846115f5565b51670de0b6b3a76400006111ec6111e36024358c6115f5565b516064356115c2565b049061161c565b9060443590602435906119aa565b91604435906115f5565b60001981019081116106fd5760405163ddca3f4360e01b8152602091908281600481885afa908115610358578390600092611327575b50600491926112576402540be4009485926115c2565b04956040519283809263fee3f7f960e01b82525afa8015610358576000906112f8575b6112859150856115c2565b0492670de0b6b3a7640000810290808204670de0b6b3a764000014901517156106fd576112b89061021b604435856115f5565b91670de0b6b3a7640000840293808504670de0b6b3a764000014901517156106fd5760409361021b6112ed92604435906115f5565b908351928352820152f35b508281813d8311611320575b61130e818361151c565b810103126100ef57611285905161127a565b503d611304565b809250813d831161134e575b61133d818361151c565b810103126100ef5751826004611241565b503d611333565b346100ef5760403660031901126100ef5761136e6114a6565b602490606060243593611380816114ea565b3690376001600160a01b039182611396836118d3565b166040519182916318160ddd60e01b835282600460209485935afa92831561035857600093611477575b50604051946113ce866114ea565b606036873760009416935b600381106113ef57604051806103d688826114bc565b604051634903b0d160e01b8152600481018290529083828481895afa9182156103585785928991600091611440575b509261058f61142f926001956115c2565b61143982896115f5565b52016113d9565b935050508382813d8311611470575b611459818361151c565b810103126100ef579051849190889061058f61141e565b503d61144f565b9092508181813d831161149f575b61148f818361151c565b810103126100ef575191866113c0565b503d611485565b600435906001600160a01b03821682036100ef57565b6060810192916000915b600383106114d357505050565b6001908251815260208091019201920191906114c6565b6060810190811067ffffffffffffffff82111761150657604052565b634e487b7160e01b600052604160045260246000fd5b90601f8019910116810190811067ffffffffffffffff82111761150657604052565b80604312156100ef5760405190611554826114ea565b816084916084116100ef576024905b8282106115705750505090565b8135815260209182019101611563565b80604312156100ef5760405190611596826114ea565b816084916084116100ef576024905b8282106115b25750505090565b81358152602091820191016115a5565b818102929181159184041417156106fd57565b81156115df570490565b634e487b7160e01b600052601260045260246000fd5b9060038110156116065760051b0190565b634e487b7160e01b600052603260045260246000fd5b919082018092116106fd57565b919082039182116106fd57565b906040805192611645846114ea565b60603685378360005b6003811061165c5750505050565b83516318880f5d60e21b8152600481018290526020919082816024816001600160a01b0389165afa9081156116dd576000916116a9575b50600192506116a282856115f5565b520161164e565b919282813d83116116d6575b6116bf818361151c565b810103126116d35750906001915138611693565b80fd5b503d6116b5565b86513d6000823e3d90fd5b9060408051926116f7846114ea565b60603685378360005b6003811061170e5750505050565b8351631f6be8d960e21b8152600481018290526020919082816024816001600160a01b0389165afa9081156116dd5760009161175b575b506001925061175482856115f5565b5201611700565b919282813d8311611785575b611771818361151c565b810103126116d35750906001915138611745565b503d611767565b90604080519261179b846114ea565b60603685378360005b600381106117b25750505050565b8351634903b0d160e01b8152600481018290526020919082816024816001600160a01b0389165afa9081156116dd576000916117ff575b50600192506117f882856115f5565b52016117a4565b919282813d8311611829575b611815818361151c565b810103126116d357509060019151386117e9565b503d61180b565b1561183757565b60405162461bcd60e51b815260206004820152602260248201527f496e697469616c206465706f73697420726571756972657320616c6c20636f696044820152616e7360f01b6064820152608490fd5b1561188e57565b60405162461bcd60e51b815260206004820152601a60248201527f4431206d7573742062652067726561746572207468616e2044300000000000006044820152606490fd5b604051637e062a3560e11b81526001600160a01b03916020908290600490829086165afa9081156103585760009161190a57501690565b6020813d60201161193f575b816119236020938361151c565b8101031261193b57519082821682036116d357501690565b5080fd5b3d9150611916565b61196490929192606060405161195c816114ea565b369037611636565b9160005b60038110611974575050565b80670de0b6b3a764000061199861198d600194886115f5565b51610d7084876115f5565b046119a382876115f5565b5201611968565b604051630f446c1d60e41b8152600495929492916020908290889082906001600160a01b03165afa90811561035857600091611bf6575b506119ec8183611c28565b809560009460039485850297858904871486151715611be357918994939188935b888510611b52575050505050600991611a25916115c2565b9102918483041484151715611b3d57611a45611a529392611a4c926115d5565b93856115d5565b9061161c565b918060005b60ff8110611aa35760405162461bcd60e51b8152602081880152601160248201527f646f6573206e6f7420636f6e76657267650000000000000000000000000000006044820152606490fd5b82611ab785611ab283806115c2565b61161c565b6001916001600160ff1b0381168103611b285790611ade85610a138a611ae495871b61161c565b906115d5565b938481811115611b115790611af891611629565b1115611b08576001905b01611a57565b50509250505090565b611b1a91611629565b1115611b0857600190611b02565b601189634e487b7160e01b6000525260246000fd5b601186634e487b7160e01b6000525260246000fd5b91939550919397848614600014611bb957611b788b611b7286809461161c565b9a6115c2565b888202918083048a1490151715611ba457600191611b95916115d5565b955b019290918a959492611a0d565b60118d634e487b7160e01b6000525260246000fd5b858214611bd957611b788b611b72611bd189876115f5565b51809461161c565b9794600190611b97565b634e487b7160e01b885260118b52602488fd5b906020823d602011611c20575b81611c106020938361151c565b810103126116d3575051386119e1565b3d9150611c03565b90600091825b60038110611df157508215611de957826003808402938085048214901517156106fd57909360001984018481119290919060005b60ff8110611cd55760405162461bcd60e51b815260206004820152602660248201527f696e76617269616e742063616c63756c6174696f6e20646964206e6f7420636f60448201527f6e766572676500000000000000000000000000000000000000000000000000006064820152608490fd5b8260005b838110611da4575083611cec8a8a6115c2565b90848302918383048614841517156106fd5781611d0d8a94611d129361161c565b6115c2565b916106fd57611d2190876115c2565b907f3fffffffffffffffffffffffffffffffffffffffffffffffffffffffffffffff831683036106fd57611ade611d5e9260019460021b9061161c565b938481811115611d8d5790611d7291611629565b1115611d82576001905b01611c62565b505094505050505090565b611d9691611629565b1115611d8257600190611d7c565b969084611db3919a939a6115c2565b611dbd88836115f5565b5190848202918083048614901517156106fd57600191611ddc916115d5565b9701989198969096611cd9565b505050600090565b92611e0260019161062086856115f5565b9301611c2e565b90600380821015611f5c578460009282850295858704841486151715611f485787929185915b858310611eef57505050600991611e45916115c2565b93029084820414841517156106fd57611a45611a4c91611e64946115d5565b908260005b60ff8110611e79575b5050505090565b84611e8884611ab283806115c2565b906001916001600160ff1b03821682036106fd57611ade85610a1389611eaf95871b61161c565b958681811115611ed85790611ec391611629565b1115611ed3576001905b01611e69565b611e72565b611ee191611629565b1115611ed357600190611ecd565b92959193509190828414611f3e57611f1489611f0e611bd187866115f5565b976115c2565b858202918083048714901517156106fd57600191611f31916115d5565b935b019091889392611e2f565b9492600190611f33565b634e487b7160e01b85526011600452602485fd5b60405162461bcd60e51b815260206004820152601460248201527f6465763a20692061626f7665204e5f434f494e530000000000000000000000006044820152606490fdfea164736f6c6343000818000a",
  "devdoc": {
    "details": "This contract provides utility functions for retrieving information and calculating fees related to stable swaps with three coins.",
    "kind": "dev",
    "methods": {
      "PRECISION_MUL(address)": {
        "params": {
          "_swap": "Address of the stable swap contract"
        }
      },
      "RATES(address)": {
        "params": {
          "_swap": "Address of the stable swap contract"
        }
      },
      "_xp_mem(address,uint256[3])": {
        "params": {
          "_balances": "The array of balances to calculate virtual balances from."
        }
      },
      "balances(address)": {
        "params": {
          "_swap": "Address of the stable swap contract"
        }
      },
      "calc_coins_amount(address,uint256)": {
        "params": {
          "_amount": "Amount of LP tokens to burn in the withdrawal",
          "_swap": "Address of the stable swap contract"
        }
      },
      "get_D_mem(address,uint256[3],uint256)": {
        "params": {
          "_balances": "Array of balances to calculate virtual balances from.",
          "amp": "Amplification factor of the pool."
        }
      },
      "get_add_liquidity_fee(address,uint256[3])": {
        "params": {
          "_swap": "Address of the stable swap contract",
          "amounts": "Array of amounts for each coin being deposited"
        }
      },
      "get_add_liquidity_mint_amount(address,uint256[3])": {
        "params": {
          "_swap": "Address of the stable swap contract",
          "amounts": "Array of amounts for each coin being deposited"
        }
      },
      "get_dx(address,uint256,uint256,uint256,uint256)": {
        "params": {
          "_swap": ": Addresses of pool conracts .",
          "dy": ":  the given amount out",
          "i": ": the token index.",
          "j": ": the token index ",
          "max_dx": ": the maximum of amount in "
        }
      },
      "get_exchange_fee(address,uint256,uint256,uint256)": {
        "params": {
          "_swap": "Address of the stable swap contract",
          "dx": "Amount of token to swap from",
          "i": "Index of the token to swap from",
          "j": "Index of the token to swap to"
        },
        "returns": {
          "exAdminFee": "Admin fee for the swap",
          "exFee": "Exchange fee for the swap"
        }
      },
      "get_remove_liquidity_imbalance_fee(address,uint256[3])": {
        "params": {
          "_swap": "Address of the stable swap contract",
          "amounts": "Array of amounts for each coin being withdrawn"
        }
      },
      "get_remove_liquidity_one_coin_fee(address,uint256,uint256)": {
        "params": {
          "_swap": "Address of the stable swap contract",
          "_token_amount": "Amount of liquidity tokens being withdrawn",
          "i": "Index of the coin to withdraw"
        }
      },
      "token(address)": {
        "params": {
          "_swap": "Address of the stable swap contract"
        }
      }
    },
    "title": "StableSwapThreePoolInfo",
    "version": 1
  },
  "userdoc": {
    "kind": "user",
    "methods": {
      "PRECISION_MUL(address)": {
        "notice": "Get the precision multipliers for each coin in the pool"
      },
      "RATES(address)": {
        "notice": "Get the exchange rates for each coin in the pool"
      },
      "_xp_mem(address,uint256[3])": {
        "notice": "Calculates the array of virtual balances for the pool, scaled by precision, using provided balances."
      },
      "balances(address)": {
        "notice": "Get the balances of each coin in the pool"
      },
      "calc_coins_amount(address,uint256)": {
        "notice": "Calculate the amount of each coin received when removing liquidity "
      },
      "get_D_mem(address,uint256[3],uint256)": {
        "notice": "Calculates the total value of the pool's assets (invariant D), given balances and amplification factor."
      },
      "get_add_liquidity_fee(address,uint256[3])": {
        "notice": "Calculate the fee charged when adding liquidity"
      },
      "get_add_liquidity_mint_amount(address,uint256[3])": {
        "notice": "Calculate the amount of LP token received when adding liquidity"
      },
      "get_dx(address,uint256,uint256,uint256,uint256)": {
        "notice": "get amountIn  with the given amount out  "
      },
      "get_exchange_fee(address,uint256,uint256,uint256)": {
        "notice": "Calculates the exchange fee and admin fee for a token swap"
      },
      "get_remove_liquidity_imbalance_fee(address,uint256[3])": {
        "notice": "Calculate the fee charged when removing liquidity"
      },
      "get_remove_liquidity_one_coin_fee(address,uint256,uint256)": {
        "notice": "Calculate the fee charged when removing liquidity for a single coin"
      },
      "token(address)": {
        "notice": "Get the LP token of the two pool"
      }
    },
    "notice": "Contract for retrieving information about stable swaps with three coins",
    "version": 1
  },
  "storageLayout": {
    "storage": [],
    "types": null
  }
}